:10000000F8FF0020110400004527000045270000EC
:100010004527000045270000452700004527000030
:100020004527000045270000452700004527000020
:100030004527000045270000452700004527000010
:100040004527000045270000452700004527000000
:1000500045270000452700004527000045270000F0
:1000600045270000452700004527000045270000E0
:1000700045270000452700004527000045270000D0
:1000800045270000452700004527000045270000C0
:1000900045270000452700004527000045270000B0
:1000A00045270000452700004527000045270000A0
:1000B0004527000045270000452700004527000090
:1000C0004527000045270000452700004527000080
:1000D0004527000045270000452700004527000070
:1000E0004527000045270000452700004527000060
:1000F0004527000045270000452700004527000050
:10010000452700004527000045270000452700003F
:10011000452700004527000045270000452700002F
:10012000452700004527000045270000452700001F
:10013000452700004527000045270000452700000F
:1001400045270000452700004527000045270000FF
:1001500045270000452700004527000045270000EF
:1001600045270000452700004527000045270000DF
:1001700045270000452700004527000045270000CF
:1001800045270000452700004527000045270000BF
:1001900045270000452700004527000045270000AF
:1001A0000123000029230000452700004527000007
:1001B000452700004527000045270000452700008F
:1001C000452700004527000045270000452700007F
:1001D000452700004527000045270000452700006F
:1001E000452700004527000045270000452700005F
:10040000FFFFFFFFFFFFFFFFFFFFFFFFFEFFFFFFFD
:1004100062B64FF000004FF000014FF000024FF0C5
:1004200000034FF000044FF000054FF000064FF0BE
:1004300000074FF000084FF000094FF0000A4FF09E
:10044000000B4FF0000C02F0ADF9FEE710B40022F3
:10045000FA23DFF8F04603FB0143C35C002B1CD1F9
:10046000DFF8E4360024CC540200012A09DBFA2329
:10047000DFF8D04603FB0143D35C002B01D1521EB1
:10048000F3E7FA23DFF8BC4603FB0143D35C012BFF
:100490001FD1DFF8B436CA541BE0DFF8AC365F2456
:1004A000CC5402005F2A09DAFA23DFF8984603FBEE
:1004B0000143D35C012B01D1521CF3E7FA23DFF88F
:1004C000844603FB0143D35C002B02D1DFF878366E
:1004D000CA5410BC704710B40022FA23DFF86446F7
:1004E00003FB0143C35C002B1CD1DFF86036BE2444
:1004F000CC540200BE2A09DAFA23DFF8484603FB8F
:100500000143D35C002B01D1521CF3E7FA23DFF83F
:10051000344603FB0143D35C012B1FD1DFF82C369B
:10052000CA541BE0DFF824365F24CC540200602A52
:1005300009DBFA23DFF80C4603FB0143D35C012BF4
:1005400001D1521EF3E7FA23DFF8F84503FB01431C
:10055000D35C002B02D1DFF8F435CA5410BC7047CD
:10056000F0B40200C9B2DFF8E0050B5C00240025FE
:10057000C9B2080052FA81F6B0422EDA022692FB86
:10058000F6F6AE4201DA002028E0DFF8BC658355BC
:100590005E1D3400FA26DFF8AC7506FB0076A65D1A
:1005A000002E06D15E1FA64203DA012C01DB641E79
:1005B000F0E7FA26DFF88C7506FB0076A65D012EC3
:1005C00008D1DFF88465671C8755661C3300002658
:1005D000350000E06D1C401CCCE70120F0BC7047EA
:1005E000F0B40200C9B2DFF864050B5C00240025FA
:1005F000C9B2080052FA81F6B0422FDA022692FB05
:10060000F6F6AE4201DA002029E0DFF840658355B6
:100610005E1F3400FA26DFF82C7506FB0076A65D17
:10062000002E06D15E1DB44203DABE2C01DA641C32
:10063000F0E7FA26DFF80C7506FB0076A65D012EC2
:1006400009D1DFF8086527007F1E8755661E330035
:100650000026350000E06D1C401CCBE70120F0BCFB
:10066000704710B42920C0B231281DD2C0B2DFF8C3
:10067000E014411811F8291CC0B2DFF8D424821804
:1006800012F8282CC9B291420CD2C9B2DFF8C424A6
:10069000C0B2FA23DFF8AC4403FB004342F8213038
:1006A000491CE9E7401CDEE710BC70472DE9FD4F0F
:1006B00081B00C000198201A401C009000275FF0C8
:1006C0000008002500265FF000095FF0000A01988D
:1006D000844209DBDFF8801431F910105F39CF193B
:1006E00010EB0808401CF3E7009897FBF0F00500BA
:1006F000009898FBF0F00600DDF804B05C451BDBC9
:10070000DFF8540430F91B00401BBBEB06014843E3
:1007100000F044FA494600F069FA8146BBEB060056
:10072000BBEB0601484300F039FA514600F05EFA8F
:1007300082461BF1010BE1E75046002100F098FAD8
:1007400003D102980021016005E04846514600F0BF
:100750009DFA02990860280000F020FA83463000D4
:1007600000F01CFADFF8F413096800F00DFB01003B
:10077000584600F075FB03990860BDE8FF8F70B420
:10078000D2B2002A0CD10300994235DBDFF8C8430E
:10079000DFF8B4535D5D3F3524F813505B1CF3E77D
:1007A000D2B2012A15D10300994225DBDFF8984324
:1007B0001C5D022594FBF5F4DFF890535D5D022685
:1007C00095FBF6F52C19DFF8905325F813405B1CC8
:1007D000EAE7D2B2022A0FD1030099420CDBDFF81C
:1007E0006C431C5D022594FBF5F43F3CDFF8685335
:1007F00025F813405B1CF0E770BC704772B6DFF859
:100800006003006850F08070DFF854130860DFF870
:100810005403006850F48060DFF848130860DFF884
:1008200048034FF4C0610160DFF840034FF4C0613A
:100830000160DFF83C0300210160DFF8380300218C
:100840000160DFF8340300210160DFF83003006845
:1008500050F00500DFF824130860DFF824034FF69A
:10086000FF710160DFF81C030F21016070472DE963
:10087000F04182B08046002700A8002101600024DA
:100880000026404600F060FB31F0004102000B0002
:100890000020BD4900F080FB00F050FC0500404600
:1008A000002100F071FC03D22D21012000F05BFD3E
:1008B000B64895FBF0F030300700B44895FBF0F1F6
:1008C00000FB115042F2107190FBF1F03030040047
:1008D00042F2107095FBF0F100FB11504FF47A7169
:1008E00090FBF1F0303006004FF47A7095FBF0F198
:1008F00000FB1150642190FBF1F030308DF80000C6
:10090000642095FBF0F100FB11500A2190FBF1F0FF
:1009100030308DF801000A2095FBF0F100FB1150FA
:1009200030308DF802003900C9B2012000F01BFD03
:100930002100C9B2012000F016FD3100C9B201202A
:1009400000F011FD2E21012000F00DFD9DF800109A
:10095000012000F008FD9DF80110012000F003FDCA
:100960009DF80210012000F0FEFC2021012000F083
:10097000FAFC2021012000F0F6FCBDE8F381000024
:1009800038B572B6012300220B21002000F018FDBB
:100990004FF4FA7314220421002000F071FD0523A6
:1009A00032220121012000F06BFDFFF727FF0A2210
:1009B0000121012000F050FF09220121022000F056
:1009C0004BFF4FF46141012000F0F0FB62B6C822FA
:1009D0000421002000F0E0FE72B6FFF742FE0F2176
:1009E0001E20FFF733FD0F21A020FFF774FD0F211C
:1009F0001A20FFF7B5FD664908700F211A20FFF78E
:100A0000EFFD64490870624800786249097808433C
:100A1000C0B2002818D05F480078002805D1002215
:100A200028211420FFF7ABFE0EE05948007800287B
:100A300005D1022228211420FFF7A1FE04E00122A3
:100A400028211420FFF79BFE534B444A28211420F1
:100A5000FFF72CFE3C24E4B22A2C1BD30A210120F0
:100A600000F081FC0D21012000F07DFC0025EDB29D
:100A7000BE2D0DD2EDB2E4B2364850F82400285C09
:100A800010F13001C9B2012000F06DFC6D1CEEE7E1
:100A9000641EE0E72824E4B20C2C36D30A2101209E
:100AA00000F061FC0D21012000F05DFC0025EDB29D
:100AB000BE2D28D2E4B22448205CEDB2A8420ED06C
:100AC000E4B22248205CEDB2A84208D0E4B2224849
:100AD00030F914002900C9B209B2884204D120219A
:100AE000012000F040FC0CE0EDB2E4B2FA20154920
:100AF00000FB0410285C10F13001C9B2012000F0A5
:100B000032FC6D1CD3E7641EC5E70A21012000F00A
:100B10002AFC0D21012000F026FC10480068FFF798
:100B2000A6FE1D480068FFF7A2FE0A21012000F082
:100B30001AFC0D21012000F016FC62B6142000F012
:100B4000C1FE49E7C004FF1FF867FF1F5C68FF1F75
:100B50004404FF1F6866FF1FC068FF1F8869FF1FEE
:100B6000308004403880044048A004404CA0044039
:100B700000800B4004800B404C800B4054800B40A5
:100B800008800B4080800B4000408F40A086010011
:100B9000A569FF1FA669FF1F8C69FF1F002840F190
:100BA0000780F446404200F003F850F000406047F0
:100BB0000AD0B0FA80F18840D1F19D01C905020642
:100BC00072F1004241EB1020704750F8041B61B1F4
:100BD00050F8042BD30744BFA9F101039A1800234E
:100BE00042F8043B091FFAD1EFE7704790EA010F82
:100BF00044BF81F0004100F03BB900BF421A3CBF46
:100C0000801A89184FF0004CC0F3C752FF2A24D035
:100C1000C1F3C75313B3D21AD2F1190327DD4CEA3B
:100C200001214CFA03F321EA0303D140C20D4CEA3F
:100C30000020401834BF20EA0C004CEA5000D205D6
:100C400053EA006373EB0C0C52EB1020420012F1DC
:100C5000807F38BF7047C00DC0057047490212BF82
:100C60009A4200EB5120F8E7D2F11703D9D570472B
:100C700040EA010C5FEA4C0C07D0884205D14FEAEC
:100C8000400C1CF1807F98BF8042704710B5FF2355
:100C900013EAD0541DBF13EAD1529C429A4239E064
:100CA000A41ADA0780EA0103134042EA012142EA6A
:100CB0000020421A3CBF641E01EB4202090AB2FB4B
:100CC000F1FE01FB1E221202B2FBF1F001FB102229
:100CD0006EF30F201202B2FBF1FE4EEA00207F34C9
:100CE00006DDFE2C24DA53EA500050EBC45010BD50
:100CF000D4F1020401FB1E2240F08071192C1DDC8E
:100D000021FA04F0C4F12004A140114371F1004222
:100D1000584110BD9C421ABF03EAD1529A420FE0DB
:100D200080EA010E0EF00043400004D0490016D1C5
:100D300043F0FF4010BD490008BFD343180010BD69
:100D40009C4205D1D21AF7D001F00041484010BDB5
:100D50004A0212BF0846484000F0004010BD4AB9A0
:100D60000902B1FA81F2914044B1A418C00140F0E7
:100D700000409EE7C90141F0004152420002B0FA32
:100D800080F4A040141B94E7FF2212EAD05C1DBF40
:100D900012EAD153944593422BE09C44D30780EA56
:100DA00001021A4043EA002043EA0121A1FB00307E
:100DB000410038BF40007CF17F010BDBFE294ADA9D
:100DC0005B0842EAC15153EA006373F1004C51EBF6
:100DD00010207047D1F1080CDCF120012FDB5B08FB
:100DE00010FA01F10B4373F1004120FA0CF050416D
:100DF000704794451CBF02EAD153934280EA010236
:100E000002F000421DD0400019D0490017D05BB954
:100E1000634514D00902B1FA81F39940BCEB030C8D
:100E2000C00140F00040C1E70002B0FA80FC10FAB7
:100E30000CF0B3EB0C0CC90141F00041B6E7100017
:100E4000704740000AD0490008D010F1807F94BF5D
:100E500011F1807F02E042F0FF407047D0437047BD
:100E600090EA010F44BF81F00041FFF7C7BE00BF09
:100E7000431A4FF000423EBF5340C01AC91800BF8A
:100E8000D3095FEAD05C13EB400F34BFB3EB410FE3
:100E900040E07CEBD1530CD342EA012122D8D1EBC4
:100EA000402009D3400A28BF5FEA500140EBCC50F4
:100EB0007047401A15D04002B0FA80F2521C9040A0
:100EC000400A4FEA3C23B3EB026384BF00EB73009C
:100ED00007E040F400001A16DB07C2F10102D0401F
:100EE00018437047182BFCDC31FA03F202FA03F3C3
:100EF000591A38BF42F00102D2EB40203CBF4000FB
:100F0000ACF1010C5FEACC5CC20572F100414CEB24
:100F10005020704713EB400F0FD24B0009D0ACEBC1
:100F2000D153022B03DB4902172BDDDD70479143C0
:100F3000401A4300D5D10020704713EB410FD0D3A6
:100F40006FF00000704700005FF0FF0C1CEAD0510A
:100F500014BF614506E0C110400721F0E04101F1F6
:100F60006051704779B900F0004100020AD0B0FA30
:100F700080FC00FA0CF001F16051A1EB0C5101EB87
:100F8000D0214005704741020CBF40F4E0016FF0F2
:100F90000001002070470000B0B581EA030C0CF09E
:100FA000004C40F2FF7515EA11541DBF15EA1357A6
:100FB000AC42AF4239E0E41923EA455343F48013CD
:100FC000C90241F0004141EA505EC7021100A7FB8F
:100FD000020200284FF00000EEFB01204FF000015C
:100FE000E3FB072118BF42F00102401800214941EC
:100FF000E3FB0E01A4F580640F0302D252004041CE
:10100000494154F101046CDD470872F1004250F18E
:10101000000051EB0451A1F580115CBF41EA0C01C5
:10102000B0BD4CEA05510020B0BD05EA1357AC42F3
:1010300014BFAF4241E050EA410E1CBF52EA430EDA
:1010400002E061460020B0BD24423C441BD15FEA6F
:10105000070EF6D0090302BF01460020AEF1140EC0
:10106000B1FA81F7AEEB070401FA07FE0C37C7F1BE
:10107000200100FA07F7C8404EEA000E23EA455364
:1010800043F48013A2E733F00043B3FA83F704BFBD
:10109000B2FA82FE77440B3FE41BB7F1200E2FBF5C
:1010A00002FA0EF3BB40C7F1200E22FA0EFE38BF43
:1010B00043EA0E03BA40641C82E750EA410E14BFB3
:1010C00052EA430E6FF000014FF4001717EB430F85
:1010D0008ABF194617EB410FB5E74CEA05510020CE
:1010E000B0BDD4F10104B4F120070FDAC4F1200738
:1010F000520828BF42F0010210FA07F501FA07F77B
:10110000E1BF2A43E0403843E1400FE0352C98DC52
:10111000C7F1200452EA400220FA07F218BF42F059
:10112000010231FA07F0A1400A43002172F10042A6
:1011300050F1000051EB0C01B0BD0000F446400D31
:1011400040EAC120490006D200F00EF8004248BF34
:101150006FF00040604700F007F84FF00041884210
:101160008CBF08464042604740F00040490DA1F561
:101170008061491C05D4D1F11F0154BFC840C0177C
:1011800070474FF0000070474FF0807C1CEB400F21
:1011900094BF1CEB410F05E040EA010C5FEA4C0CE8
:1011A00001D28842704718BF814270472DE9F84349
:1011B00004000D00E4B2002C08D0022C24D014D37B
:1011C000042C3FD02FD3052C4BD059E033216C4851
:1011D00000F08AFB3E216A4800F086FB69480068FF
:1011E00050F48060674908604AE067484FF44071F6
:1011F000016066484FF4407101606248006850F435
:101200000060604908603BE061484FF44071016054
:1012100060484FF4407101605A48006850F48050B3
:10122000584908602CE05C484FF4407101605B480D
:101230004FF4407101605348006850F40050514928
:1012400008601DE056484FF44071016055484FF466
:10125000407101605448006850F480605249086051
:101260000EE052484FF44071016051484FF4407114
:1012700001604D48006850F400604B490860FFE78A
:10128000E4B24C4850F82400C07810F0F300E4B207
:10129000484951F82410C870E4B2464850F8240078
:1012A00000218170E4B2002C01D1012000E0002077
:1012B000E4B2012C01D1012100E000210843C0B2B9
:1012C000002806D03C4800684FF47A7148438146B4
:1012D00005E03A4800684FF47A7148438146280196
:1012E000B9FBF0F00600E4B2324850F82400007870
:1012F00010F0E0008046B6B2300A10F01F0050EA4D
:101300000800E4B22B4951F824100870E4B22948CF
:1013100050F8240046705FEA49102901B0FBF1F053
:10132000B6B2B0EB46100700E4B2224850F82400F1
:10133000807A10F0E0008046E4B21E4850F82400A5
:1013400017F01F0151EA08018172E4B2194850F800
:101350002400C07850F00C00E4B2164951F8241073
:10136000C870BDE8F183C0B2124A52F82020127949
:101370001206F8D5C0B20F4A52F82020D17170473A
:1013800010270000348004400CB0044010B004402A
:101390000CC0044008C0044040B0044044B00440C5
:1013A00064D0044060D004402880044024D004402D
:1013B00020D004405804FF1F9069FF1F9869FF1F49
:1013C000F8B504000D0016001F00EDB2202D02D26A
:1013D000FFB2022F03D32421264800F085FAEDB294
:1013E000E4B2254850F824004FF4807140F82510ED
:1013F000F00705D5F6B2032E02D0F6B2132E0DD1AA
:10140000E4B21E4850F8240040690121A9408843F5
:10141000E4B21A4951F8241048612AE0E4B21748AE
:1014200050F8240040690121A9400843E4B213495F
:1014300051F824104861FFB2012F0DD1E4B20F48DA
:1014400050F8240000680121A9400843E4B20B4988
:1014500051F8241008600CE0E4B2084850F8240069
:1014600000680121A9408843E4B2044951F82410DE
:101470000860F1BDEC2600003004FF1F1C04FF1FB4
:101480002DE9F84F04000D0016001F00DFF880035F
:1014900000684FF47A7148435FEA5008E4B2002CC8
:1014A0000DD0E4B2012C02D0E4B2012C02D1EDB295
:1014B000022D04D33821DFF85C0300F015FA5FEA4F
:1014C0005800B04204D23921DFF8480300F00CFA8A
:1014D0005FEA1840B0FBF6F08146002082461FFA12
:1014E00089F959FA0AF0012802DB1AF1010AF6E734
:1014F00038FA0AF0B0FBF6F081461FFA89F919F1C3
:10150000010000FB07F04FF47A71B0FBF1F0834665
:10151000E4B2002C05D0022C00F0BA80C0F08A8022
:10152000E4E0DFF8F402006850F08070DFF8E812C1
:101530000860EDB2002D0BD0022D25D016D3042D5E
:101540003ED02FD3062D57D048D3072D62D06FE061
:10155000DFF8C802006850F40060DFF8C0120860CD
:10156000DFF8BC024FF48061016062E0DFF8AC029A
:10157000006850F40060DFF8A4120860DFF8A402ED
:101580004FF48061016054E0DFF89002006850F48D
:101590000060DFF888120860DFF88C024FF4806189
:1015A000016046E0DFF87402006850F40060DFF884
:1015B0006C120860DFF874024FF48061016038E05B
:1015C000DFF85802006850F48050DFF850120860CD
:1015D000DFF85C024FF4806101602AE0DFF83C0232
:1015E000006850F48050DFF834120860DFF84402DD
:1015F0004FF4806101601CE0DFF82002006850F4C5
:101600008050DFF818120860DFF82C024FF4806178
:1016100001600EE0DFF80402006850F48050DFF84B
:10162000FC110860DFF814024FF48061016000E0F3
:10163000B0E05BE0DFF8E001006850F00070DFF838
:10164000D8110860EDB2002D02D0012D0FD01DE0A1
:10165000DFF8C80100684FF400710843DFF8BC11DF
:101660000860DFF8DC014FF4407101600FE0DFF843
:10167000AC0100684FF400710843DFF8A011086066
:10168000DFF8C0014FF44071016000E082E02DE01E
:10169000DFF8B401006850F08070DFF8AC1108602A
:1016A000EDB2002D02D0012D0FD01DE0DFF86C014E
:1016B00000684FF400710843DFF860110860DFF83C
:1016C0008C014FF4407101600FE0DFF850010068B9
:1016D0004FF400710843DFF844110860DFF870012F
:1016E0004FF44071016000E054E0FFE7EDB2E4B276
:1016F000DFF8600150F8240010EBC500EDB2E4B251
:10170000DFF8501151F8241011EBC501C96831F010
:101710000401C160EDB2E4B2DFF8380150F82400F2
:1017200010EBC5002821C160E4B2DFF8280150F8B1
:1017300024005FFA8AFA1AF0070151F028010160CB
:10174000E4B2DFF8100150F824000021C164E4B2D3
:10175000DFF8000150F824001FFA89F9C0F808905A
:10176000E4B2DFF8F00050F824000021C164EDB2CB
:10177000E4B2DFF8E00050F8240010EBC5001FFAD7
:101780008BFBC0F810B0E4B2DFF8C80050F82400BA
:1017900000214160BDE8F18F2DE9F04104000D000A
:1017A0001600E4B2002C0ED0E4B2012C02D0E4B258
:1017B000012C02D1EDB2022D05D340F27911DFF8F0
:1017C000540000F091F8B6F57A7F05D94FF4BD7159
:1017D000DFF8400000F088F8E4B2DFF8780050F855
:1017E00024008068804618F1010000FB06F04FF4E9
:1017F0007A71B0FBF1F00700EDB2E4B2DFF854000B
:1018000050F8240010EBC5000761BDE8F08100002E
:101810009869FF1FC82600003C80044038800440BF
:1018200004B0044008B004400CB0044010B00440C0
:1018300010C0044014C0044018C004401CC0044040
:1018400020900440249004403080044028900440BC
:101850002C9004401004FF1F70B504000D0016000A
:10186000154800684FF40071A14008431249086010
:10187000EDB2E4B2114850F82400F6B2310411F48C
:101880007021F6B2F209D2B2114351F4817140F8DD
:101890002510E4B20A4850F8240040690121A9400B
:1018A0008843E4B2064951F824104861E4B214F1C7
:1018B000570000F024F870BD388004403004FF1F4A
:1018C0001C04FF1F00231900814209D2054B1B682D
:1018D0001A00002A02D000BF521EFAE7491CF3E7A3
:1018E000704700009869FF1F38B504000D0000F034
:1018F00061F800F088F8FCE726490860704738B5C1
:1019000004005C2C02DB244800F047FB202094FB01
:10191000F0F00500002D03D0022D27D013D337E0BF
:101920000120202194FBF1F202FB114290401B495F
:1019300008600120202194FBF1F202FB114290404B
:101940001749086024E00120202194FBF1F202FBFA
:1019500011429040134908600120202194FBF1F2CC
:1019600002FB114290401049086011E00120202143
:1019700094FBF1F202FB114290400C4908600120F7
:10198000202194FBF1F202FB1142904008490860CB
:1019900031BD000008ED00E0FC25000080E200E021
:1019A00000E100E084E200E004E100E088E200E021
:1019B00008E100E080B50123012218210420FFF78F
:1019C000FFFC0123012219210420FFF7F9FC012368
:1019D00001221A210420FFF7F3FC012301221B211D
:1019E0000420FFF7EDFC01BD1E4A126912680123B5
:1019F00083409A43C9B211F0010383401A43194B43
:101A00001B691A60704710B50123012218210420B8
:101A1000FFF7D6FC0123012219210420FFF7D0FC97
:101A2000012301221A210420FFF7CAFC012301220D
:101A30001B210420FFF7C4FC18200400E4B21C2C76
:101A40000ED200212000C0B2FFF7CEFF6420FFF7C6
:101A500039FF01212000C0B2FFF7C6FF641CEDE78B
:101A600010BD00001C04FF1F70B504000D0016001F
:101A70003068012802D0022805D00AE02000C0B258
:101A80007168884705E0B0680470B068401CB060B9
:101A9000FFE72868401C286070BD2DE9F04704006E
:101AA0005FF0000A5046A1465FF0000A89F800A0E6
:101AB00019F10109002A1FD0D1F800A05546002DC8
:101AC00005D15FF0300A89F800A0401C38E0002DF5
:101AD00036D095FBF3FA564603FB165A5746002FAD
:101AE00002D5FF43313700E03037350089F8007008
:101AF00019F10109401CEAE7D1F800A0D446BCF175
:101B0000000F05D15FF0300A89F800A0401C17E0F3
:101B1000BCF1000F14D0BCFBF3FAD64603FB1ECA7F
:101B2000D046B8F10A0F02D218F1300801E018F1DE
:101B30003708F44689F8008019F10109401CE7E7ED
:101B4000BDE8F0872DE9F04104000D0016001F00EC
:101B5000A046A84507DA3A0031003020FFF784FF9D
:101B600018F10108F5E7BDE8F0812DE9F041040026
:101B70000D0016001F00A046A84507DA3A00310004
:101B80002020FFF771FF18F10108F5E7BDE8F081AB
:101B90002DE9F24F92B00400150000200090129839
:101BA00083469BF800000590002800F0F28105981C
:101BB000252813D005980A2805D0220000A90598E9
:101BC000FFF752FF09E0220000A90D20FFF74CFFAC
:101BD000220000A90A20FFF747FFD7E10020814635
:101BE000002003900398002822D11BF1010B9BF8E1
:101BF000000020280ED0232812D02B2807D02D2813
:101C000002D0302809D00EE059F00109EAE759F076
:101C10000209E7E759F00409E4E759F00809E1E7A8
:101C200059F01009DEE7BBF1010B01200390D9E761
:101C300000208246002003900398002813D11BF156
:101C4000010B9BF8000005903038092806D80A20BF
:101C5000059900FB0A10B0F1300AEDE7BBF1010B6A
:101C600001200390E8E71BF1010B9BF800002E28F0
:101C700011D100200390039800280ED11BF1010B15
:101C80009BF800003038092800D8F4E7BBF1010BBD
:101C900001200390EFE7BBF1010B1BF1010B9BF857
:101CA00000004C2806D0682802D06C2801D002E041
:101CB00003E002E001E0BBF1010B1BF1010B9BF81B
:101CC00000000590582875D0622800F0D580632860
:101CD00000F01D81642813D0692811D06E2800F00F
:101CE00049816F2800F0BD80702800F0D0807328F3
:101CF00000F01681752800F0D58078285AD040E190
:101D0000286806902D1D0A23012206A909A8FFF7BD
:101D1000C4FE070009A8381806000698002803D555
:101D20002D2002907F1C0FE04846800703D52B2012
:101D300002907F1C08E04846400703D5202002900F
:101D40007F1C01E00020029000200490484600071C
:101D500011D50298002804D0220000A90298FFF7AC
:101D600083FE01200490230000AA51463800FFF7AB
:101D7000E9FE574612E04846C0070FD4230000AAE8
:101D800051463800FFF7F1FE0298002804D02200E7
:101D900000A90298FFF768FE01200490049800282B
:101DA00007D10298002804D0220000A90298FFF76A
:101DB0005BFE98E0286801902D1D1023002201A9E8
:101DC00009A8FFF76AFE070009A8381806000020D6
:101DD00004904846000716D54846C0060BD5220099
:101DE00000A93020FFF740FE220000A97820FFF76D
:101DF0003BFE01200490230000AA51463800FFF763
:101E0000A1FE57461BE04846C00718D44846C00606
:101E100000D5BF1C230000AA51463800FFF7A5FEDD
:101E20004846C0060BD5220000A93020FFF71CFE53
:101E3000220000A97820FFF717FE012004904846F1
:101E4000C0060DD5049800280AD1220000A9302030
:101E5000FFF70AFE220000A97820FFF705FEBF1C4D
:101E600041E0286801902D1D0823002201A909A83E
:101E7000FFF713FE07001FE0286801902D1D0223C5
:101E8000002201A909A8FFF708FE070014E028684E
:101E900001902D1D1023002201A909A8FFF7FDFDC7
:101EA000070009E0286801902D1D0A23002201A9DE
:101EB00009A8FFF7F2FD070009A8381806004846F0
:101EC000000707D5230000AA51463800FFF73AFE65
:101ED000574608E04846C00705D4230000AA5146EB
:101EE0003800FFF742FE3078002806D0220000A913
:101EF0003078FFF7B9FD761EF5E74846C00705D5EF
:101F0000230000AA51463800FFF72FFE3EE0287854
:101F100007902D1D220000A90798FFF7A5FD35E0C9
:101F2000286880462D1DB8F1000F22D0404600F0F1
:101F300049F807004846C00705D4230000AA5146C7
:101F40003800FFF712FE98F80000002808D02200A1
:101F500000A998F80000FFF787FD18F10108F2E7E3
:101F60004846C00705D5230000AA51463800FFF7B0
:101F7000FCFD0BE0286808902D1D08980099016071
:101F800004E0220000A90598FFF76EFD1BF1010B8C
:101F900007E6009813B0BDE8F08F0EB47EB50400DC
:101FA000012000900648019007A805002A002100A2
:101FB00000A8FFF7EDFD060030007EBC5DF810FBC9
:101FC000B927000001000A000023002A01D10020E7
:101FD00007E01000421C0078002801D05B1CF8E7E5
:101FE00018007047DFF800F07104FF1F38B50400D7
:101FF000E4B2002C00F01681E4B2200030281ED09C
:10200000322823D0602828D064282DD06E2832D0E2
:10201000782837D07D283CD0822841D08C2846D0E3
:1020200096284BD0A02850D0AA2855D0B4285AD0F2
:10203000C8285FD0E12864D0FA2869D06FE0A848AA
:1020400018210170A648002141706CE0A4481821B5
:102050000170A3480121417065E0A1481821017079
:102060009F48182141705EE09D48182101709C48EE
:102070001A21417057E09A481821017098481F2191
:10208000417050E096481321017095481821417025
:1020900049E093481321017091481A21417042E0B0
:1020A0008F48132101708E481C2141703BE08C4801
:1020B0000E2101708A481221417034E088480E21B7
:1020C00001708748152141702DE085480E2101706F
:1020D00083481821417026E081480E210170804814
:1020E0001B2141701FE07E480E2101707C481E219B
:1020F000417018E07A480C21017079481C21417028
:1021000011E077480B21017075481E2141700AE0EB
:1021100073480A21017072481F21417003E0642056
:10212000FFF764FFDAE06E4800218170E4B2652CAD
:1021300003D26B480021C1701FE0E4B2C92C03D266
:1021400067480121C17018E02000C0B240F22D1193
:1021500080B2884203D262480221C1700DE02000A3
:10216000C0B240F2911180B2884203D25C48032190
:10217000C17002E05A480F21C17059485849C978C6
:102180000171E4B21F2C03D255480021417149E08E
:10219000E4B23D2C03D252480121417142E0E4B245
:1021A0005B2C03D24E48022141713BE0E4B2792C12
:1021B00003D24B480321417134E0E4B2972C03D29F
:1021C0004748042141712DE0E4B2B52C03D24448C4
:1021D0000521417126E0E4B2D32C03D24048062108
:1021E00041711FE0E4B2F12C03D23D480721417157
:1021F00018E02000C0B240F20F1180B2884203D232
:102200003748082141710DE02000C0B240F22D1185
:1022100080B2884203D232480921417102E030483D
:102220000F2141712E484078183080B23221484346
:102230002B490978491C89B290FBF1F00500294827
:10224000002101702848006850F08050264908603D
:102250002648007850F080002449087024489821CE
:10226000017024480078C006FBD422480078C0F3EF
:102270008100C0B20228F8D11948007810F01F0080
:102280001D4908701D480021017015484379144804
:1022900002791348C17812488078FFF7A3FE1048EE
:1022A000407810F01F0050F04000144908701148A9
:1022B00000788006FBD50F4800784006FBD50C4817
:1022C000007810F03F000A4908700A480078C0F30F
:1022D0008100C0B20328F8D12800C0B232BD00BFCF
:1022E0005004FF1F014006403480044008C00740EE
:1022F00000400640064006400440064005400640B7
:102300003148006850F002002F4908602F48002132
:1023100001802F48002101802E48002101802E4895
:10232000002101807047000010B42C49096851F069
:1023300002012A4A116028490988042291FBF2F31C
:1023400003FB1213002B37D12149204A12880A803F
:102350001F490988D1F15A011E4A11801B49098879
:10236000491C1A4A1180002108004FF4C8718842A4
:1023700001D2401CF9E71A4900220A70184909786D
:10238000BF2919D216490978124A1288FA23154C26
:1023900003FB0242144B1B68DB0A13F001038B544E
:1023A0000021012902DA00BF491CFAE70C4909782B
:1023B000491C0B4A1170E1E707490988491C064A84
:1023C000118010BC70470000A0A004409E69FF1F50
:1023D000A069FF1FA269FF1F9C69FF1FA0B00440F6
:1023E000A469FF1FC004FF1F10F00F402DE9F84340
:1023F0002448254988420DD000208046B8F5826FD8
:1024000008D22048204951F8281040F8281018F127
:102410000108F3E71B48FFF76FFA1C4807001C4848
:1024200006001C480400A01B80464046B0F101088D
:10243000002804D030783870761C7F1CF5E71648E9
:10244000814616480500B5EB090080464046B0F1CC
:102450000108002805D0002089F8000019F10109C1
:10246000F4E70F480F49104A531A98464346B3F110
:102470000108002B04D00B780370491C401CF5E7C1
:10248000BDE8F1830000FF1F000000001004FF1FE3
:102490004C250000AC250000C004FF1FA769FF1FEA
:1024A0007004FF1FAC250000FC25000080B51E480D
:1024B000006850F478501C490860C820FFF796FD6A
:1024C0001A490860194800684FF47A71484318495E
:1024D00008601748006817490968C1F30361491C7F
:1024E000B0FBF1F01449086000F008F800F011F8B2
:1024F0004FF496410120FEF759FE01BD0F480068D8
:1025000050F480500D4908600D484FF4E0610160BF
:1025100070470C48006850F001000A4908600A48FA
:102520004FF4A06101607047388004409469FF1F38
:102530009069FF1F448004409869FF1F0480044095
:1025400018900440408004400CB0044000800340D8
:102550000090034000800B4000F00F4040F00F401F
:1025600080F00F40C0F00F4000F10F400090044099
:1025700000A0044000B0044000C0044000D004406B
:10258000292B2D2F3134373A3D0000000B1F00005E
:102590000009000000A0064000B0064000C0064050
:1025A00000D0064000A00E4000B00E40F0B4114E26
:1025B000366834000F4E366856F47F060D4F3E6085
:1025C0000E0616F0706656EA0076170517F47007C7
:1025D0003E431F0417F470273E43074F3E6000261A
:1025E0003500EDB29D4201D26D1CFAE7014E346018
:1025F000F0BC704700F00140448004400A4552524C
:102600002120496E76616C696420495251207661BF
:102610006C75652070617373656420746F20656EDE
:1026200061626C65206972712066756E6374696F92
:102630006E210A0080B500F009F80A4800884FF6BC
:10264000FE7108400749088001BD000072B60648C7
:102650004CF22051018004484DF62811018062B6E9
:1026600070470000002005400E2005400A2A2A2A53
:102670002A64656661756C745F69737220656E7437
:1026800065726564206F6E20766563746F722025B5
:10269000642A2A2A2A2A0D0A0A00000010B50849CD
:1026A00079441C31074C7C441A34A14206D0081DE1
:1026B0000A68511888470146A142F8D110BD00BFF1
:1026C0007400000080000000443A5C70726F6A651C
:1026D00063745C7372635C647269766572735C4682
:1026E000544D5C46544D2E6300000000443A5C702B
:1026F000726F6A6563745C7372635C647269766539
:1027000072735C6770696F5C6770696F2E6300003D
:10271000443A5C70726F6A6563745C7372635C6484
:102720007269766572735C756172745C75617274DE
:102730002E63000097E4FFFFE8640000C004FF1F61
:102740000000000080B5FFF735F9FFF75CF903489A
:102750000178C9B20248FFF720FC01BD04ED00E09A
:102760006C26000000F009F8002801D0FFF796FF62
:102770000020FEF705F900F002F80120704700F094
:1027800001B800000746384600F002F8FBE70000F9
:1027900080B5C046C046024A11001820ABBEFBE718
:1027A0002600020080B5FFF745FFFFF71FFEFFF789
:1027B0007DFEFEF7E5F8FEE710B504002100C9B282
:1027C0000120FEF7D0FD10BDC046C046C046C04641
:0427D000FFF7C8FF48
:04000005000027C907
:00000001FF
