:10000000F8FF002011040000B1130000B11300003C
:10001000B1130000B1130000B1130000B1130000D0
:10002000B1130000B1130000B1130000B1130000C0
:10003000B1130000B1130000B1130000B1130000B0
:10004000B1130000B1130000B1130000B1130000A0
:10005000B1130000B1130000B1130000B113000090
:10006000B1130000B1130000B1130000B113000080
:10007000B1130000B1130000B1130000B113000070
:10008000B1130000B1130000B1130000B113000060
:10009000B1130000B1130000B1130000B113000050
:1000A000B1130000B1130000B1130000B113000040
:1000B000B1130000B1130000B1130000B113000030
:1000C000B1130000B1130000B1130000B113000020
:1000D000B1130000B1130000B1130000B113000010
:1000E000B1130000B1130000B1130000B113000000
:1000F000B1130000B1130000B1130000B1130000F0
:10010000B1130000B1130000B1130000B1130000DF
:10011000B1130000B1130000B1130000B1130000CF
:10012000B1130000B1130000B1130000B1130000BF
:10013000B1130000B1130000B1130000B1130000AF
:10014000B1130000B1130000B1130000B11300009F
:10015000B1130000B1130000B1130000B11300008F
:10016000B1130000B1130000B1130000B11300007F
:10017000B1130000B1130000B1130000B11300006F
:10018000B1130000B1130000B1130000B11300005F
:10019000B1130000B1130000B1130000B11300004F
:1001A0005111000069110000B1130000B1130000EB
:1001B000B1130000B1130000B1130000B11300002F
:1001C000B1130000B1130000B1130000B11300001F
:1001D000B1130000B1130000B1130000B11300000F
:1001E000B1130000B1130000B1130000B1130000FF
:10040000FFFFFFFFFFFFFFFFFFFFFFFFFEFFFFFFFD
:1004100062B64FF000004FF000014FF000024FF0C5
:1004200000034FF000044FF000054FF000064FF0BE
:1004300000074FF000084FF000094FF0000A4FF09E
:10044000000B4FF0000C01F049F8FEE710B50C4628
:100450001168012902D0022904D008E0C0B2516815
:10046000884704E0916808709068401C906020689C
:10047000401C206010BD30B4002400F8014B002A5D
:10048000096812D091B191FBF3F203FB121100291C
:1004900046BFC94301F1310501F130051146641C25
:1004A00000F8015B0029EED114E019B93021017088
:1004B00001240FE0B1FBF3F203FB12110A2934BF50
:1004C00001F1300501F137051146641C00F8015BAC
:1004D0000029EFD1204630BC70472DE9F04F80460F
:1004E0008FB00020924600900D4604E0424600A9DD
:1004F000FFF7ACFF6D1C2878010000F099812528DA
:100500000AD00A28F2D1424600A90D20FFF79EFF2B
:10051000424600A90A20EBE7002601E046F010065B
:1005200015F8010F20280ED02328F7D02B2807D04C
:100530002D2802D0302809D00BE046F00106EFE765
:1005400046F00206ECE746F00406E9E746F0080646
:10055000E6E7691E4FF0000905E009EB890200EBB0
:100560004200A0F1300911F8010F0246303A092A81
:10057000F3D92E2804D111F8010F30380928FAD9FF
:100580004D1E15F8010F4C2818BF682802D06C28A2
:1005900018BF6D1E15F8010F582862D0622800F0B0
:1005A000C080632800F00C81642818BF692811D02E
:1005B0006E2800F038816F2800F0AE80702800F0BF
:1005C000B580732800F00081752800F0B480782889
:1005D00047D08BE75AF8040B0A230390012203A9A2
:1005E00005A8FFF748FF044605A8201802900398C5
:1005F000002848BF2D2706D4B00748BF2B2702D4B8
:10060000700702D52027641C00E00027300711D5B1
:10061000384618B1424600A9FFF718FF4C4507DAE3
:10062000424600A93020FFF711FF641C4C45F7DB60
:100630004C46A9E0F0070BD4A3464C4508DA4246E5
:1006400000A92020FFF702FF0BF1010BCB45F6DBE1
:100650003846002800F09880424600A9FFF7F6FED1
:1006600092E05AF8040B10230190002201A905A87A
:10067000FFF701FF044605A8201802900027300765
:1006800018D5F0060AD5424600A93020FFF7DEFE55
:10069000424600A97820FFF7D9FE01274C4507DA2A
:1006A000424600A93020FFF7D1FE641C4C45F7DB21
:1006B0004C4621E0F0071FD406F010008DF8100022
:1006C00000B1A41CA346CB4508DA424600A920206D
:1006D000FFF7BCFE0BF1010BCB45F6DB9DF81000DC
:1006E00050B1424600A93020FFF7B0FE424600A9B3
:1006F0007820FFF7ABFE0127F00645D5002F43D148
:10070000424600A93020FFF7A1FE424600A978200A
:10071000FFF79CFEA41C37E05AF8040B0823019055
:100720000DE05AF8040B0223019008E05AF8040B7C
:100730001023019003E05AF8040B0A2301900022D1
:1007400001A905A8FFF797FE044605A82018029006
:1007500030070CD54C45BFF66BAF424600A93020A0
:10076000FFF774FE641C4C45F7DB4C460CE0F007C9
:100770000AD427464C4507DA424600A92020FFF755
:1007800065FE7F1C4F45F7DB0298007848B102A850
:10079000076842467B1E036000A93878FFF756FEC3
:1007A000F2E7F0077FF5A6AE4C45BFF6A3AE424692
:1007B00000A92020FFF74AFE641C4C45F7DB99E6B0
:1007C0005AF8040BC0B291E65AF8047B002F3FF4AC
:1007D00091AE384600F042F80446F0070BD4A34629
:1007E0004C4508DA424600A92020FFF72FFE0BF106
:1007F000010BCB45F6DB387830B1424600A917F83B
:10080000010BFFF723FEF6E7F0077FF573AE4C45CB
:10081000BFF670AE424600A92020FFF717FE641C09
:100820004C45F7DB66E65AF8040B0099016061E677
:1008300000980FB0BDE8F08F0EB400B584B0012170
:100840000091054905AA0191014600A8FFF745FE60
:1008500004B05DF810FB0000FD140000002138B169
:10086000027822B110F8012F491C002AFAD108465B
:10087000704750F8041B61B150F8042BD30744BFF4
:10088000A9F101039A18002342F8043B091FFAD189
:10089000EFE77047F0B4DFF8B0414FF47A752468A1
:1008A0006C436608340CB4FBF2F7BFB20024012F8E
:1008B00005DB641C47FA04FCBCF1010FF9DAE640E1
:1008C000B6FBF2F292B2561C7343B3FBF5F320B1C0
:1008D000022800F0768057D38FE0DFF870510729A7
:1008E000EE6846F08076EE6000F29E80DFE801F070
:1008F000040E182129323B44AE6846F40066AE600F
:10090000DFF84C514FF480662E6076E0AE6846F416
:100910000066AE60DFF838514FF480666E606CE0C0
:10092000AE6846F40066AE60494D4FF48066AE6036
:1009300063E0AE6846F40066AE60454D4FF48066F5
:100940005AE0AE6846F48056AE60424D4FF4806681
:100950002E6052E0AE6846F48056AE603D4D4FF4D6
:1009600080666E6049E0AE6846F48056AE60394DF0
:100970004FF48066AE6040E0AE6846F48056AE60EC
:10098000344D4FF4806637E0304DEE6846F0007627
:10099000EE6011B101290AD046E0AE684FF400774D
:1009A0003E43AE602C4D4FF440762E6025E0AE689D
:1009B0004FF400773E43AE60274D4FF440766E60B3
:1009C0001BE0224D2E6846F080762E6011B1012981
:1009D0000AD029E0AE684FF400773E43AE601E4D6A
:1009E0004FF44076AE6008E0AE684FF400773E43C7
:1009F000AE60194D4FF44076EE60184D04F00704D8
:100A000055F8200044F0280400EBC101CD689BB2EA
:100A100025F00405CD602825CD6004600024C46461
:100A20008260C4640B614460F0BC70470B4B53F8A8
:100A30002000836800EBC1005B1C5A434FF47A73BB
:100A4000B2FBF3F2026170471C1CFF1F30800440B0
:100A500004B0044010C00440209004401004FF1F64
:100A6000DFF800F06504FF1F70B5002800F08180FA
:100A700030281ED0322826D0602827D064284DD0B8
:100A80006E2826D0782827D07D2828D0822829D003
:100A90008C282AD096282BD0A0282CD0AA282DD05C
:100AA000B4282ED0C8282FD0E12830D0FA2831D051
:100AB00033E018210022514C217000216270A17096
:100AC00065282ED231E018210122F4E718211822DE
:100AD000F1E718211F22EEE713211822EBE713217B
:100AE0001A22E8E713211C22E5E70E211222E2E791
:100AF0000E211522DFE70E211822DCE70E211B2232
:100B0000D9E70E211E22D6E70C211C22D3E70B21A8
:100B10001E22D0E70A211F22CDE7642018211A22C5
:100B2000C9E7C92834BF01210221E170E1781F28FB
:100B3000217138BF00201BD33D2838BF012017D3B7
:100B40005B2838BF022013D3792838BF03200FD386
:100B5000972838BF04200BD3B52838BF052007D30A
:100B6000D32838BF062003D3F12834BF072008203C
:100B70006071224C32216078214E183080B2484397
:100B80002178491C89B290FBF1F5002070701D4856
:100B9000016841F0805101601B48017841F08001FB
:100BA000017098203070B079C006FCD4B079C0F3E1
:100BB00081000228FAD1207800F01F003071002057
:100BC000707163792279E178A078FFF749FF607846
:100BD00000F01F0040F040007071B0798006FCD535
:100BE000B0794006FCD5307800F03F003070B07925
:100BF000C0F381000328FAD1E8B270BD4404FF1F9E
:100C0000004006403480044008C0074072B65A488D
:100C1000016841F080710160816841F48061816008
:100C200056484FF4C06101604160554800210160A1
:100C30004160C164416D41F0050141654FF6FF71AE
:100C4000816050480F210160704700002DE9F84F86
:100C500072B6012300220B21002000F09DF86423CE
:100C6000322204210020FFF715FE012105234FF455
:100C7000FA620846FFF70EFEFFF7C8FF01210A22BD
:100C8000084600F0B5F809220121022000F0B0F872
:100C90004FF49641012000F0D3F862B63A4C3B4D38
:100CA0004FF06409DFF8E8B072B60BF2F4182426AE
:100CB0000A21012000F046F90D21012000F042F93F
:100CC000C24646271AF8010B00F13001C9B20120D3
:100CD00000F038F97F1EF5D108F26408761EE7D1DE
:100CE0002C48002101700A21012000F02BF90A2173
:100CF000012000F027F90A21012000F023F9192230
:100D000004210020FFF792FE2868C821B0FBF1F013
:100D1000A080A28892FBF9F000F1300109FB1020BD
:100D20000A2290FBF2F202F13003637002EB8203BD
:100D3000A0EB430030302170A070C9B2012000F058
:100D400001F96178012000F0FDF8A178012000F0A0
:100D5000F9F82021012000F0F5F80A21012000F027
:100D6000F1F80A21012000F0EDF862B6322000F01F
:100D700013F90020286097E73080044048A0044021
:100D800000800B4080800B40281CFF1F04800B401C
:100D9000A404FF1F201CFF1F70B4144C4FF4807676
:100DA00004EB80056D6945F82160D50703D5032A5A
:100DB00018BF132A09D154F820000123426903FA0D
:100DC00001F122EA010141610EE054F82000012204
:100DD00002FA01F142690A434261012B02680CBF29
:100DE000114322EA0101016070BC70471C04FF1F1F
:100DF00030B4104B4FF400751C6885402C431C60C8
:100E00000D4B140404F4702453F8203054EAD21229
:100E100042F4817243F82120084A012452F820202C
:100E200004FA01F15369573023EA0101516130BCE2
:100E300000F0C3B8388004403004FF1F1C04FF1FBB
:100E4000F8B504460D46052849D8DFE800F003133D
:100E50001E29343E0FF21C163321304600F0FEF8F6
:100E60003E21304600F0FAF83B48C16841F4806109
:100E7000C16034E039484FF4407101604160364848
:100E8000C16841F40061C16029E035484FF4407108
:100E9000416001603048C16841F48051C1601EE08A
:100EA0002E484FF44071416381632B48C16841F47F
:100EB0000051C16013E02B484FF44071416401645C
:100EC0002548016841F4806108E026484FF44071EC
:100ED000416001602048016841F4006101602249DD
:100EE000204651F82020D37803F0F303D37051F853
:100EF000202000239370002C1ABF012C1B4A1C4A8F
:100F000012684FF47A735A432B0151F82050B2FB08
:100F1000F3F42F782604360E66F304072F7051F889
:100F2000205052016C7051F82040B2FBF3F2A37ACA
:100F300062F30403A37251F82000C17841F00C0160
:100F4000C170F1BD084A52F8203093F804C05FEA3E
:100F50000C6CFAD5D9717047288004400CB004405D
:100F600008C0044020D004404C04FF1F1C1CFF1F7D
:100F7000141CFF1F443A5C70726F6A6563745C7383
:100F800072635C647269766572735C756172745CBD
:100F9000756172742E63000040B1054909680A004A
:100FA00002D000BF521EFCD1401EF8D17047000095
:100FB0001C1CFF1F18490860704710B504465C2CC4
:100FC000A4BF0FF26000FFF737FC201104EBD060E4
:100FD000401103D0022815D00AD310BD0121A4EB83
:100FE000401001FA00F00D4908600D49086010BD7D
:100FF0000121A4EB401001FA00F0084948600849BB
:10100000486010BD0121A4EB401001FA00F0034933
:1010100088600349886010BD08ED00E080E200E0D0
:1010200000E100E00A4552522120496E76616C6968
:1010300064204952512076616C756520706173732C
:10104000656420746F20656E61626C6520697271E1
:101050002066756E6374696F6E210A0080B500F0BA
:1010600003F800F02CF8FCE780B5012301221821D9
:101070000420FFF791FE01231A4619210420FFF7EF
:101080008BFE01231A461A210420FFF785FEBDE8D6
:10109000005001231A461B210420FFF77DBE2B4A76
:1010A0004FF0010C12690CFA00FC136801F0010109
:1010B00023EA0C0301FA00F018431060704780B572
:1010C0000123012218210420FFF766FE01231A469E
:1010D00019210420FFF760FE01231A461A2104207B
:1010E000FFF75AFE01231A461B210420FFF754FE86
:1010F00000211820FFF7D3FF6420FFF74DFF0121E7
:101100001820FFF7CCFF00211920FFF7C8FF64204B
:10111000FFF742FF01211920FFF7C1FF00211A202C
:10112000FFF7BDFF6420FFF737FF01211A20FFF70B
:10113000B6FF00211B20FFF7B2FF6420FFF72CFF52
:10114000BDE8044001211B20A9E700001C04FF1F8B
:101150002548016841F00201016024480021818096
:10116000C18041800170704730B421480722016876
:1011700041F0020101601D48418811422FD183884E
:1011800000245A1C82801B4AC38014706424151DDD
:1011900004FB0353184C2568ED0A05F0010503F81C
:1011A000015B2568ED0A05F0010503F8015B256880
:1011B000ED0A05F0010503F8015B2568ED0A05F06D
:1011C000010503F8015B2568ED0A05F0010503F848
:1011D000015B15786D1D1570EDB2502DDBD3491CE8
:1011E000418030BC70470000A0A00440201CFF1FBD
:1011F000A0B00440A004FF1F10F00F4010B5164926
:10120000164C8C4204D04FF48252204600F038F83D
:101210002046FFF7CFFE1249124A1348521A05D052
:1012200011F8013B521E00F8013BF9D10F4810495B
:10123000091A05D0491E002200F8012B0029F9D116
:101240000C490D4A0D48521A05D011F8013B521EA7
:1012500000F8013BF9D110BD000000000000FF1FA5
:101260005C130000B01300001004FF1FA004FF1F58
:101270002E1CFF1F001400003C1400006404FF1F1C
:10128000103A07D330B4B1E83810103AA0E838105B
:10129000F9D230BC530724BFB1E80810A0E8081009
:1012A00044BF51F8043B40F8043BD20724BF31F857
:1012B000022B20F8022B44BF0B7803707047083ACA
:1012C00007D3B1E80810083A40F8043B40F804CBD3
:1012D000F7D25307E4E7000038B51A4D1A4C2868D6
:1012E00040F478502860C820FFF7BEFB60604FF4E0
:1012F0007A7111FB00F02060E968C1F30361491CB9
:10130000B0FBF1F0A06000F009F800F011F8BDE8C2
:1013100034404FF496410120FFF792BD0B4801681D
:1013200041F4805101600A484FF4E0610160704768
:101330000848016841F00101016007484FF4A061CD
:101340000160704738800440141CFF1F0480044073
:1013500018900440408004400CB0044000800340DA
:101360000090034000800B4000F00F4040F00F4021
:1013700080F00F40C0F00F4000F10F40009004409B
:1013800000A0044000B0044000C0044000D004406D
:101390000B1F00000009000000A0064000B006403E
:1013A00000C0064000D0064000A00E4000B00E4035
:1013B00080B5FFF759FEFFF782FE04480178BDE8CB
:1013C00004400FF20C00FFF737BA000004ED00E014
:1013D0000A2A2A2A2A64656661756C745F697372C9
:1013E00020656E7465726564206F6E207665637427
:1013F0006F722025642A2A2A2A2A0D0A0A00000070
:1014000070B4090601F0706141EA00701105094CE1
:1014100001F47001084325681904266801F470215D
:10142000084346F47F06044926600860256070BCC6
:10143000704700BF00F001404480044080B500F0D8
:1014400007F808484FF6FE7201881140018001BD7F
:1014500072B605484CF2205101804DF628110180EA
:1014600062B67047002005400E20054010B50849BF
:1014700079441C31074C7C441A34A14206D0081D23
:101480000A68511888470146A142F8D110BD00BF33
:101490000800000014000000DBF3FFFF90170000BD
:1014A000A004FF1F000000000120C046002801D05A
:1014B000FFF7DCFF0020FFF7C9FB00F000F800F0A9
:1014C00001B800000746384600F002F8FBE70000CC
:1014D00001491820ABBEFBE72600020080B5FFF7EC
:1014E000ADFFFFF78BFEFFF7F7FEFFF7AFFBFEE761
:1014F000C046C046C046C046FFF7D6FF01460120A1
:04150000FFF720BD14
:04000005000014F1F2
:00000001FF
