:10000000F87F0020110400006D3D00006D3D0000F0
:100010006D3D00006D3D00006D3D00006D3D000038
:100020006D3D00006D3D00006D3D00006D3D000028
:100030006D3D00006D3D00006D3D00006D3D000018
:100040006D3D00006D3D00006D3D00006D3D000008
:100050006D3D00006D3D00006D3D00006D3D0000F8
:100060006D3D00006D3D00006D3D00006D3D0000E8
:100070006D3D00006D3D00006D3D00006D3D0000D8
:100080006D3D00006D3D00006D3D00006D3D0000C8
:100090006D3D00006D3D00006D3D00006D3D0000B8
:1000A0006D3D00006D3D00006D3D00006D3D0000A8
:1000B0006D3D00006D3D00006D3D00006D3D000098
:1000C0006D3D00006D3D00006D3D00006D3D000088
:1000D0006D3D00006D3D00006D3D00006D3D000078
:1000E0006D3D00006D3D00006D3D00006D3D000068
:1000F0006D3D00006D3D00006D3D00006D3D000058
:100100006D3D00006D3D00006D3D00006D3D000047
:100110006D3D00006D3D00006D3D00006D3D000037
:100120006D3D00006D3D00006D3D00006D3D000027
:100130006D3D00006D3D00006D3D00006D3D000017
:100140006D3D00006D3D00006D3D00006D3D000007
:10015000CD3800006D3D00006D3D00006D3D00009C
:100160006D3D00006D3D00006D3D00006D3D0000E7
:100170006D3D00006D3D00006D3D00006D3D0000D7
:100180006D3D00006D3D00006D3D00006D3D0000C7
:100190006D3D00006D3D00006D3D00006D3D0000B7
:1001A00031380000013800006D3D00006D3D000059
:1001B0006D3D00006D3D00006D3D00006D3D000097
:1001C0006D3D00006D3D00006D3D00006D3D000087
:1001D0006D3D00006D3D00006D3D00006D3D000077
:1001E0006D3D00006D3D00006D3D00006D3D000067
:10040000FFFFFFFFFFFFFFFFFFFFFFFFFEFFFFFFFD
:1004100062B64FF000004FF000014FF000024FF0C5
:1004200000034FF000044FF000054FF000064FF0BE
:1004300000074FF000084FF000094FF0000A4FF09E
:10044000000B4FF0000C03F0BBFCFEE710B40022E1
:10045000FA23DFF87C4903FB0143C35C002B1FD167
:10046000DFF87029002322F81130020000E0521E4C
:10047000012A07DBFA20DFF8583900FB0130105C55
:100480000028F4D0FA20DFF8483900FB0130105C76
:10049000012823D1DFF83C09521C20F811201DE06F
:1004A000DFF83029522322F81130020000E0521CFC
:1004B000522A07DAFA20DFF8183900FB0130105C05
:1004C0000128F4D0FA20DFF8083900FB0130105C75
:1004D000002803D1DFF8FC0820F8112010BC704779
:1004E00010B40022FA23DFF8E84803FB0143C35CA1
:1004F000002B1FD1DFF8E028A52322F811300200DD
:1005000000E0521CA52A07DAFA20DFF8C43800FB05
:100510000130105C0028F4D0FA20DFF8B43800FB7A
:100520000130105C012823D1DFF8AC08521E20F8FE
:1005300011201DE0DFF8A028522322F8113002001C
:1005400000E0521E532A07DBFA20DFF8843800FB54
:100550000130105C0128F4D0FA20DFF8743800FB79
:100560000130105C002803D1DFF86C0820F811205E
:1005700010BC704710B40022FA23DFF8544803FB84
:100580000143C35C002B1DD1020000E0521EB0F1FC
:100590003C03934207DAFA23DFF8344803FB0143B4
:1005A000D35C002BF2D0FA20DFF8243800FB0130B6
:1005B000105C012821D1DFF81C08521C20F8112002
:1005C00001201BE0020000E0521C522A07DAFA2048
:1005D000DFF8FC3700FB0130105C0128F4D0FA2072
:1005E000DFF8EC3700FB0130105C002805D1DFF8A4
:1005F000E40720F81120012000E0002010BC704723
:1006000010B40022FA23DFF8C84703FB0143C35CA0
:10061000002B1DD1020000E0521C10F13C039A4255
:1006200007DAFA23DFF8A84703FB0143D35C002B6A
:10063000F2D0FA20DFF8983700FB0130105C012877
:1006400021D1DFF89407521E20F8112001201BE071
:10065000020000E0521E532A07DBFA20DFF8703751
:1006600000FB0130105C0128F4D0FA20DFF860377D
:1006700000FB0130105C002805D1DFF85C0720F892
:100680001120012000E0002010BC704730B40200AF
:100690000023FA24DFF8385704FB0154045D002CD2
:1006A0004AD1020000E0521EB0F10F03934207DA74
:1006B000FA23DFF81C4703FB0143D35C002BF2D085
:1006C000FA20DFF80C3700FB0130105C012831D133
:1006D00000E0521E012A07DBFA20DFF8F43600FBA7
:1006E0000130105C0128F4D0FA20DFF8E43600FB7A
:1006F0000130105C00281BD1130000E05B1E012BB1
:100700000ADBFA20DFF8C84600FB0140185C00282D
:1007100002D1D01E9842F1DBFA20DFF8B42600FBAC
:100720000120185C012801D1012037E0002035E0CC
:10073000012033E0002031E0020000E0521E012AD7
:1007400007DBFA20DFF8883600FB0130105C012857
:10075000F4D0FA20DFF8783600FB0130105C002876
:100760001BD1130000E05B1E012B0ADBFA20DFF82F
:10077000604600FB0140185C002802D1D01E984260
:10078000F1DBFA20DFF8482600FB0120185C012885
:1007900001D1012002E0002000E0012030BC7047C0
:1007A00030B400220023FA24DFF8245604FB01545D
:1007B000045D002C4AD1020000E0521C10F10F032E
:1007C0009A4207DAFA23DFF8084603FB0143D35CB9
:1007D000002BF2D0FA20DFF8F83500FB0130105C76
:1007E000012831D100E0521CA52A07DAFA20DFF8EF
:1007F000E03500FB0130105C0128F4D0FA20DFF86E
:10080000D03500FB0130105C00281BD1130000E044
:100810005B1CA52B0ADAFA20DFF8B44500FB014087
:10082000185C002802D1D01C8342F1DBFA20DFF8EB
:10083000A02500FB0120185C012801D1012037E030
:10084000002035E0012033E0002031E0020000E02C
:10085000521CA52A07DAFA20DFF8743500FB0130B4
:10086000105C0128F4D0FA20DFF8643500FB013079
:10087000105C00281BD1130000E05B1CA52B0ADADA
:10088000FA20DFF84C4500FB0140185C002802D13B
:10089000D01C8342F1DBFA20DFF8342500FB012075
:1008A000185C012801D1012002E0002000E00120B5
:1008B00030BC7047F0B4C9B2DFF8182532F9112006
:1008C00000250023C9B20C0001E05B1C641C50FA37
:1008D00081F5A5422CDB042590FBF5F59D4201DA5C
:1008E000002026E0DFF8EC5425F8142012F1090569
:1008F00000E06D1EFA26DFF8D87406FB0476AE5DC4
:10090000002E05D1B2F10806AE4201DA012DF0DA6F
:10091000FA26DFF8BC7406FB0476AE5D012ED4D156
:10092000DFF8B0246B1C22F814306A1C0023CDE7DA
:100930000120F0BC7047F0B4C9B2DFF89C2432F952
:10094000112000250023C9B20C0001E05B1C641CCF
:1009500050FA81F5A5422DDB042590FBF5F59D426B
:1009600001DA002027E0DFF8705425F81420B2F1F6
:10097000090500E06D1CFA26DFF8547406FB0476C6
:10098000AE5D002E05D112F10806B54201DAA52DA3
:10099000F0DBFA26DFF8387406FB0476AE5D012E34
:1009A000D4D1DFF834242B005B1E22F814306A1EE9
:1009B0000023CCE70120F0BC70470020052108008F
:1009C00000E0401D41F64C51DFF804248218895C98
:1009D000002901D1A028F4DB41F64C51DFF8F023C7
:1009E0008018085C01282FD1052000E0401D42F24C
:1009F0002E21DFF8DC238218895C002901D1A02890
:100A0000F4DB42F22E21DFF8C8238018085C0128AD
:100A100018D1052000E0401D41F66A01DFF8B0233F
:100A20008218895C002901D1A028F4DB41F66A0113
:100A3000DFF89C238018085C012801D1002004E025
:100A4000012002E0012000E00120704730B40022C4
:100A500000230024220000E0521CFA23DFF8704338
:100A600003FB0043D35C012B01D1A52AF4DBFA235D
:100A7000DFF85C4303FB0043D35C002B57D113002A
:100A800000E05B1CFA24DFF8485304FB00541C5DB3
:100A9000002C01D1A52BF4DBFA24DFF8345304FB3E
:100AA00000541C5D012C40D19A1A91423DDA1A0083
:100AB00000E0521CFA23DFF8184303FB0043D35C29
:100AC000012B01D1A52AF4DBFA23DFF8044303FB51
:100AD0000043D35C002B26D1130000E05B1CFA24FA
:100AE000DFF8EC5204FB00541C5D002C01D1A52B57
:100AF000F4DBFA24DFF8D85204FB00541C5D012C0F
:100B00000FD19A1A91420CDAFA21DFF8C42201FBC4
:100B100000201818C078012801D1012008E0002029
:100B200006E0002004E0002002E0002000E00020B9
:100B300030BC70472DE9F04F0C0015001E00211A43
:100B4000491C5FF0000C00225FF000095FF0000A12
:100B500000275FF00008030009E0DFF880E23EF9BB
:100B600013E0BEF1520E1EEB0C0C9A185B1C9C425B
:100B7000F3DA9CFBF1F992FBF1FA83461BE0DFF814
:100B80005C0230F91B00B0EB0900BBEB0A014843E3
:100B900001F018FA390001F03FFA0700BBEB0A0038
:100BA000BBEB0A01484301F00DFA414601F034FA6B
:100BB00080461BF1010B5C45E1DA4046002101F063
:100BC0006DFA02D10020286004E03800414601F0AF
:100BD00073FA2860484601F0F5F90400504601F028
:100BE000F1F9DFF8FC11096801F0E4FA01002000D6
:100BF00001F04CFB3060BDE8F08F10B4D2B2002A97
:100C00000CD1814230DBDFF8CC2132F810203732B2
:100C1000DFF8C83123F81020401CF2E7D2B2012AD5
:100C200014D1814220DBDFF8AC2132F910200223FD
:100C300092FBF3F2684B33F91030022493FBF4F388
:100C40009A18664B23F81020401CEAE7D2B2022A19
:100C50000AD107E0604A32F81020373A5F4B23F898
:100C60001020401C8142F5DA10BC70475D480068D6
:100C700050F080705B4908605B48006850F4806009
:100C80005949086059484FF4C061016058484FF411
:100C9000C061016057480021016057480021016090
:100CA0005648002101605648006850F0050054493C
:100CB000086054484FF6FF71016053480F210160EE
:100CC00070472DE9F04182B00400002500A8002102
:100CD000016000260027200001F04CFB31F00041AC
:100CE00000224A4B01F06EFB01F03EFC80462000E2
:100CF000002101F05FFC03D22D21032001F051FD02
:100D0000434898FBF0F010F13005414898FBF0F1B2
:100D100000FB118042F2107190FBF1F010F13006EF
:100D200042F2107098FBF0F100FB11804FF47A71E1
:100D300090FBF1F010F130074FF47A7098FBF0F16E
:100D400000FB1180642190FBF1F030308DF8000041
:100D5000642098FBF0F100FB11800A2190FBF1F078
:100D600030308DF801000A2098FBF0F100FB118073
:100D700030308DF802002900C9B2032001F011FDC6
:100D80003100C9B2032001F00CFD3900C9B20320C3
:100D900001F007FD2E21032001F003FD9DF8001056
:100DA000032001F0FEFC9DF80110032001F0F9FC86
:100DB0009DF80210032001F0F4FC2021032001F033
:100DC000F0FC2021032001F0ECFCBDE8F3810000E1
:100DD000F084FF1FC8E6FF1F90E7FF1F5CE8FF1FBE
:100DE00024E9FF1F308004403880044048A00440BC
:100DF0004CA0044000800B4004800B404C800B4012
:100E000054800B4008800B4080800B4000408F4096
:100E1000A086010038B572B632234FF4FA5207218A
:100E2000002001F0EBFC012301220621032001F048
:100E3000BBFEDFF85C0E037832220121012001F0B5
:100E4000DDFCDFF84C0E02780121012001F052FE9A
:100E5000FFF70CFF0A220521022001F045FF0922BD
:100E60000121012001F040FF012300220B2100207D
:100E700001F09AFE0121582001F0B6FF012159200E
:100E800001F0B2FFDFF80C0E0068032101FB00F156
:100E9000002001F0D1FF0021442001F0A5FF002334
:100EA00000220521012001F07FFE00230022042101
:100EB000012001F079FE002300220321012001F02E
:100EC00073FE002300220221012001F06DFE0123A8
:100ED00001220021032001F067FE012301220121EC
:100EE000032001F061FE012301220221032001F011
:100EF0005BFE012301220321032001F055FE5FF474
:100F0000E131032001F068FB642001F0C9FF40E0FB
:100F1000DFF8840DDFF8841D09780170DFF87C0D9F
:100F2000002101700521012001F0C5FE002806D135
:100F3000DFF8680D0078401CDFF8601D08700421A0
:100F4000012001F0B8FE002806D1DFF8500D00782E
:100F5000801CDFF8481D08700321012001F0ABFE62
:100F6000002806D1DFF8340D0078001DDFF82C1DB5
:100F700008700221012001F09EFE002806D1DFF852
:100F80001C0D00780830DFF8141D0870642001F093
:100F900087FFDFF8040D0078DFF8001D097888422C
:100FA000B6D1DFF8F40C00780028B1D0DFF8EC0CF3
:100FB000007801281BD0C0F0DF81032849D02DD351
:100FC000052800F0848068D3072800F0CE80C0F0A8
:100FD000A580092800F01B81C0F0F3800B2800F0E9
:100FE0006481C0F03B810C2800F09581C4E10022AF
:100FF0000021032001F032FE01220421032001F030
:101000002DFEC8220721002001F074FDDFF8900CAE
:10101000008800F0E1FFFFF754FEF2E70022012113
:10102000032001F01BFEDFF87C0C3C210160DFF89F
:10103000780C37210160DFF8740C2D210160DFF896
:10104000700C322101604FF4FA6001F029FF62B6A2
:10105000D9E100220021032001F000FE002201213D
:10106000032001F0FBFD01220621032001F0F6FD23
:10107000DFF8300C55210160DFF82C0C4B210160AA
:10108000DFF8280C46210160DFF8240C46210160BE
:101090004FF4FA6001F004FFD9E700220221032097
:1010A00001F0DCFDDFF8FC0B4B210160DFF8F80BF1
:1010B0003C210160DFF8F40B37210160DFF8F00B11
:1010C0003C2101604FF4FA6001F0EAFEBFE7002224
:1010D0000221032001F0C2FD00220021032001F0C3
:1010E000BDFDDFF8C00B55210160DFF8BC0B5021BE
:1010F0000160DFF8B80B4B210160DFF8B40B46212B
:101100000160DFF8A40D01210170DFF8A00D0021BE
:1011100001704FF4FA6001F0C3FE98E7002202214B
:10112000032001F09BFD00220121032001F096FD28
:10113000DFF8740D01210170DFF8700D00210170DE
:10114000DFF8600B55210160DFF85C0B4B2101607B
:10115000DFF8580B46210160DFF8540B462101608F
:101160004FF4FA6001F09CFE71E700220221032097
:1011700001F074FD00220121032001F06FFD002227
:101180000021032001F06AFDDFF8180B55210160F2
:10119000DFF8140B46210160DFF8100B41210160DC
:1011A000DFF8040D01210170DFF8000D002101704E
:1011B000DFF8FC0A462101604FF4FA6001F070FE8E
:1011C00045E700220321032001F048FDDFF8D80C99
:1011D00001210170DFF8D40C00210170DFF8D00C80
:1011E00001210170DFF8BC0A46210160DFF8B80A6E
:1011F0003C210160DFF8B40A37210160DFF8B00A52
:10120000462101604FF4FA6001F04AFE1FE7002218
:101210000321032001F022FD00220021032001F020
:101220001DFDDFF8840C00210170DFF8800C002127
:101230000170DFF87C0C00210170DFF8680A4B2197
:101240000160DFF8640A4B210160DFF8600A4B217E
:1012500001604FF4FA6001F023FEF8E6002203215A
:10126000032001F0FBFC00220121032001F0F6FC29
:10127000DFF8340C00210170DFF8300C0021017020
:10128000DFF82C0C00210170DFF8180A4121016001
:10129000DFF8140A41210160DFF8100A41210160E2
:1012A0004FF4FA6001F0FCFDD1E600220321032097
:1012B00001F0D4FC00220121032001F0CFFC002228
:1012C0000021032001F0CAFCDFF8DC0B00210170D3
:1012D000DFF8D80B00210170DFF8D40B002101707A
:1012E000DFF8C0094B210160DFF8BC094B21016028
:1012F000DFF8B8094B210160DFF8B80B4FF4FA7141
:101300000160DFF8B40BDFF8B41B01604FF4FA6042
:1013100001F0C6FD9BE600220321032001F09EFCA4
:1013200000220221032001F099FCDFF87C0B002150
:101330000170DFF8780B00210170DFF8740B0021D9
:101340000170DFF860093C210160DFF85C093C2195
:101350000160DFF858093C210160DFF8580B4FF4B9
:10136000FA710160DFF8500BDFF8501B01604FF499
:10137000FA6001F095FD6AE601220021032001F0E8
:101380006DFC00220321032001F068FC322001F0F3
:1013900087FD01220321032001F060FC00220221CD
:1013A000032001F05BFC322001F07AFD01220221D2
:1013B000032001F053FC00220121032001F04EFC28
:1013C000322001F06DFD01220121032001F046FCD5
:1013D00000220021032001F041FC322001F060FDD9
:1013E000CAE700220621032001F038FCDFF8D00A0A
:1013F0000068400010F128020721002001F07AFB6C
:101400001E2001F04DFD0C215020FFF73FF9002870
:101410001AD0DFF8B00A002101700F211920FFF760
:1014200015F80F218C20FFF75BF80F211E20FFF726
:1014300041FADFF8941A08700F211E20FFF77BFA9B
:10144000DFF8881A08703AE00C215520FFF7A8F958
:1014500000281AD0DFF86C0A022101700F21192030
:10146000FEF7F4FF0F218C20FFF73AF80F211E2022
:10147000FFF720FADFF8501A08700F211E20FFF73F
:101480005AFADFF8481A087019E0DFF8380A012123
:1014900001700F211920FEF7D9FF0F218C20FFF7D3
:1014A0001FF80F211E20FFF705FADFF81C1A08703D
:1014B0000F211E20FFF73FFADFF8101A0870DFF83F
:1014C000100A00210170DFF80C0A50210170DFF8CA
:1014D000080A54210170DFF8F4090078012839D195
:1014E000DFF8E4090078012809D101222D210F201D
:1014F000FFF783FBDFF8E409012101705EE00222BF
:101500002D210F20FFF779FBDFF8D00902210170B0
:101510001E212320FFF79AFA002805D119212A203D
:10152000FFF794FA00280CD0DFF8A409012101701C
:10153000DFF8A0091E210170DFF89C09232101704A
:101540003CE0FFF73AFA002838D0DFF8840901219F
:10155000017033E0DFF87009007801282AD10022F9
:101560002D210F20FFF749FBDFF8700900210170E2
:101570001E212320FFF76AFA002805D119212A200D
:10158000FFF764FA00280CD0DFF84409012101704C
:10159000DFF8400982210170DFF83C0987210170E2
:1015A0000CE0FFF70AFA002808D0DFF8240901212F
:1015B000017003E0DFF8180901210170DFF810095C
:1015C0000078002808D1DFF81839DFF8182926211B
:1015D0001220FFF7AFFA67E0DFF80C091C21017059
:1015E00006E0DFF804090078801CDFF8FC180870BA
:1015F000DFF8F40800782D2856D2DFF8EC080178DF
:10160000DFF8D0080078FEF7B5FF0028E9D0DFF852
:10161000D8080178DFF8C0080078FEF7F1FF00284D
:10162000DFD0DFF8C8080A210170DFF8BC080078B5
:10163000DFF8B8180978081880B2302807D3DFF827
:10164000A8080078D0F12E00DFF8A0180870DFF8A5
:1016500098080178DFF894080078FFF72BF9DFF895
:1016600088080178DFF884080078FFF764F9012220
:10167000DFF874080078DFF8741809780918DFF8C3
:1016800068080078FFF7B9FADFF85438DFF8542813
:10169000DFF854080078DFF8541809780918DFF8E3
:1016A00048080078FFF746FADFF838080168DFF8E5
:1016B000400800F07FFD0100DFF82408006800F01A
:1016C000ABFCDFF830180860DFF82C08DFF82418CE
:1016D00009680160DFF82408DFF81818096801605C
:1016E000DFF818080068DFF8181801F0E9FB07D9DF
:1016F000DFF808080068DFF80C1800F05BFF04D280
:10170000DFF8F807DFF800180160DFF8F00701687C
:10171000DFF8E807006800F04DFDDFF8F01708601B
:10172000DFF89007006800F04DFC0100DFF8DC07EF
:10173000006800F0C1FC0100DFF87C07006800F0E1
:101740006BFCDFF8CC170860DFF8C4070068DFF82F
:10175000C41701F0B5FB04D8DFF8B4075FF082418D
:101760000160DFF894070068DFF8AC1700F0A4FC14
:10177000DFF8A8170860DFF898070168DFF89C0712
:10178000006800F017FD0400DFF89407006800F01F
:1017900019FC0100DFF88C07006800F00BFD010068
:1017A000200000F039FC0400DFF870070068DFF863
:1017B0007817096800F06AFD0100DFF8700700681B
:1017C00000F0F8FC0100200000F026FCDFF86017B4
:1017D0000860DFF84C07006800F0F4FB0100DFF858
:1017E0003C07006800F018FC01F07CFBDFF83017C4
:1017F0000860DFF83407DFF8241709680160DFF8B4
:10180000200700683D2803DBDFF814073C21016056
:10181000DFF80C07006810F13C0F04DADFF800076E
:101820007FF03B010160DFF808070068DFF804176C
:1018300000F042FCDFF8F8160860DFF85404007886
:1018400000F0CAFBDFF8E816096800F01FFDDFF8BA
:10185000E8160860DFF86C060078022816D1DFF879
:1018600030040078C01C00F0ADFB0100DFF8C806B2
:10187000006800F09FFE09D2DFF814040078C01C55
:1018800000F0A0FBDFF8B016086019E0DFF83406BE
:101890000078002814D1DFF8F8030078C01E00F0AB
:1018A00091FBDFF89416096800F084FE08D2DFF897
:1018B000E0030078C01E00F085FBDFF87C160860AE
:1018C000DFF87806007800F087FBDFF86C1609680F
:1018D00000F070FE08D2DFF86406007800F07CFBB0
:1018E000DFF85416086013E0DFF85406007800F0C3
:1018F00073FB0100DFF84006006800F05BFE07D2D2
:10190000DFF83C06007800F067FBDFF82C16086073
:10191000DFF82406006801F007FB02000121012026
:1019200001F0E8F801220421032001F097F90320D7
:1019300001F0B6FADFF80C060078012840F0368195
:10194000DFF80416032000F015FF002870D0DFF840
:10195000F80500783038C0B20A2815D2DFF8EC0557
:101960000078DFF8EC15DFF8E0251278303A4254C1
:10197000DFF8D8050078401CDFF8D0150870DFF8D4
:10198000C8050021017053E0DFF8BC0500786F281E
:101990002ED1DFF8B80500210170DFF8B80500216D
:1019A0000160DFF8B0050068DFF8A415097864224B
:1019B00002FB0100DFF89C150860DFF8980500685D
:1019C000DFF88C1549780A2202FB0100DFF8841544
:1019D0000860DFF880050068DFF874158978401822
:1019E000DFF870150860DFF86005002101701FE066
:1019F000DFF854050078642814D1DFF85005002181
:101A00000170DFF84C0500210170DFF8440500216A
:101A10004170DFF83C0500218170DFF82C050021C2
:101A2000017005E0DFF82805DFF81C150978017062
:101A3000DFF81C050078702805D10022072100205E
:101A400001F058F8FEE7DFF808050078672851D163
:101A50000C21032000F0A5FE0D21032000F0A1FEC3
:101A60003C2400E0641EE4B20C2C3ED30A21032087
:101A700000F097FE0D21032000F093FE00250EE0FC
:101A8000EDB2E4B2FA20DFF8D01400FB0410285CB9
:101A900010F13001C9B2032000F083FE6D1CEDB2DD
:101AA000A52DDFD2E4B2DFF8B40430F91400290028
:101AB000C9B209B2884213D0E4B2DFF8A40430F905
:101AC00014002900C9B209B2884209D0E4B2DFF893
:101AD000940430F914002900C9B209B28842CFD168
:101AE0002021032000F05DFED8E7DFF86404002128
:101AF00001705BE0DFF858040078732856D10A21A2
:101B0000032000F04EFEDFF85C04B0F94C00DFF873
:101B10005414B1F94E100818DFF84814B1F95010F8
:101B20004018F738032190FBF1F000F04BFADFF892
:101B300038140860DFF83404006800F043FAFFF757
:101B4000C0F8DFF87C03006800F03CFAFFF7B9F852
:101B50000A21032000F025FE0D21032000F021FEC4
:101B6000DFF890030068FFF7ACF8DFF89003006837
:101B7000FFF7A7F8DFF898030068FFF7A2F8DFF88F
:101B800064030068FFF79DF8DFF854030068FFF76F
:101B900098F8DFF8A4030068FFF793F80A21032000
:101BA00000F0FFFD0D21032000F0FBFDDFF8C00376
:101BB00000210170DFF8BC0300210170DFF8A403ED
:101BC000B0F95000DFF89C13B1F952100818DFF893
:101BD0009413B1F954104018F738032190FBF1F039
:101BE00000F0F0F9DFF88013086031480068B4496C
:101BF0000968884228DAAD480078012824D1DFF846
:101C0000700301210170DFF87003006800F0DAF959
:101C10000400DFF854030168DFF84C03006800F0AB
:101C2000C9FADFF8581300F047FA0100DFF8500353
:101C300000F02CFB0100200000F0EEF901F052F959
:101C4000DFF83413086039E0DFF838030068102843
:101C500030DB9548007801282CD11348006800F04B
:101C6000B1F90400A3480168A248006800F0A2FA94
:101C7000C54900F021FA0100C44800F007FB01004B
:101C8000200000F0C9F901F02DF9BB49086015E00A
:101C90005984FF1F4CE9FF1F65E9FF1F64E9FF1F1F
:101CA00052E9FF1F6084FF1F6484FF1F6884FF1FC9
:101CB0005C84FF1FB048B64909680160B1480068FC
:101CC000401CB049086001220621032000F0C6FF35
:101CD0007748007801281BD1AE4800687849096828
:101CE000884215DAA04801689F48006800F062FA4F
:101CF000A24900F0E1F901000C00A748006800F0DB
:101D000061F9210000F056FC02D29A4801210170CD
:101D100097480078012810D1A048006896490968C2
:101D2000884203DA94489D49096801609248006836
:101D3000002802D59048002101605B480078012806
:101D400013D1964800688C490968884203DA8A48AA
:101D50009249096801608848006891490968884289
:101D600003DA85488E4909680160824800780128B5
:101D70003FF437AB8B48007800F02EF901006E4835
:101D8000006800F083FA04008648007800F024F927
:101D900001006948006800F079FA0100200000F0B5
:101DA00009FA814901F08CF806D873487849096826
:101DB00001607448002101607C480068022190FBAA
:101DC000F1F202FB1102002A06D168486A4909684B
:101DD000016076480021016074480068401C734926
:101DE00008606248006836490968401A704908600E
:101DF0006F48006809216F4A1268520001FB0020F9
:101E00006B4909686C4A1268891A052202FB0100B5
:101E10006A49086069480068400068490860654888
:101E200000686349096808186249086061480068E9
:101E30003D2802DB5F483C2101605E48006810F1EC
:101E40003C0F03DA5B487FF03B0101605B480068B0
:101E5000012802DA5948002101605848006840F220
:101E6000EE21884203DB554840F2EE2101605248E2
:101E70004F49096801605248007800280AD14F484C
:101E800002680721002000F035FE052001F008F867
:101E9000FFF7B9BA00220721002000F02BFE052031
:101EA00000F0FEFFFFF7AFBA6D84FF1F6C84FF1FC9
:101EB0006E84FF1F7484FF1F7084FF1F3333334011
:101EC000EC84FF1F5DE9FF1F5EE9FF1F5FE9FF1F55
:101ED00060E9FF1F5684FF1F5784FF1F5484FF1FB4
:101EE00028E9FF1F24E9FF1F61E9FF1F5584FF1F39
:101EF0000000044258E8FF1FC0E6FF1F30E9FF1F43
:101F000001008242000082C20000824234E9FF1FC9
:101F10004884FF1F0100004100004040B0E6FF1F61
:101F2000BCE6FF1FACE6FF1FB4E6FF1F4C84FF1F9B
:101F3000B8E6FF1F0000C0402CE9FF1F5884FF1FB8
:101F40005A84FF1F6F84FF1F5BE9FF1F5CE9FF1FBF
:101F5000C4E6FF1F5084FF1FF084FF1FC8E6FF1F69
:101F600090E7FF1F5CE8FF1F3CE9FF1F4484FF1F51
:101F700062E9FF1F63E9FF1F38E9FF1F00002042ED
:101F80000000204140E9FF1F00004842000070416E
:101F90006884FF1F7884FF1F7C84FF1F6084FF1FFD
:101FA0006484FF1F5984FF1F0000C841A8E6FF1F7B
:101FB00098E6FF1FA4E6FF1F9CE6FF1FA0E6FF1F99
:101FC00066E9FF1F002840F10980F446404200F016
:101FD00005F850F000406047002800BF0AD0B0FA72
:101FE00080F18840D1F19D01C905020672F10042DD
:101FF00041EB1020704750F8041B61B150F8042BDE
:10200000D30744BFA9F101039A18002342F8043B07
:10201000091FFAD1EFE7704790EA010F44BF81F042
:10202000004100F03BB900BF421A3CBF801A89183A
:102030004FF0004CC0F3C752FF2A24D0C1F3C7535E
:1020400013B3D21AD2F1190327DD4CEA01214CFA5D
:1020500003F321EA0303D140C20D4CEA00204018EB
:1020600034BF20EA0C004CEA5000D20553EA00636A
:1020700073EB0C0C52EB1020420012F1807F38BF42
:102080007047C00DC0057047490212BF9A4200EB6D
:102090005120F8E7D2F11703D9D5704740EA010C77
:1020A0005FEA4C0C07D0884205D14FEA400C1CF186
:1020B000807F98BF8042704710B5FF2313EAD05449
:1020C0001DBF13EAD1529C429A4239E0A41ADA07A2
:1020D00080EA0103134042EA012142EA0020421A49
:1020E0003CBF641E01EB4202090AB2FBF1FE01FB98
:1020F0001E221202B2FBF1F001FB10226EF30F2040
:102100001202B2FBF1FE4EEA00207F3406DDFE2C07
:1021100024DA53EA500050EBC45010BDD4F102044D
:1021200001FB1E2240F08071192C1DDC21FA04F005
:10213000C4F12004A140114371F10042584110BD87
:102140009C421ABF03EAD1529A420FE080EA010E84
:102150000EF00043400004D0490016D143F0FF4088
:1021600010BD490008BFD343180010BD9C4205D1E3
:10217000D21AF7D001F00041484010BD4A0212BF08
:102180000846484000F0004010BD4AB90902B1FAC3
:1021900081F2914044B1A418C00140F000409EE794
:1021A000C90141F0004152420002B0FA80F4A0405F
:1021B000141B94E7FF2212EAD05C1DBF12EAD15330
:1021C000944593422BE09C44D30780EA01021A40D5
:1021D00043EA002043EA0121A1FB0030410038BF5F
:1021E00040007CF17F010BDBFE294ADA5B0842EA02
:1021F000C15153EA006373F1004C51EB102070475A
:10220000D1F1080CDCF120012FDB5B0810FA01F1A1
:102210000B4373F1004120FA0CF050417047944594
:102220001CBF02EAD153934280EA010202F000424D
:102230001DD0400019D0490017D05BB9634514D0B8
:102240000902B1FA81F39940BCEB030CC00140F0E4
:102250000040C1E70002B0FA80FC10FA0CF0B3EBCA
:102260000C0CC90141F00041B6E710007047400076
:102270000AD0490008D010F1807F94BF11F1807F0F
:1022800002E042F0FF407047D043704790EA010FF0
:1022900044BF81F00041FFF7C7BE00BF431A4FF0B3
:1022A00000423EBF5340C01AC91800BFD3095FEABD
:1022B000D05C13EB400F34BFB3EB410F40E07CEB3D
:1022C000D1530CD342EA012122D8D1EB402009D3CB
:1022D000400A28BF5FEA500140EBCC507047401ADB
:1022E00015D04002B0FA80F2521C9040400A4FEAEA
:1022F0003C23B3EB026384BF00EB730007E040F4C0
:1023000000001A16DB07C2F10102D04018437047E3
:10231000182BFCDC31FA03F202FA03F3591A38BF26
:1023200042F00102D2EB40203CBF4000ACF1010C76
:102330005FEACC5CC20572F100414CEB5020704763
:1023400013EB400F0FD24B0009D0ACEBD153022B53
:1023500003DB4902172BDDDD70479143401A430030
:10236000D5D10020704713EB410FD0D36FF00000A0
:10237000704700005FF0FF0C1CEAD05114BF6145AC
:1023800006E0C110400721F0E04101F160517047C3
:1023900079B900F0004100020AD0B0FA80FC00FADE
:1023A0000CF001F16051A1EB0C5101EBD021400583
:1023B000704741020CBF40F4E0016FF000010020C3
:1023C00070470000B0B581EA030C0CF0004C40F2FD
:1023D000FF7515EA11541DBF15EA1357AC42AF4201
:1023E00039E0E41923EA455343F48013C90241F06C
:1023F000004141EA505EC7021100A7FB020200281B
:102400004FF00000EEFB01204FF00001E3FB07213D
:1024100018BF42F00102401800214941E3FB0E01C0
:10242000A4F580640F0302D252004041494154F1A7
:1024300001046CDD470872F1004250F1000051EBDD
:102440000451A1F580115CBF41EA0C01B0BD4CEA1A
:1024500005510020B0BD05EA1357AC4214BFAF428E
:1024600041E050EA410E1CBF52EA430E02E06146D1
:102470000020B0BD24423C441BD15FEA070EF6D0D9
:10248000090302BF01460020AEF1140EB1FA81F734
:10249000AEEB070401FA07FE0C37C7F1200100FA82
:1024A00007F7C8404EEA000E23EA455343F4801371
:1024B000A2E733F00043B3FA83F704BFB2FA82FE17
:1024C00077440B3FE41BB7F1200E2FBF02FA0EF347
:1024D000BB40C7F1200E22FA0EFE38BF43EA0E03BE
:1024E000BA40641C82E750EA410E14BF52EA430E20
:1024F0006FF000014FF4001717EB430F8ABF194626
:1025000017EB410FB5E74CEA05510020B0BDD4F1FF
:102510000104B4F120070FDAC4F12007520828BFE4
:1025200042F0010210FA07F501FA07F7E1BF2A436A
:10253000E0403843E1400FE0352C98DCC7F120043F
:1025400052EA400220FA07F218BF42F0010231FAC3
:1025500007F0A1400A43002172F1004250F100004F
:1025600051EB0C01B0BD0000F446400D40EAC12023
:10257000490006D200F00EF8004248BF6FF000405C
:10258000604700F007F84FF0004188428CBF0846D2
:102590004042604740F00040490DA1F58061491C70
:1025A00005D4D1F11F0154BFC840C01770474FF088
:1025B000000070474FF0807C1CEB400F94BF1CEB79
:1025C000410F05E040EA010C5FEA4C0C01D2884261
:1025D000704718BF8142704738B504000D00E4B25F
:1025E000002C08D0022C24D014D3042C3FD02FD39D
:1025F000052C4BD059E03321704800F0A7FC3E2158
:102600006E4800F0A3FC6E48006850F480606C498E
:1026100008604AE06B484FF4407101606A484FF42B
:10262000407101606648006850F4006064490860C9
:102630003BE066484FF44071016065484FF44071DB
:1026400001605F48006850F480505D4908602CE0EC
:1026500060484FF4407101605F484FF44071016081
:102660005748006850F40050554908601DE05B4829
:102670004FF4407101605A484FF44071016059486D
:10268000006850F48060574908600EE056484FF4E7
:102690004071016055484FF4407101605148006835
:1026A00050F400604F490860FFE7E4B2504850F82A
:1026B0002400C07810F0F300E4B24D4951F8241022
:1026C000C870E4B24A4850F8240000218170E4B296
:1026D000002C08D00020E4B2012C04D050F00000FF
:1026E000C0B2002805D0434800684FF47A714843CF
:1026F00004E0414800684FF47A7148432901B0FB77
:10270000F1F1E4B23A4A52F82420127812F0E002D1
:1027100089B20B0A13F01F031A43E4B2344B53F887
:1027200024301A70E4B2324A52F824205170400129
:102730002A01B0FBF2F089B2B0EB4110E4B22C49AF
:1027400051F82410897A11F0E002E4B2284951F8D6
:10275000241010F01F0010438872E4B2244850F88F
:102760002400C07850F00C00E4B2214951F8241044
:10277000C87031BD0022521C0F2A0ED2C0B21C4BB1
:1027800053F820301B799B06F5D5C0B2184A52F891
:102790002000C0790870012002E0002008700020AD
:1027A0007047C0B2124A52F8202012791206F8D5AA
:1027B000C0B20F4A52F82000C1717047343B00008C
:1027C000348004400CB0044010B004400CC00440FD
:1027D00008C0044040B0044044B0044064D0044009
:1027E00060D004402880044024D0044020D004401D
:1027F0008884FF1F44E9FF1F4CE9FF1F2DE9F041CA
:1028000004000D0016001F00DFF8540300684FF4A9
:102810007A7148435FEA5008E4B2002C0DD0E4B26C
:10282000012C02D0E4B2012C02D1EDB2022D04D36E
:102830003821DFF8300300F089FB5FEA5800B0422E
:1028400004D23921DFF81C0300F080FB5FEA184056
:10285000B0FBF6F1002000E0401C89B251FA00F212
:10286000012AF9DA38FA00F1B1FBF6F189B24A1C13
:1028700002FB07F24FF47A73B2FBF3F2E4B2002CDE
:1028800005D0022C00F0B880C0F08980E1E0DFF8CC
:10289000D8321B6853F08073DFF8CC623360EDB23E
:1028A000002D0BD0022D25D016D3042D3ED02FD3D2
:1028B000062D57D048D3072D62D06FE0DFF8AC3239
:1028C0001B6853F40063DFF8A4623360DFF8A032C2
:1028D0004FF480661E60BCE0DFF890321B6853F452
:1028E0000063DFF888623360DFF888324FF4806677
:1028F0001E60F0E7DFF874321B6853F40063DFF802
:102900006C623360DFF870324FF480661E60E2E77D
:10291000DFF858321B6853F40063DFF8506233600D
:10292000DFF858324FF480661E60D4E7DFF83C329F
:102930001B6853F48053DFF834623360DFF84032B1
:102940004FF480661E60C6E7DFF820321B6853F440
:102950008053DFF818623360DFF828324FF4806666
:102960001E60B8E7DFF804321B6853F48053DFF8C9
:10297000FC613360DFF810324FF480661E60AAE716
:10298000DFF8E8311B6853F48053DFF8E06133600F
:10299000DFF8F8314FF480661E609CE7A8E0DFF8AE
:1029A000C8311B6853F00073DFF8BC613360EDB2CF
:1029B000002D02D0012D0FD01DE0DFF8B0311B68D3
:1029C0004FF400763343DFF8A4613360DFF8C031A1
:1029D0004FF440761E603CE0DFF890311B684FF406
:1029E00000763343DFF884613360DFF8A8314FF4B9
:1029F00040761E60EFE77BE0DFF89C311B6853F008
:102A00008073DFF894613360EDB2002D02D0012DA8
:102A10000FD01DE0DFF854311B684FF400763343CC
:102A2000DFF848613360DFF874314FF440761E60A0
:102A30000FE0DFF838311B684FF400763343DFF8DE
:102A40002C613360DFF858314FF440761E60EFE7B9
:102A50004EE0EDB2E4B2DFF84C3153F8243013EB22
:102A6000C503EDB2E4B2DFF83C6156F8246016EB22
:102A7000C506F66836F00406DE60EDB2E4B2DFF8B3
:102A8000243153F8243013EBC5032826DE60E4B26A
:102A9000DFF8103153F82430C0B210F0070050F0C6
:102AA00028001860E4B2DFF8FC0050F8240000238E
:102AB000C364E4B2DFF8EC0050F8240089B281600E
:102AC000E4B2DFF8E00050F824000021C164EDB268
:102AD000E4B2DFF8D00050F8240010EBC50092B249
:102AE0000261E4B2DFF8BC0050F82400002141602C
:102AF000BDE8F08170B504000D001600E4B2002CB2
:102B00000ED0E4B2012C02D0E4B2012C02D1EDB21D
:102B1000022D05D340F27911DFF8480000F016FAD3
:102B2000B6F57A7F05D94FF4BD71DFF8380000F0B3
:102B30000DFAE4B2DFF86C0050F824008068401C05
:102B400000FB06F04FF47A71B0FBF1F0EDB2E4B2A5
:102B5000DFF8501051F8241011EBC501086170BD69
:102B60004CE9FF1FCC3B00003C800440388004400F
:102B700004B0044008B004400CB0044010B004405D
:102B800010C0044014C0044018C004401CC00440DD
:102B90002090044024900440308004402890044059
:102BA0002C9004401084FF1FF8B504000D0017009E
:102BB0001E00EDB2202D02D2F6B2022E03D3242144
:102BC000464800F0C3F9EDB2E4B2454850F824009D
:102BD0004FF4807140F82510F80705D5FFB2032F98
:102BE00002D0FFB2132F0DD1E4B23E4850F82400BA
:102BF00040690121A9408843E4B23A4951F82410C0
:102C000048612AE0E4B2374850F8240040690121C5
:102C1000A9400843E4B2334951F824104861F6B2A0
:102C2000012E0DD1E4B22F4850F824000068012194
:102C3000A9400843E4B22B4951F8241008600CE085
:102C4000E4B2284850F8240000680121A9408843D4
:102C5000E4B2244951F824100860F1BD70B50400B5
:102C60000D001600EDB2202D02D2F6B2022E03D3D3
:102C70004B211A4800F06AF9F6B2012E0DD1E4B2E8
:102C8000184850F8240000680121A9400843E4B224
:102C9000144951F8241008600CE0E4B2114850F8CF
:102CA000240000680121A9408843E4B20D4951F88D
:102CB0002410086070BD38B504000D00EDB2202D61
:102CC00003D37121054800F041F9E4B2054850F8FA
:102CD00024000069E84010F0010032BDE83A00002D
:102CE0003084FF1F1C84FF1F10B5164B1B684FF468
:102CF000007484402343134C2360C9B2C0B2124B0A
:102D000053F82030D2B2140414F47024D2B2D20991
:102D1000D2B2224352F4817243F82120C0B20B4A4E
:102D200052F820205269012313FA01F132EA01011D
:102D3000C0B2064A52F820205161C0B2573000F0AC
:102D40000AF810BD388004403084FF1F1C84FF1F28
:102D50002F490860704710B504005C2C02DB2D4839
:102D600000F04BFB202094FBF0F0002803D0022859
:102D700027D013D337E00120202194FBF1F202FB8E
:102D800011429040244908600120202194FBF1F277
:102D900002FB114290402149086024E001202021DB
:102DA00094FBF1F202FB114290401D4908600120A2
:102DB000202194FBF1F202FB114290401949086076
:102DC00011E00120202194FBF1F202FB114290401E
:102DD000154908600120202194FBF1F202FB114209
:102DE00090401249086010BD38B504000D005C2CFD
:102DF00002DB0F4800F001FB102D02DB0D4800F054
:102E0000FCFA04F1604010F564402901017031BD05
:102E100008ED00E0903C000080E200E000E100E00E
:102E200084E200E004E100E088E200E008E100E084
:102E3000543C0000143C000080B5164A126852F45D
:102E40000002144B1A60144A126892089200124B46
:102E50001A60C0B20201114BD150C0B20F4911EB40
:102E60000011C96851F00101C0B20C4A12EB001206
:102E7000D160C0B2094911EB0011896851F003011A
:102E8000C0B2064A12EB00129160C0B24430FFF7A4
:102E900062FF01BD3C8004400070034000710340AC
:102EA000002104E000BF521E002AFBD1491C8142D0
:102EB00002D2024A1268F7E7704700004CE9FF1F90
:102EC0004FF0807C1CEB400F94BF1CEB410F05E0E2
:102ED00040EA010C5FEA4C0C01D28142704718BFF6
:102EE000884270474100090E7F3915D4D1F11F0186
:102EF00014D4400007D2C00140F00040C84048BF91
:102F00006FF000407047C00140F00040C8404CBF27
:102F10004FF00040404270470020704700424FF0A1
:102F2000004058BFC043704740000DD2010E7F39AA
:102F30000AD4D1F11F0104D4C00140F00040C840C0
:102F400070477FF0000070470020704780B500F0A8
:102F500065FA00F08DFAFCE710B50C001168012944
:102F600002D0022904D009E0C0B25168884705E0C8
:102F7000916808709068401C9060FFE72068401CD2
:102F8000206010BD30B41C00002300250570401CDB
:102F9000002A19D0096800290AD1302101705B1C70
:102FA000180030BC7047303511000570401C5B1CA8
:102FB0000029F5D091FBF4F204FB1215002DF2D597
:102FC000E94311F13105EFE70968002908D1302103
:102FD00001705B1CE4E7373511000570401C5B1C79
:102FE0000029DDD0B1FBF4F204FB12150A2DF2D258
:102FF0003035F1E7F8B504000D0016001F0005E0BC
:103000003A0031003020FFF7A7FF641CAC42F7DB29
:10301000F1BDF8B504000D0016001F0005E03A00F0
:1030200031002020FFF798FF641CAC42F7DBF1BDB4
:103030002DE9F04F8DB005001600002000900C0027
:1030400005E02A0000A91800FFF786FF641C23781A
:10305000002B00F0CE81252B12D00A2B05D02A00A0
:1030600000A91800FFF778FF09E02A0000A90D2049
:10307000FFF772FF2A0000A90A20FFF76DFFE5E7BE
:103080000027002101E057F0010700291BD1641C33
:10309000207820280BD023280FD02B2804D02D28CF
:1030A000F1D0302806D00BE057F00207EDE757F0DB
:1030B0000407EAE757F00807E7E757F01007E4E7E7
:1030C000641E0121E1E75FF00008002104E00A200E
:1030D00000FB0830B0F13008002908D1641C2378C7
:1030E000180030380928F2D9641E0121F4E7641C65
:1030F00020782E280BD10021FFE7002908D1641C7D
:10310000207830380928F8D9641E0121F5E7641EBB
:10311000641C20784C2806D0682802D06C2801D086
:1031200002E002E001E000E0641E641C2378180065
:10313000582878D0622800F0DA80632800F02481D3
:10314000642813D0692811D06E2800F04D816F28B3
:1031500000F0C280702800F0D580732800F01B8139
:10316000752800F0DA8078285DD06AE7306803902F
:10317000361D0A23012203A904A8FFF703FF824694
:1031800004A81AEB00090398002804D52D2002900A
:103190001AF1010A11E03800800704D52B200290B3
:1031A0001AF1010A09E03800400704D520200290F6
:1031B0001AF1010A01E0002002905FF0000B3800D4
:1031C000000711D50298002804D02A0000A902980F
:1031D000FFF7C2FE5FF0010B2B0000AA41465046EC
:1031E000FFF708FFC24612E03800C0070FD42B00DB
:1031F00000AA41465046FFF70CFF0298002804D071
:103200002A0000A90298FFF7A7FE5FF0010BBBF1AF
:10321000000F07D10298002804D02A0000A90298C4
:10322000FFF79AFEA3E030680190361D10230022BC
:1032300001A904A8FFF7A6FE824604A81AEB00091C
:103240005FF0000B3800000716D53800C0060BD51C
:103250002A0000A93020FFF77FFE2A0000A978206D
:10326000FFF77AFE5FF0010B2B0000AA41465046A3
:10327000FFF7C0FEC2461CE03800C00719D4380072
:10328000C00601D51AF1020A2B0000AA4146504699
:10329000FFF7BFFE3800C0060BD52A0000A930207A
:1032A000FFF75AFE2A0000A97820FFF755FE5FF0CD
:1032B000010B3800C0060ED5BBF1000F0BD12A0060
:1032C00000A93020FFF748FE2A0000A97820FFF768
:1032D00043FE1AF1020A4AE030680190361D0823C5
:1032E000002201A904A8FFF74DFE82461FE03068C6
:1032F0000190361D0223002201A904A8FFF742FE17
:10330000824614E030680190361D1023002201A986
:1033100004A8FFF737FE824609E030680190361DA9
:103320000A23002201A904A8FFF72CFE824604A864
:103330001AEB00093800000707D52B0000AA414608
:103340005046FFF757FEC24611E03800C0070ED4C2
:103350002B0000AA41465046FFF75BFE07E02A001B
:1033600000A999F80000FFF7F7FDB9F1010999F8F4
:1033700000000028F3D1F80705D52B0000AA41462C
:103380005046FFF746FE61E63078361D2A0000A958
:10339000FFF7E2FD5AE6D6F80090361DB9F1000FAE
:1033A00021D0484600F094F882463800C0070ED479
:1033B0002B0000AA41465046FFF72BFE07E02A00EB
:1033C00000A999F80000FFF7C7FD19F1010999F864
:1033D00000000028F3D1F80705D52B0000AA4146CC
:1033E0005046FFF716FE31E63068361D0099016041
:1033F0002CE600980DB0BDE8F08F0EB400B584B097
:10340000012100910449019105AA010000A8FFF7DC
:103410000FFE04B05DF810FBD53D000080B5012320
:10342000012218210420FFF7BFFB012301221921EB
:103430000420FFF7B9FB012301221A210420FFF722
:10344000B3FB012301221B210420FFF7ADFB01BDCB
:103450001E4A12691268012383409A43C9B211F0CF
:10346000010111FA00F0104318490969086070471A
:1034700010B50123012218210420FFF795FB012339
:10348000012219210420FFF78FFB012301221A21B9
:103490000420FFF789FB012301221B210420FFF7F1
:1034A00083FB18240DE000212000C0B2FFF7D0FFFD
:1034B0006420FFF7F5FC01212000C0B2FFF7C8FF30
:1034C000641CE4B21C2CEED310BD00001C84FF1F52
:1034D0000021002802D1002006E0491C0200501CF7
:1034E0001278002AF9D1080070470000DFF800F0D8
:1034F000A184FF1F10B5C0B2002800F01481C0B233
:10350000010030291ED032292CD0602931D0642905
:1035100036D06E293BD0782940D07D2945D08229EC
:103520004AD08C294FD0962954D0A02959D0AA2905
:103530005ED0B42963D0C82968D0E1296DD0FA29BA
:1035400072D078E0A64918220A70A54900224A7074
:10355000A34900228A70C0B2652870D2A049002217
:10356000CA708CE09E4918220A709D4901224A7057
:10357000EEE79B4918220A70994918224A70E7E73A
:10358000974918220A7096491A224A70E0E794492E
:1035900018220A7092491F224A70D9E790491322D3
:1035A0000A708F4918224A70D2E78D4913220A7097
:1035B0008B491A224A70CBE7894913220A7088493D
:1035C0001C224A70C4E786490E220A7084491222DE
:1035D0004A70BDE782490E220A70814915224A705D
:1035E000B6E77F490E220A707D4918224A70AFE77C
:1035F0007B490E220A707A491B224A70A8E7784953
:103600000E220A7076491E224A70A1E774490C22E4
:103610000A7073491C224A709AE771490B220A709A
:103620006F491E224A7093E76D490A220A706C495D
:103630001F224A708CE76420FFF75CFFCEE0C0B227
:10364000C92803D266490122CA7018E00100C9B234
:1036500040F22D1289B2914203D261490222CA700E
:103660000DE00100C9B240F2911289B2914203D239
:103670005B490322CA7002E059490F22CA705849B7
:10368000574AD2780A71C0B21F2803D25448002189
:10369000417148E0C0B23D2803D251480121417137
:1036A00041E0C0B25B2803D24D48022141713AE0AB
:1036B000C0B2792803D24A480321417133E0C0B235
:1036C000972803D24648042141712CE0C0B2B528A6
:1036D00003D243480521417125E0C0B2D32803D26B
:1036E0003F48062141711EE0C0B2F12803D23C4898
:1036F0000721417117E00100C9B240F20F1289B2EF
:10370000914203D23648082141710CE0C0B240F228
:103710002D1180B2884203D231480921417102E063
:103720002F480F2141712E484078183080B2322145
:1037300048432B490978491C89B290FBF1F4294888
:10374000002101702848006850F080502649086028
:103750002648007850F080002449087024489821B9
:10376000017024480078C006FBD422480078C0F3DA
:103770008100C0B20228F8D11948007810F01F006B
:103780001D4908701D4800210170154843791448EF
:1037900002791348C17812488078FFF7A7FE1048D5
:1037A000407810F01F0050F0400014490870114894
:1037B00000788006FBD50F4800784006FBD50C4802
:1037C000007810F03F000A4908700A480078C0F3FA
:1037D0008100C0B20328F8D12000C0B210BD00BFE4
:1037E0008084FF1F014006403480044008C0074029
:1037F00000400640064006400440064005400640A2
:103800003948006850F40040374908603748384963
:103810000988018037480021018037480021018054
:1038200036480021018032480021018070470000A5
:103830003348006850F00200314908602C48008885
:10384000042190FBF1F202FB1102002A38D12A4830
:1038500028490988018028480088D0F15A00274962
:10386000088024480088401C22490880002000E08D
:10387000401C40F2771180B28842F9D321480021E0
:10388000017009E000BF401CC0B20128FAD31D48F6
:103890000078401C1B4908701A480078BF280FD2D6
:1038A0001848007815490988FA22174B02FB0131A4
:1038B000164A1268D20A12F0010242540020E3E7CD
:1038C0000B480088401C0A4908807047104811497D
:1038D000096801601048006850F001000E49086056
:1038E0000C48002101607047A0B0044052E9FF1F5E
:1038F00050E9FF1F54E9FF1F56E9FF1F58E9FF1F5A
:10390000A0A004405AE9FF1FF084FF1F10F00F40F1
:10391000EC84FF1F04800B400C71034080B51E48EF
:10392000006850F478501C490860C820FFF7E2FD99
:103930001A490860194800684FF47A7148431849D9
:1039400008601748006817490968C1F30361491CFA
:10395000B0FBF1F01449086000F008F800F011F82D
:103960004FF496410120FEF737FE01BD0F48006875
:1039700050F480500D4908600D484FF4E06101603B
:1039800070470C48006850F001000A4908600A4876
:103990004FF4A061016070473880044048E9FF1F80
:1039A00044E9FF1F448004404CE9FF1F04800440A9
:1039B00018900440408004400CB0044080B51C487E
:1039C0001C4988420BD0002006E01949194A52F8D8
:1039D000202041F82020401CB0F5826FF5D3144818
:1039E000FFF7B6F91449154A1548801A03E0137811
:1039F0000B70521C491C0300581E002BF7D11149B3
:103A00001148401A02E000220A70491C0200501EB0
:103A1000002AF8D10D490E4A0E48801A03E01378A7
:103A20000B70521C491C0300581E002BF7D101BD1E
:103A30000080FF1F000000001084FF1F583A0000A4
:103A4000E83A0000EC84FF1F67E9FF1FA084FF1F16
:103A5000803B0000CC3B000000800340009003400E
:103A600000800B4000F00F4040F00F4080F00F400E
:103A7000C0F00F4000F10F400090044000A004404F
:103A800000B0044000C0044000D0044046000000E4
:103A90000000C0400000E0403C000000010A50541B
:103AA00070665C00460000005A0000004100000003
:103AB0003C0000000101010100002040260200003E
:103AC000460000000F0000000B1F0000000900006E
:103AD00000A0064000B0064000C0064000D00640EE
:103AE00000A00E4000B00E40433A5C5573657273FF
:103AF0005C416D62695C526F626F746963735C53A1
:103B00006D617274204361725C50726F6772616D97
:103B10005C70726F6A6563745C7372635C64726913
:103B2000766572735C6770696F5C6770696F2E632E
:103B300000000000433A5C55736572735C416D622E
:103B4000695C526F626F746963735C536D61727408
:103B5000204361725C50726F6772616D5C70726F4E
:103B60006A6563745C7372635C64726976657273B0
:103B70005C756172745C756172742E630000000084
:103B800070B4104C24680F4D2D6855F47F050D4E10
:103B90003560090611F0706151EA0070110511F4E9
:103BA00070010843190411F47021084306490860A4
:103BB000002000E0401CC0B29842FBD301480460E2
:103BC00070BC704700F0014044800440433A5C55AB
:103BD000736572735C416D62695C526F626F746988
:103BE00063735C536D617274204361725C50726FD9
:103BF0006772616D5C70726F6A6563745C73726327
:103C00005C647269766572735C46544D5C46544DD3
:103C10002E6300000A4552522120496E76616C697C
:103C200064207072696F726974792076616C756551
:103C30002070617373656420746F207072696F7295
:103C4000697479206972712066756E6374696F6E2C
:103C5000210A00000A4552522120496E76616C69A2
:103C600064204952512076616C75652070617373D0
:103C7000656420746F207072696F7269747920694D
:103C800072712066756E6374696F6E210A000000A0
:103C90000A4552522120496E76616C69642049526E
:103CA000512076616C756520706173736564207452
:103CB0006F20656E61626C65206972712066756E39
:103CC0006374696F6E210A0080B500F009F80A4834
:103CD00000884FF6FE7108400749088001BD0000CA
:103CE00072B606484CF22051018004484DF6281166
:103CF000018062B670470000002005400E2005409C
:103D00000A2A2A2A2A64656661756C745F6973726F
:103D100020656E7465726564206F6E2076656374CD
:103D20006F722025642A2A2A2A2A0D0A0A00000016
:103D300010B5084979441C31074C7C441A34A1421F
:103D400006D0081D0A68511888470146A142F8D1DB
:103D500010BD00BF08000000140000009BE2FFFF40
:103D60007C640000EC84FF1F0000000080B5FFF7BA
:103D700055FBFFF77DFB03480178C9B20248FFF706
:103D80003CFB01BD04ED00E0003D00000120C04609
:103D9000002801D0FFF7CCFF0020FDF73BF800F032
:103DA00000F800F001B800000746384600F002F8BD
:103DB000FBE7000001491820ABBEFBE7260002002C
:103DC00080B5FFF781FFFFF7F9FDFFF7A7FDFDF7CE
:103DD00021F8FEE780B50100C9B20120FEF7E1FC41
:103DE00001BDC046C046C046C046FFF7CFFF000039
:0400000500003DE3D7
:00000001FF
