:10000000F87F002011040000D1370000D137000034
:10001000D1370000D1370000D1370000D1370000C0
:10002000D1370000D1370000D1370000D1370000B0
:10003000D1370000D1370000D1370000D1370000A0
:10004000D1370000D1370000D1370000D137000090
:10005000D1370000D1370000D1370000D137000080
:10006000D1370000D1370000D1370000D137000070
:10007000D1370000D1370000D1370000D137000060
:10008000D1370000D1370000D1370000D137000050
:10009000D1370000D1370000D1370000D137000040
:1000A000D1370000D1370000D1370000D137000030
:1000B000D1370000D1370000D1370000D137000020
:1000C000D1370000D1370000D1370000D137000010
:1000D000D1370000D1370000D1370000D137000000
:1000E000D1370000D1370000D1370000D1370000F0
:1000F000D1370000D1370000D1370000D1370000E0
:10010000D1370000D1370000D1370000D1370000CF
:10011000D1370000D1370000D1370000D1370000BF
:10012000D1370000D1370000D1370000D1370000AF
:10013000D1370000D1370000D1370000D13700009F
:10014000D1370000D1370000D1370000D13700008F
:1001500099320000D1370000D1370000D1370000BC
:10016000D1370000D1370000D1370000D13700006F
:10017000D1370000D1370000D1370000D13700005F
:10018000D1370000D1370000D1370000D13700004F
:10019000D1370000D1370000D1370000D13700003F
:10040000FFFFFFFFFFFFFFFFFFFFFFFFFEFFFFFFFD
:1004100062B64FF000004FF000014FF000024FF0C5
:1004200000034FF000044FF000054FF000064FF0BE
:1004300000074FF000084FF000094FF0000A4FF09E
:10044000000B4FF0000C03F005FAFEE72DE9F04F2A
:10045000A1B0804617461D46029102AE0020706290
:1004600011AC6FF000490AE017F8011B0298C04771
:100470000290002800F07C82706A401C706238781C
:1004800008B9706A76E22528EED10020F06030616C
:100490007061B061F061306201E040F0010017F876
:1004A000011F2029F9D023290ED02B2904D02D2972
:1004B00006D030290CD00FE040F0020080B2EEE709
:1004C00040F0040080B2EAE740F0080080B2E6E7BE
:1004D00040F0100080B2E2E72A290DD129680A1DF8
:1004E0002A600968F162002904D54942F16240F0AE
:1004F000040080B27F1C11E00021F16209E0F16A82
:10050000494505D001EB810302EB43013039F1622B
:100510007F1C3A78A2F130010A29F0D339782E29CC
:100520001CBF4FF0FF31B1621CD117F8011F2A29FF
:1005300006D129680A1D2A600968B1627F1C11E092
:100540000021B16209E0B16A494505D001EB8103A0
:1005500002EB43013039B1627F1C3A78A2F13001DD
:100560000A29F0D3308639780FF6E43000F00EFE19
:1005700008B117F8010B8DF83A009DF83A00682889
:1005800004D1387868280AD1622005E06C2804BFBD
:1005900038786C2803D171208DF83A007F1C11A89F
:1005A000B0603A781046253825D01C3875D0001F29
:1005B000022872D9133800F09C8009386DD0801E53
:1005C00000F03781401E00F0DD80401E022864D913
:1005D000001F00F0D780401F34D0401E00F08980FB
:1005E000401E24D0C01E0CD0801E00F08280C01E91
:1005F00000F07F8026E1F068411CF1602521015563
:100600002AE12868011D296000687060B26A002A2A
:1006100003D500F0C6FD30611EE1002100F0CEFDE3
:1006200000281ABF7168401AB06A306114E1286866
:10063000011D296000680021CDE9000111A870604A
:100640007821F2E09DF83A00622818D0682806D098
:100650006A280BD06C2819D0712807D016E02868BA
:10066000011D2960716A00680180F5E02A68101D8B
:100670002860706AC1171268C2E90001ECE02868BE
:10068000011D2960716A00680170E5E02868011D9C
:100690002960716A00680160DEE02868C01D20F0F2
:1006A00007002860034603F108002860D3E9000131
:1006B000CDE90001002904D5F068411CF1602D212D
:1006C0000DE0308E810704D5F068411CF1602B21CC
:1006D00005E0C00704D5F068411CF16020210155F8
:1006E000F06811A940187060114600A800F0D8F910
:1006F000B2E09DF83A306C2B08BF286811D0712BFE
:1007000008BF286802D06A2B28680AD1C01D20F0D3
:100710000700286084460CF108002860DCE900012D
:1007200003E0011D296000680021CDE90001682B6C
:1007300004BFDDE9000180B20BD0622B04BFDDE90C
:100740000001C0B205D0742B18BF7A2B04D1DDE9AB
:1007500000010021CDE9000196F8300000075FD5C7
:10076000DDE90001002908BF002859D042F020002F
:10077000782855D1F06830210155401C411CF160AA
:1007800002554DE09DF83A0062280CD0682810D040
:100790006A281AD06C2824D0712816D0742820D04A
:1007A0007A280CD01DE02868011D296090F900000E
:1007B0001BE02868011D2960B0F9000015E02868D9
:1007C000011D29600068002110E02868C01D20F08C
:1007D00007002860034603F108002860D3E9000100
:1007E00004E02868011D29600068C117CDE90001F7
:1007F000DDE90001002904DAF068411CF1602D21D7
:100800000DE0308E810704D5F068411CF1602B218A
:1008100005E0C00704D5F068411CF16020210155B6
:10082000F06811A940187060114600A800F0A5F802
:1008300012E0F068411CF16029680A1D2A6009680D
:10084000015509E0F068411CF160252101551AB1FC
:10085000F068411CF16002557F1CF06AF168401A93
:10086000B169401A3169401AF169401A7169401A38
:10087000316AA0EB010A96F83000400711D420201D
:100880008DF84000BAF1010F0BDBD346012310AA0B
:1008900000A9404600F044FC002869D1BBF1010BDF
:1008A000F4D1F36811AA00A9404600F039FC0028F1
:1008B0005ED130208DF84000D6F818B0BBF1010FA2
:1008C0000ADB012310AA00A9404600F029FC0028F9
:1008D0004ED1BBF1010BF4D13369726800A94046D7
:1008E00000F01EFC002843D130208DF84000D6F8DF
:1008F0001CB0BBF1010F09DB012310AA00A940467F
:1009000000F00EFCA0BBBBF1010BF5D1736930699F
:100910007168421800A9404600F002FC40BB30203C
:100920008DF84000D6F820B0BBF1010F09DB0123A0
:1009300010AA00A9404600F0F3FBC8B9BBF1010BB7
:10094000F5D196F8300040077FF599AD20208DF85D
:100950004000BAF1010FFFF692AD012310AA00A9E1
:10096000404600F0DDFB18B9BAF1010AF5D186E581
:100970004FF0FF3021B0BDE8F08F2DE9FA4B86B083
:1009800005462F696F2908BF082605D041F02000D1
:10099000782814BF0A2610263C24D5E90001814698
:1009A0008B469DF81820642A18BF692A05D10029B2
:1009B00003DAD9F100096BEB4B0BBBF1000F08BF59
:1009C000B9F1000F0CD1286B50B9082E44D195F81D
:1009D0003800000740D53B24302087F83B003BE03F
:1009E000A4F101084446F017CDE904604846594691
:1009F000DDE9042300F00EFCCDE90201CDE9009B06
:100A0000DDE90223DDE90401A0FB029BDDE9000131
:100A1000A0EB09003030C0B23A2803D39DF818107B
:100A20005139081808F80700DDE9029BBBF1000FF7
:100A300008BFB9F1000F03D0E868E1198842CFD3AD
:100A4000082E09D195F83800000705D5E05D30285B
:100A500002D0641E3020E055C4F13C00A861E119C9
:100A6000E960296B884207DA081A2862288F4FF656
:100A7000EF710840288710E000290ED595F838104E
:100A800001F01401102908D1696B6A69891A2A6A70
:100A9000891A0C1A012CA8BF2C6208B0BDE8F08B93
:100AA0002DE9F24F8EB0054604AFD5E90001CDE93E
:100AB00002019DF8380040F020008DF80000612808
:100AC0000BD0286B002848BF062005D404BF9DF832
:100AD0000000672801D1012028636968C1F30A502A
:100AE00040F2FF7398421CD1080304BF2868002815
:100AF00009D10320A8619DF8380061381A2837D33E
:100B00000FF2606108E00320A8619DF838006138A9
:100B10001A282AD30FF244610322E86800F0F6FB9A
:100B2000BBE1010017D1284600F02BFC012812DBA5
:100B3000002400209DF80010612920D1E9683022AE
:100B400001F8012B4A1CEA609DF83820612A0CBF8D
:100B5000782258220FE040F2FE316A6861F31E529B
:100B60006A60441A4FF0FF30E4E70FF2EC51D3E72C
:100B70000FF2EC51D0E70A706969891C696110B9FC
:100B80000026B0467FE19DF80000612840F0978084
:100B9000286B00284CBF2126461C36B2771CD5E9AD
:100BA00000ABDDE902010022002300F00DFC3ABF9A
:100BB0008BF00040CDE902A0CDE902ABA4F104081E
:100BC0008DF810200DF11109012F33DBDDE9020151
:100BD0000022002300F010FC2CD21C2102A800F0FF
:100BE00023FCDDE9020100F0ADFC0446FF1F012FEC
:100BF00009DB00F0D3FC02460B46DDE9020100F000
:100C0000E5FCCDE9020109F20700072104E004F048
:100C10000F0200F8012D2411012C01DB491EF6D52D
:100C2000491E5CBF002200F8012DF9D500F207092A
:100C3000012FCBDA0DF11100A9EB00010DF1110725
:100C4000B142B8BF0E4636B2002E31D4304688428B
:100C500006DA04A941184978082928BF0F2100D2D3
:100C6000002104AA821800E0761E401E12F8013905
:100C70008B42F9D00F2904D104A941184A78521C9B
:100C80004A70002803D504AF761C08F1040836B278
:100C9000701E0DD4C1190A783032D2B23A2A03D369
:100CA0009DF838303A3B9A1801F80129401EF2D5D8
:100CB000286B002840F1E780701E2863E3E0DDE93F
:100CC00002010022002300F07FFB05D2DDE90201D2
:100CD00081F00041CDE9020124B247F29750604310
:100CE0006F4990FBF1F80FFA88F8C8F10704002764
:100CF000DFF8B091012C19DBDDE902ABE00707D585
:100D0000504659463A464B4600F020FD82468B46F7
:100D10006410384649463A464B4600F017FD0746F0
:100D20008946002CEAD1CDE902AB21E0644292462B
:100D3000DFF874B114D0E00707D5504659463A465B
:100D40004B4600F003FD82468B4664103846494608
:100D50003A464B4600F0FAFC07468946002CEAD199
:100D6000DDE9020152465B4600F0C2FDCDE9020119
:100D70009DF8000066280CBF08F10A000620296BC8
:100D80004618142EA8BF132630208DF810000DF140
:100D90001104464F012E33DBDDE9020100F0E8FBD0
:100DA00004F1080104220A24B0FBF4F303EB830EE0
:100DB000A0EB4E00303001F8010DB3FBF4F000EB76
:100DC0008004A3EB4403303301F8013D521EEAD105
:100DD00001F10804083E012EDCDBDDE9020100F030
:100DE000C7FB00F0E5FB02460B46DDE9020100F01F
:100DF000EDFB00223B4600F0A9FCCDE90201CBE768
:100E00000DF11100201A0DF111079DF81110302974
:100E100006D1401EA8F1010817F8011F3029F8D0AB
:100E20009DF80010662904BF0FFA88F808F1010147
:100E300003D065290CBF012100212A6B8E1836B220
:100E4000B042B8BF064636B2002E1CD431468142AD
:100E500004DAC85D352828BF392000D23020CA19ED
:100E6000521E00E0761E491E12F801398342F9D065
:100E7000392802D1C85D401CC855002903D57F1E02
:100E8000761C08F101080FFA88F0009033B23A4658
:100E90009DF83810284600F00BF80FB0BDE8F08F31
:100EA000A0860100000024400000F03F84D7974155
:100EB0002DE9F04385B00546894617461E46BDF923
:100EC0003040D5F83080012E02DA01260FF2982743
:100ED00049F0200066280AD0672840F086806FF02D
:100EE00003018C42C0F28780444580F28480641CF8
:100EF00066280CD095F83800000702D44645B8BFE4
:100F0000B04624B2B8EB040848BF4FF00008E868C8
:100F1000A96924B2012C25DA4A1C30230B54B8F1FC
:100F2000010F03DA95F83810090702D52E21115464
:100F3000521CAA6118EB040FB8BFC8F1000424B218
:100F400061426962A044B045B8BF464636B2EE6120
:100F500032463946AB69181800F0D8F9A8EB0600FC
:100F6000A862C6E00818A64218DA3246394600F0F0
:100F7000CDF9A9697118A961A01B6862B8F1010FC8
:100F800003DA95F83800000705D5E8682E220A54E0
:100F9000E869401CE861C5F82880AAE02246394685
:100FA00000F0B4F9A8692018A861361BB8F1010F48
:100FB00003DA95F83810090704D5411CA961E968DE
:100FC0002E22425436B2B045B8BF464636B23246FB
:100FD000E119A869EB68C01800F098F9A869301801
:100FE000A861A8EB0600686283E0B9F1610F16D131
:100FF0004FF0700918E0464504DA95F838100907F3
:1010000058BFB046B8F1010848BF4FF00008B9F129
:10101000670F14BF4FF045094FF0650904E0B9F1BF
:10102000410F08BF4FF05009A9694A1CE86817F83A
:10103000013B0B54B8F1010F03DA95F8381009079A
:1010400002D52E211154521CAA61B8F1010F11DBF7
:10105000761E36B2B045B8BF464636B2324639463D
:10106000AB69181800F052F9A8693018A861A8EB0C
:1010700006006862A869E968471807F8019B002C18
:101080005CBF2B2007F8010B03D52D2007F8010BBF
:10109000644200260DF1080824B2012C0EDB0A225E
:1010A000214600A800F047FD019808F8010B009CBC
:1010B000761C24B2012CF2DA022E06DA49F0200066
:1010C000652804BF302007F8010B1EB9302007F84F
:1010D000010B09E0012E07DB761E02A8305C3030E0
:1010E00007F8010B012EF7DAA869E9684018381AE9
:1010F000E86195F8380000F0140010280DD16869F7
:10110000A9690818696A0818E9690818A96A081815
:10111000696B8842BCBF081A286205B0BDE8F0833D
:10112000F8B504460D4616461F46002077B116F85E
:10113000011BA868A047A86030B1E86A401CE862BB
:1011400000207F1EF3D1F2BD4FF0FF30F2BD000052
:10115000686A6C747A4C00006E616E004E414E00FD
:10116000696E6600494E4600300050F8041B61B1BC
:1011700050F8042BD30744BFA9F101039A180023A8
:1011800042F8043B091FFAD1EFE770470278C9B271
:101190008A421AB11CBF10F8012FF9E718BF0020CE
:1011A00070470021002802D1002006E0491C0200FF
:1011B000501C1278002AF9D108007047C9B2830781
:1011C00006D0521E22D310F8013B9942F7D11FE0FE
:1011D000083A13D302F1040241EA012141EA014134
:1011E00050F8043B121F21BF4B40A3F1013C2CEAF5
:1011F000030C1CF0803FF3D0C9B2001F083210F876
:10120000013B521E28BF91EA030FF8D818BF0120F6
:10121000401E70471B4213D1094236D12AB1844681
:10122000B0FBF2F002FB10C2704700F08BBCFCD3A5
:101230000022002370470B000200002100207047AD
:10124000904271EB030CF6D370B5B1FA81F4B3FAA6
:1012500083F52C1BA340C4F1200532FA05F6334375
:10126000A2405FF00046E64002E05B085FEA32021F
:10127000841A71EB030524BF204629467641F4D336
:1012800002000B003000002170BD012ACFD970B5DB
:10129000140C20D0B1FA81F4B2FA82F5C4F1200422
:1012A0006419B4F12006D6D3B2405FF00044F44094
:1012B000002502E052085FEA3303C61A71EB020E02
:1012C00024BF3046714664416D41F3D302000B00E8
:1012D0002000290070BD0C46B1FBF2F102FB114564
:1012E0002D0445EA1045B5FBF2F402FB145580B21B
:1012F00040EA0545B5FBF2F002FB105240EA04401B
:1013000070BD0268531C03601170704762B38B0795
:1013100008D0521E11F8013B00F8013B00F0248078
:101320008B07F6D1830740F0208000BF103A07D327
:1013300030B4B1E83810103AA0E83810F9D230BC17
:10134000530724BFB1E80810A0E8081044BF51F8C3
:10135000043B40F8043BD20724BF31F8022B20F8AD
:10136000022B44BF0B7803707047083A07D3B1E8EB
:101370000810083A40F8043B40F804CBF7D2530772
:10138000E4E730B4416801F00042012143681B03E7
:101390001B0B436004BF0368002B0ED00368446836
:1013A000DD0F45EA440444605B000360491EE3022C
:1013B000F4D543681B031B0B436043681A43426028
:1013C000084630BC704700004FF4001C1CEB410F76
:1013D00094BF1CEB430F09E041EA030C50EA4C0CAC
:1013E00052EA0C0C03D2994208BF9042704714BFD6
:1013F0008B428242704700004FF4001C1CEB410FEF
:1014000094BF1CEB430F09E041EA030C50EA4C0C7B
:1014100052EA0C0C03D28B4208BF8242704714BFC1
:10142000994290427047000070B504460D466068CE
:10143000C0F30A5040F2FF72904207D16068000387
:1014400004BF2068002818D0022070BD010004D11C
:101450002046FFF796FF012867DA012D0FDB40F2E7
:10146000FF71091A8D420AD36068002847BF002027
:101470002F4900202F49C4E90001012070BD4142DD
:10148000A942616806DA2C4A1140401941EA00502D
:10149000606053E001F0004162681203120B42F4F5
:1014A00080126260401E451905F13500352803D3CE
:1014B00061600020206070BD002215F11F0F05DA69
:1014C000203522686068206000206060684213D088
:1014D000521E9241D243C0F1200325689D4055EA37
:1014E000D2722568C540666806FA03F32B43236071
:1014F000636823FA00F06060606808436060B2F1DE
:10150000004F03D80BD12078C00708D52068401CB5
:101510002060206818B96068401C60600EE0606858
:10152000884204BF20680028F8D1002070BD000068
:101530000000F0FF0000F07FFFFF0F804FF0FF3052
:1015400070BD0000F446400D40EAC120490006D2BB
:1015500000F014F8004248BF6FF00040604700F010
:101560000DF84FF0004188428CBF0846404260476A
:10157000400D40EAC120490080F00D8040F000405D
:10158000490DA1F58061491C05D4D1F11F0154BF5B
:10159000C840C01770474FF000007047010040F18D
:1015A0000980F446404200F005F851F000416047E0
:1015B000010000BF09D0B0FA80F18840C91CC1F514
:1015C0008461090501EBD0214005704770B44FF0EC
:1015D000004591EA030F44BF6B4000F0BFBA00BF63
:1015E000841A71EB030604D26E40001BB14112193C
:1015F00073414FF4001C1CEB410F34BF7CEB4306DE
:1016000084E00C0DA4EB1356362E7DDC012E43DC5A
:1016100045EAC32343EA525312BFD20292025B0847
:10162000240545EAC12141EA5051D2EBC02099413D
:1016300025D407D1B0FA80F610FA06F164D0002064
:10164000203608E0B1FA81F6B140C6F1200220FA56
:1016500002F21143B0404FEAF474B4EB465434F054
:1016600001064FEA74040AD8D6F50016760D04F088
:101670000044F04061FA06F25040F1404840C00A90
:1016800040EA415021F0004128BF5FEA500550F187
:10169000000044EBD12137E045EAC323DB0A45EAE9
:1016A000C121C90AB6F120050EDD42EA0242120C40
:1016B000C5F1200603FA06F6EB4042EA06056D4244
:1016C000984161F100010DE062FA06F5F2405540E3
:1016D00063FA06FC82EA0C02F3405A406D429041E4
:1016E00061EB030111F4801F05D1641E620502D075
:1016F0006D004041494121F48011430875F10043D8
:1017000050F1000041EB045170BC70471CEB410FDD
:1017100015D223F0004352EA43060BD04FEA4C0C9B
:10172000BCEB410F04D80C0D661E342EB7DDEBE781
:10173000801A994150EA410608BF0021E4E708BF3A
:101740001CEB430F28BF6FF00001DDE7B0B581EA65
:10175000030C0CF0004C40F2FF7515EA11541DBF4C
:1017600015EA1357AC42AF4239E0E41923EA455376
:1017700043F48013C90241F0004141EA505EC702C0
:101780001100A7FB020200284FF00000EEFB012031
:101790004FF00001E3FB072118BF42F0010240189F
:1017A00000214941E3FB0E01A4F580640F0302D23E
:1017B00052004041494154F101046CDD470872F187
:1017C000004250F1000051EB0451A1F580115CBFC3
:1017D00041EA0C01B0BD4CEA05510020B0BD05EA5C
:1017E0001357AC4214BFAF4241E050EA410E1CBF58
:1017F00052EA430E02E061460020B0BD24423C4460
:101800001BD15FEA070EF6D0090302BF0146002094
:10181000AEF1140EB1FA81F7AEEB070401FA07FE40
:101820000C37C7F1200100FA07F7C8404EEA000E56
:1018300023EA455343F48013A2E733F00043B3FA9D
:1018400083F704BFB2FA82FE77440B3FE41BB7F183
:10185000200E2FBF02FA0EF3BB40C7F1200E22FA72
:101860000EFE38BF43EA0E03BA40641C82E750EA1A
:10187000410E14BF52EA430E6FF000014FF40017FF
:1018800017EB430F8ABF194617EB410FB5E74CEA38
:1018900005510020B0BDD4F10104B4F120070FDAE6
:1018A000C4F12007520828BF42F0010210FA07F5E0
:1018B00001FA07F7E1BF2A43E0403843E1400FE077
:1018C000352C98DCC7F1200452EA400220FA07F2D6
:1018D00018BF42F0010231FA07F0A1400A4300218B
:1018E00072F1004250F1000051EB0C01B0BD00005C
:1018F000F0B540F2FF7581EA030C0CF0004C15EADC
:1019000011541DBF15EA1357AC42AF42E5E0BC418C
:10191000C1F31301C3F31303801A994143F48013F5
:1019200004D2641E4000494180185941C90241EA6D
:101930005051B1FBF3F603FB1611A2FB0675D7EB72
:10194000C020A94102D2761E80185941C90241EA3D
:101950005051B1FBF3FE03FB1E11A2FB0E75D7EB3A
:10196000C020A94103D2AEF1010E8018594189026D
:1019700041EA9051760546EA8E2EB1FBF3F603FB61
:101980001611A2FB0675D7EB8020A94102D2761E64
:1019900080185941C90241EA50514EEA060EB1FB86
:1019A000F3F603FB1611A2FB0675D7EBC020A94185
:1019B00002D2761E80185941C90241EA5051B1FB4A
:1019C000F3F703FB1711A2FB0735D3EBC020A941A6
:1019D00067F100070CBF004247F0010766F3D52707
:1019E0004FEA1E31B80814F5806412DDBD0775F1A9
:1019F000004250EB0E5051EB045111F5801F5CBFBB
:101A000041EA0C01F0BD4CF07F6141F0E041002063
:101A1000F0BDBD076D0840EA0E5041F48011D4F1CD
:101A20000104B4F120060ADAC4F120060200E04005
:101A300001FA06F3E1401843B24015430EE0342C9E
:101A400013DCC6F1200445EA40056D0820FA06F2D1
:101A5000154321FA06F0A1400D43002175F1004223
:101A600050F1000051EB0C01F0BD00205FEA0C01C9
:101A7000F0BDCFB992185B41B3FA83F704BFB2FA55
:101A800082F6BF190B3FB7F120062FBF02FA06F30B
:101A9000BB40C7F1200622FA06F638BF3343BA40EE
:101AA0001CB1E419641E33E77F4231F00041B1FA02
:101AB00081F404BFB0FA80F6A4190B3CB4F12006FF
:101AC0002FBF00FA06F1A140C4F1200620FA06F665
:101AD00038BF3143A0403C1B1AE7AC421ABF05EAAD
:101AE0001357AF4212E050EA41061CBF52EA4306C8
:101AF000BFE750EA4107304661461CBF41EA055145
:101B0000F0BD52EA430C08BFC143F0BD00204FF4C2
:101B1000001616EB410F98BF16EB430F08BF16EBEC
:101B2000410F24BFC14305E016EB430F0CBF6146D4
:101B30004CEA0551F0BD91FBF2F303FB1211C0E931
:101B4000003170477047000070B44FF0004591EAD3
:101B5000030C44BF6B40FFF743BD00BF841A71EB19
:101B6000030603D2001BB141121973414FF4001C4C
:101B70001CEB410F34BF7CEB430443E00C0DA4EBA2
:101B80001356352E50DC45EAC323DB0A45EAC12152
:101B9000C912B6F120050DDD63FA05F6EB4086EAC1
:101BA0000305124218BF45F00105C01851F10001AC
:101BB0000CD213E062FA06F5F2405540F3415A4068
:101BC000B340F3405A408018594107D349085FEAAF
:101BD00030005FEA350528BF45F0010501F58011A9
:101BE000420875F1004250F1000041EB045170BC15
:101BF0004FF4001C1CEB410F38BF70470020090D4B
:101C0000090570471CEB410F10D252EA43060BD076
:101C1000BCEB410F05D80C0DAB43661E342EB5DD71
:101C200002E0AB438018594170BC704770BC7047EC
:101C300010B50C001168012902D0022904D009E076
:101C4000C0B25168884705E0916808709068401CF0
:101C50009060FFE72068401C206010BD30B41C007D
:101C6000002300250570401C002A19D009680029AE
:101C70000AD1302101705B1C180030BC7047303530
:101C800011000570401C5B1C0029F5D091FBF4F29B
:101C900004FB1215002DF2D5E94311F13105EFE7F0
:101CA0000968002908D1302101705B1CE4E7373551
:101CB00011000570401C5B1C0029DDD0B1FBF4F263
:101CC00004FB12150A2DF2D23035F1E7F8B5040005
:101CD0000D0016001F0005E03A0031003020FFF72C
:101CE000A7FF641CAC42F7DBF1BDF8B504000D00A2
:101CF00016001F0005E03A0031002020FFF798FF92
:101D0000641CAC42F7DBF1BD2DE9F04F8DB005004E
:101D10001600002000900C0005E02A0000A9180021
:101D2000FFF786FF641C2378002B00F0CE81252B63
:101D300012D00A2B05D02A0000A91800FFF778FF5F
:101D400009E02A0000A90D20FFF772FF2A0000A970
:101D50000A20FFF76DFFE5E70027002101E057F0BB
:101D6000010700291BD1641C207820280BD02328D0
:101D70000FD02B2804D02D28F1D0302806D00BE02E
:101D800057F00207EDE757F00407EAE757F00807B6
:101D9000E7E757F01007E4E7641E0121E1E75FF091
:101DA0000008002104E00A2000FB0830B0F13008F0
:101DB000002908D1641C2378180030380928F2D98A
:101DC000641E0121F4E7641C20782E280BD1002129
:101DD000FFE7002908D1641C207830380928F8D999
:101DE000641E0121F5E7641E641C20784C2806D08F
:101DF000682802D06C2801D002E002E001E000E097
:101E0000641E641C23781800582878D0622800F0DB
:101E1000DA80632800F02481642813D0692811D067
:101E20006E2800F04D816F2800F0C280702800F00D
:101E3000D580732800F01B81752800F0DA8078289F
:101E40005DD06AE730680390361D0A23012203A99A
:101E500004A8FFF703FF824604A81AEB00090398C1
:101E6000002804D52D2002901AF1010A11E0380053
:101E7000800704D52B2002901AF1010A09E03800EE
:101E8000400704D5202002901AF1010A01E0002049
:101E900002905FF0000B3800000711D5029800286F
:101EA00004D02A0000A90298FFF7C2FE5FF0010BE0
:101EB0002B0000AA41465046FFF708FFC24612E039
:101EC0003800C0070FD42B0000AA41465046FFF748
:101ED0000CFF0298002804D02A0000A90298FFF7FE
:101EE000A7FE5FF0010BBBF1000F07D1029800289D
:101EF00004D02A0000A90298FFF79AFEA3E03068F8
:101F00000190361D1023002201A904A8FFF7A6FEA8
:101F1000824604A81AEB00095FF0000B38000007A6
:101F200016D53800C0060BD52A0000A93020FFF7CF
:101F30007FFE2A0000A97820FFF77AFE5FF0010BF0
:101F40002B0000AA41465046FFF7C0FEC2461CE0E7
:101F50003800C00719D43800C00601D51AF1020AAA
:101F60002B0000AA41465046FFF7BFFE3800C006CE
:101F70000BD52A0000A93020FFF75AFE2A0000A93D
:101F80007820FFF755FE5FF0010B3800C0060ED534
:101F9000BBF1000F0BD12A0000A93020FFF748FE4B
:101FA0002A0000A97820FFF743FE1AF1020A4AE04E
:101FB00030680190361D0823002201A904A8FFF70C
:101FC0004DFE82461FE030680190361D022300223C
:101FD00001A904A8FFF742FE824614E03068019090
:101FE000361D1023002201A904A8FFF737FE824600
:101FF00009E030680190361D0A23002201A904A8D7
:10200000FFF72CFE824604A81AEB000938000007EF
:1020100007D52B0000AA41465046FFF757FEC2469F
:1020200011E03800C0070ED42B0000AA41465046EC
:10203000FFF75BFE07E02A0000A999F80000FFF710
:10204000F7FDB9F1010999F800000028F3D1F8076C
:1020500005D52B0000AA41465046FFF746FE61E633
:102060003078361D2A0000A9FFF7E2FD5AE6D6F8BF
:102070000090361DB9F1000F21D04846FFF791F8C6
:1020800082463800C0070ED42B0000AA41465046B5
:10209000FFF72BFE07E02A0000A999F80000FFF7E0
:1020A000C7FD19F1010999F800000028F3D1F807DC
:1020B00005D52B0000AA41465046FFF716FE31E633
:1020C0003068361D009901602CE600980DB0BDE81F
:1020D000F08F0EB400B584B0012100910449019144
:1020E00005AA010000A8FFF70FFE04B05DF810FB81
:1020F00069380000BB4909684CF25132914201D263
:10210000002107E0B7490968B74A914201D201218D
:1021100000E00221C0B200280ED1B44A126852F089
:102120004002B24B1A60B24A4FF400731360B14AD6
:102130004FF4007313600DE0AC4A126852F0800255
:10214000AA4B1A60AC4A4FF400731360AB4A4FF4C9
:1021500000731360C0B2AA4A52F82020890151F0DE
:1021600011015170C0B2A64951F820008021817040
:10217000704752EA4101C0B2A14A52F82020927839
:1021800052F01002C0B29E4B53F820309A70C0B289
:102190009B4A52F82020927852F02002C0B2984B0D
:1021A00053F820309A70C0B2954A52F8200001715D
:1021B00070470000012001E000BF401C4CF250318C
:1021C00080B28842F8D3704770B504000D00160045
:1021D00000222900C9B22000C0B2FFF7CAFFE4B252
:1021E000874850F82400C0788007F8D5E4B28448C6
:1021F00050F82400C07850F00200E4B2804951F851
:102200002410C870E4B27E4850F824000671E4B28D
:102210007B4850F82400C0788007F8D5E4B27848AD
:1022200050F82400C07850F00200E4B2744951F82C
:102230002410C870E4B2724850F82400807850F03E
:102240000400E4B26E4951F824108870E4B26C487E
:1022500050F82400690051F001010171E4B26848AE
:1022600050F82400C0788007F8D5E4B2644850F8EC
:102270002400C07850F00200E4B2614951F8241003
:10228000C870E4B25E4850F82400807810F0EF0087
:10229000E4B25B4951F824108870E4B2584850F811
:1022A0002400807850F00800E4B2554951F8241019
:1022B000887054480078E4B2514850F82400C0783F
:1022C0008007F8D5E4B24E4850F82400C07850F0AA
:1022D0000200E4B24A4951F82410C870E4B24848F8
:1022E00050F82400807810F0DF00E4B2444951F83F
:1022F00024108870E4B2424850F82400807810F02E
:10230000EF00E4B23E4951F8241088703D4800784F
:10231000C0B270BD70B5040015001E000022C9B225
:102320002000C0B2FFF725FFE4B2354850F8240082
:10233000C0788007F8D5E4B2314850F82400C0785E
:1023400050F00200E4B22E4951F82410C870E4B2F3
:102350002B4850F824000571E4B2294850F82400B5
:10236000C0788007F8D5E4B2254850F82400C0783A
:1023700050F00200E4B2224951F82410C870E4B2CF
:102380001F4850F824000671E4B21D4850F824009C
:10239000C0788007F8D5E4B2194850F82400C07816
:1023A00050F00200E4B2164951F82410C870E4B2AB
:1023B000134850F82400807810F0DF00E4B2104990
:1023C00051F824108870E4B20D4850F82400807849
:1023D00010F0EF00E4B20A4951F824108870FFF7BA
:1023E000E9FE70BD4C85FF1FA186010034800440CA
:1023F00008A004400CA0044028B004402CB00440C5
:102400003884FF1F04600640DFF800F06184FF1F7E
:1024100010B5C0B2002800F01481C0B2010030290C
:102420001ED032292CD0602931D0642936D06E29B3
:102430003BD0782940D07D2945D082294AD08C29AB
:102440004FD0962954D0A02959D0AA295ED0B429BA
:1024500063D0C82968D0E1296DD0FA2972D078E01C
:10246000A64918220A70A54900224A70A3490022F1
:102470008A70C0B2652870D2A0490022CA708CE070
:102480009E4918220A709D4901224A70EEE79B4935
:1024900018220A70994918224A70E7E797491822CA
:1024A0000A7096491A224A70E0E7944918220A7085
:1024B00092491F224A70D9E7904913220A708F4926
:1024C00018224A70D2E78D4913220A708B491A22CA
:1024D0004A70CBE7894913220A7088491C224A7046
:1024E000C4E786490E220A70844912224A70BDE769
:1024F00082490E220A70814915224A70B6E77F4947
:102500000E220A707D4918224A70AFE77B490E22DD
:102510000A707A491B224A70A8E778490E220A708D
:1025200076491E224A70A1E774490C220A70734949
:102530001C224A709AE771490B220A706F491E22C9
:102540004A7093E76D490A220A706C491F224A704B
:102550008CE76420FFF75CFFCEE0C0B2C92803D24D
:1025600066490122CA7018E00100C9B240F22D127A
:1025700089B2914203D261490222CA700DE0010082
:10258000C9B240F2911289B2914203D25B4903224F
:10259000CA7002E059490F22CA705849574AD27886
:1025A0000A71C0B21F2803D254480021417148E08B
:1025B000C0B23D2803D251480121417141E0C0B26F
:1025C0005B2803D24D48022141713AE0C0B279281C
:1025D00003D24A480321417133E0C0B2972803D2A5
:1025E0004648042141712CE0C0B2B52803D24348CB
:1025F0000521417125E0C0B2D32803D23F4806210E
:1026000041711EE0C0B2F12803D23C48072141715C
:1026100017E00100C9B240F20F1289B2914203D211
:102620003648082141710CE0C0B240F22D1180B251
:10263000884203D231480921417102E02F480F211D
:1026400041712E484078183080B2322148432B49DE
:102650000978491C89B290FBF1F4294800210170E6
:102660002848006850F080502649086026480078C5
:1026700050F08000244908702448982101702448B3
:102680000078C006FBD422480078C0F38100C0B2B5
:102690000228F8D11948007810F01F001D49087071
:1026A0001D480021017015484379144802791348E8
:1026B000C17812488078FFF7A7FE1048407810F0E4
:1026C0001F0050F04000144908701148007880063F
:1026D000FBD50F4800784006FBD50C48007810F079
:1026E0003F000A4908700A480078C0F38100C0B270
:1026F0000328F8D12000C0B210BD00BF4084FF1FE6
:10270000014006403480044008C0074000400640B5
:1027100006400640044006400540064038B5040027
:102720000D00E4B2002C08D0022C24D014D3042CC9
:102730003FD02FD3052C4BD059E03321814800F0F6
:1027400021F93E217F4800F01DF97F48006850F4D0
:1027500080607D4908604AE07C484FF44071016028
:102760007B484FF4407101607748006850F4006086
:10277000754908603BE077484FF440710160764846
:102780004FF4407101607048006850F480506E4909
:1027900008602CE071484FF44071016070484FF4BC
:1027A000407101606848006850F400506649086054
:1027B0001DE06C484FF4407101606B484FF440716C
:1027C00001606A48006850F48060684908600EE063
:1027D00067484FF44071016066484FF440710160F2
:1027E0006248006850F4006060490860FFE7E4B2A6
:1027F000614850F82400C07810F0F300E4B25E495C
:1028000051F82410C870E4B25B4850F8240000214D
:102810008170E4B2002C08D00020E4B2012C04D076
:1028200050F00000C0B2002805D0544800684FF4B2
:102830007A71484304E0524800684FF47A71484383
:102840002901B0FBF1F1E4B24B4A52F8242012788E
:1028500012F0E00289B20B0A13F01F031A43E4B22C
:10286000454B53F824301A70E4B2434A52F82420FE
:10287000517040012A01B0FBF2F089B2B0EB411077
:10288000E4B23D4951F82410897A11F0E002E4B233
:10289000394951F8241010F01F0010438872E4B237
:1028A000354850F82400C07850F00C00E4B23249AA
:1028B00051F82410C87031BD0022521C0F2A0ED2CC
:1028C000C0B22D4B53F820301B799B06F5D5C0B212
:1028D000294A52F82000C0790870012002E0002047
:1028E00008700020704770B504000D0000267119B3
:1028F0002000C0B2FFF7E0FF761CC0B20028F6D17E
:10290000022E01D2002000E00120C0B270BDC0B292
:10291000194A52F8202012791206F8D5C0B2164A88
:1029200052F82000C171704738B504000D0005E071
:1029300029782000C0B2FFF7EAFF6D1C2878002834
:10294000F6D131BD38360000348004400CB004406C
:1029500010B004400CC0044008C0044040B0044023
:1029600044B0044064D0044060D004402880044057
:1029700024D0044020D004404884FF1F4485FF1F1A
:102980004C85FF1F80B500F003F800F02BF8FCE742
:1029900080B5012301221821042000F053F80123FF
:1029A00001221921042000F04DF8012301221A21EF
:1029B000042000F047F8012301221B21042000F02D
:1029C00041F801BD1E4A12691268012383409A43EF
:1029D000C9B211F0010111FA00F010431849096958
:1029E0000860704710B5012301221821042000F06F
:1029F00029F8012301221921042000F023F80123E2
:102A000001221A21042000F01DF8012301221B21BC
:102A1000042000F017F818240DE000212000C0B2B7
:102A2000FFF7D0FF642000F0C5F801212000C0B2FC
:102A3000FFF7C8FF641CE4B21C2CEED310BD0000ED
:102A40001084FF1FF8B504000D0017001E00EDB242
:102A5000202D02D2F6B2022E03D324215248FFF7D2
:102A600091FFEDB2E4B2514850F824004FF4807168
:102A700040F82510F80705D5FFB2032F02D0FFB2AA
:102A8000132F0DD1E4B24A4850F8240040690121C7
:102A9000A9408843E4B2464951F8241048612AE02D
:102AA000E4B2434850F8240040690121A94008439A
:102AB000E4B23F4951F824104861F6B2012E0DD11D
:102AC000E4B23B4850F8240000680121A9400843C3
:102AD000E4B2374951F8241008600CE0E4B23448FD
:102AE00050F8240000680121A9408843E4B230492D
:102AF00051F824100860F1BD70B504000D001600F7
:102B0000EDB2202D02D2F6B2022E03D34B2126487D
:102B1000FFF738FFF6B2012E0DD1E4B2244850F889
:102B2000240000680121A9400843E4B2204951F87B
:102B3000241008600CE0E4B21D4850F8240000683E
:102B40000121A9408843E4B2194951F824100860D2
:102B500070BD38B504000D00EDB2202D03D3602107
:102B60001148FFF70FFFE4B2114850F82400006845
:102B70000121A9404840E4B20D4951F824100860F1
:102B800031BD38B504000D00EDB2202D03D3712105
:102B90000548FFF7F7FEE4B2054850F82400006945
:102BA000E84010F0010032BDF03500002484FF1F22
:102BB0001084FF1F002104E000BF521E002AFBD139
:102BC000491C814202D2024A1268F7E770470000AE
:102BD0004C85FF1F80B50020FFF78CFA10230F22D1
:102BE0001C210020FFF796FB00230E221C21002051
:102BF000FFF790FB01232A221C210020FFF78AFB0C
:102C000001BD80B501221C210020FFF7DDFA6549D6
:102C100008700020FFF7CEFF02221C210020FFF7E2
:102C2000D3FA604948700020FFF7C4FF5D4800F008
:102C300035F85949086003221C210020FFF7C4FA27
:102C4000584908700020FFF7B5FF04221C2100201E
:102C5000FFF7BAFA534948700020FFF7ABFF51481D
:102C600000F01CF84D49086005221C210020FFF7E8
:102C7000ABFA4C4908700020FFF79CFF06221C218C
:102C80000020FFF7A1FA474948700020FFF792FFA4
:102C9000444800F003F84249086001BD70B501786E
:102CA00080290ED35FF0FF3106784278D2B29208C5
:102CB0004270407850EA8616F043401C8604B60CF9
:102CC00008E0012106784278D2B29208427040783A
:102CD00050EA86160800FEF761FC04000D00B6B24B
:102CE000300000F073F800F081F82F4A2F4BFEF708
:102CF0002DFD22002B00FEF729FD00F09FF870BD8E
:102D000080B5264800682449096800F0DFF800F023
:102D10006DF800F059F9264A264BFEF717FD04BD61
:102D200080B5FFF76EFF1C48006800F05FF80200F6
:102D30000B002149214800F097F920490320FFF7B3
:102D4000F3FD1648006800F051F802000B001C4922
:102D50001A4800F089F919490320FFF7E5FD1048EA
:102D6000006800F043F802000B001649134800F019
:102D70007BF912490320FFF7D7FDFFF7C1FF0200DF
:102D80000B0011490D4800F06FF90C490320FFF7C3
:102D9000CBFD01BD00000000AC84FF1FB084FF1F0D
:102DA000B484FF1F5085FF1F011924FFFF7F963F4A
:102DB000B694631ADCA54C40903800005485FF1F80
:102DC00098380000A038000078380000002800BFC4
:102DD0000AD0B0FA80F18840D1F19D01C905020600
:102DE00072F1004241EB1020704700005FF0FF0CD1
:102DF0001CEAD05114BF614506E0C110400721F024
:102E0000E04101F16051704779B900F000410002E2
:102E10000AD0B0FA80FC00FA0CF001F16051A1EB8D
:102E20000C5101EBD0214005704741020CBF40F42A
:102E3000E0016FF000010020704700004FEAF17CD4
:102E4000BCF1E04C2CBFBCF5001F11E05FEA4C0C5C
:102E500034BFBCF17F5F2EE05FEA9C0C4FEA0C1C94
:102E60004FEA3C0CC10071F100414CEB50707047CF
:102E7000C90241EA5051C00218BF41F0010141F0BE
:102E800000414FEA6C50C0F10900212810D240EAFD
:102E9000CC7CCCF1200C11FA0CF070F10040CCF19C
:102EA000200C21FA0CF00CF0004C40EB0C007047A9
:102EB0004FEACC707047490011F5001F04D84FEA63
:102EC000CC10FF30C0057047C817704710B5FF23FE
:102ED00013EAD0541DBF13EAD1529C429A4239E002
:102EE000A41ADA0780EA0103134042EA012142EA08
:102EF0000020421A3CBF641E01EB4202090AB2FBE9
:102F0000F1FE01FB1E221202B2FBF1F001FB1022C6
:102F10006EF30F201202B2FBF1FE4EEA00207F3466
:102F200006DDFE2C24DA53EA500050EBC45010BDED
:102F3000D4F1020401FB1E2240F08071192C1DDC2B
:102F400021FA04F0C4F12004A140114371F10042C0
:102F5000584110BD9C421ABF03EAD1529A420FE079
:102F600080EA010E0EF00043400004D0490016D163
:102F700043F0FF4010BD490008BFD343180010BD07
:102F80009C4205D1D21AF7D001F00041484010BD53
:102F90004A0212BF0846484000F0004010BD4AB93E
:102FA0000902B1FA81F2914044B1A418C00140F085
:102FB00000409EE7C90141F0004152420002B0FAD0
:102FC00080F4A040141B94E713B5DDE90001C1F3C0
:102FD0000A5240F2FF74A24208D0002A04BF09033B
:102FE00050EA11300ED1DDE900011CBD090350EAA1
:102FF0001130F8D101980028174801D517491CBD98
:1030000017491CBDDDE9000100220023FEF7DCF9B1
:1030100007D2DDE9000181F00041CDE9000108247B
:1030200000E00024DDE9000101220E4BFEF7E4F987
:1030300009D800201946DDE90023FEF759FCCDE947
:10304000000184F002042246DDE9000102B0BDE87F
:10305000104000F025B800BF182D4454FB21F9BFE3
:10306000FB21F93F0000F03F0CB41CB5044604A856
:103070000190009401AB0A4600A907487844183033
:10308000FDF7E4F9009900220A7000285CBF00985F
:10309000001B16BC5DF80CFB6BE2FFFF000000009C
:1030A0002DE9FC4D04460D461646554A554BFEF794
:1030B000A3F91CD8544FDFF854813A464346FEF733
:1030C00045FB0022524BFEF73FFD82468B462246CF
:1030D0002B4638464146FEF737FD02460B46504622
:1030E0005946FEF705FC04460D4646F0010620460B
:1030F00029460022474BFEF767F905D301224FF01E
:103100007953FEF779F95DD822462B46FEF71EFB70
:1031100082468B4652465B4620462946FEF716FB02
:10312000074688463C483D4952465B46FEF70EFB43
:103130003B4A3C4BFEF708FD52465B46FEF706FB5A
:10314000394A3A4BFEF700FD3A464346FEF7FEFA8F
:1031500002460B4620462946FEF7F6FC04460D467D
:103160003348344952465B46FEF7F0FA02460B46B6
:1031700031483249FEF7E8FC52465B46FEF7E6FA74
:1031800002460B462E482F49FEF7DEFC52465B46B0
:10319000FEF7DCFA02460B462B482C49FEF7D4FC1E
:1031A00002460B4650465946FEF7D0FA0022284BFD
:1031B000FEF7CAFC02460B4620462946FEF798FB5E
:1031C00004460D46B00748BF85F0004516F00702DB
:1031D0000BD0204629460FF2800303EBC204D4E94A
:1031E0000023FEF7B1FC04460D46300748BF85F0CA
:1031F0000045CDE90045DDE90001BDE8FC8D00009A
:1032000057CD9E5E1426D13FAA4C58E87AB6FB3FB4
:103210000000F0BF000040BE845D57134B57B03F25
:10322000B2934C19ED5EE43FBEDE02B90240F83FB6
:10323000DE39028FC7C0743F8AAB1283000CC83FCF
:1032400024D7E508B6D8F03F0F34580E5895FD3F07
:103250000000F03F0000000000000000000000003F
:1032600066732D3852C1E03F182D4454FB21F93FBD
:1032700066732D3852C1F03F182D4454FB21F93F9D
:1032800066732D3852C10040182D4454FB2109406B
:103290003FD038C6A6F1044080B503210320FFF7D4
:1032A00058FC12210120FFF754FC4F490320FFF77F
:1032B0001AFB012820D14D490320FFF735FB49A116
:1032C0000320FFF731FB4A480121016049480121F1
:1032D0000160494800210180002200210320FFF7FE
:1032E0000BFC002201210320FFF706FC0122132121
:1032F0000220FFF701FC04E0012200210320FFF778
:10330000FBFB0B210020FFF73CFC002805D13A48CD
:1033100000883A493122425404E03748008837494E
:103320003022425434480088142810D130480068B4
:1033300001280CD1002213210220FFF7DDFB3049C8
:103340000320FFF7F1FA27A10320FFF7EDFA2A483F
:103350000088802839D127480068012835D12648BF
:1033600000210180224800210160224800210160E3
:10337000012201210320FFF7BFFB22490320FFF7B1
:10338000D3FA18A10320FFF7CFFA1F490320FFF754
:10339000CBFA14A10320FFF7C7FA1C4800210160F3
:1033A0000BE01A4800681549415C0320FFF7AFFAAB
:1033B00016480068401C15490860144800688028B9
:1033C000EFDB08A10320FFF7AFFA0B480088401C91
:1033D000094908800E48006850F001000C49086057
:1033E00001BD00BF0C0000005585FF1FB83600006E
:1033F0003C85FF1F4085FF1F5285FF1FB884FF1FBC
:103400001C3700009C370000F03700003885FF1F94
:103410000C71034080B51C481C4988420BD0002029
:1034200006E01949194A52F8202041F82020401C92
:10343000B0F5826FF5D3144800F03AF81449154AF4
:103440001548801A03E013780B70521C491C0300C6
:10345000581E002BF7D111491148401A02E00022F2
:103460000A70491C0200501E002AF8D10D490E4A6C
:103470000E48801A03E013780B70521C491C03009D
:10348000581E002BF7D101BD0080FF1F0000000077
:103490001084FF1F54350000A4350000AC84FF1FCA
:1034A0005685FF1F6084FF1FA4350000F035000023
:1034B000014908607047000008ED00E080B51C4835
:1034C000006850F478501A490860C820FEF7A0FF41
:1034D00018490860174800684FF47A714843164944
:1034E00008601548006815490968C1F30361491C63
:1034F000B0FBF1F01249086000F003F800F00CF89E
:1035000001BD1048006850F480500E4908600E4814
:103510004FF4E061016070470C48006850F0010012
:103520000A4908600A484FF4A06101607047000032
:10353000388004404885FF1F4485FF1F44800440B5
:103540004C85FF1F048004401890044040800440D4
:103550000CB0044000F00F4040F00F4080F00F40EE
:10356000C0F00F4000F10F400090044000A0044064
:1035700000B0044000C0044000D004400060064099
:10358000007006400B1F00000009000000A006406C
:1035900000B0064000C0064000D0064000A00E402B
:1035A00000B00E4070B4104C24680F4D2D6855F4D7
:1035B0007F050D4E3560090611F0706151EA00700B
:1035C000110511F470010843190411F47021084326
:1035D00006490860002000E0401CC0B29842FBD3BE
:1035E0000148046070BC704700F001404480044012
:1035F000433A5C55736572735C6A636368696E67AE
:103600005C446F63756D656E74735C47697448756F
:10361000625C555354536D6172746361725C737272
:10362000635C647269766572735C6770696F5C670E
:1036300070696F2E63000000433A5C5573657273C6
:103640005C6A636368696E675C446F63756D656E21
:1036500074735C4769744875625C555354536D616B
:1036600072746361725C7372635C647269766572B2
:10367000735C756172745C756172742E6300000016
:1036800080B500F009F80A4800884FF6FE7108403E
:103690000749088001BD000072B606484CF220516F
:1036A000018004484DF62811018062B67047000081
:1036B000002005400E2005402A2E2A2E2A2E2A20E0
:1036C000534920547269676765722C207269736967
:1036D0006E6720656467652067656E6572617465F5
:1036E00064202A2E2A2E2A2E2A0000000A2A2A2A9C
:1036F0002A64656661756C745F69737220656E74A7
:1037000065726564206F6E20766563746F72202524
:10371000642A2A2A2A2A0D0A0A0000002A2E2A2EA2
:103720002A2E2A205349206661696C696E672065DC
:103730006467652068617070656E6564202A2E2A52
:103740002E2A2E2A0000000010B5084979441C31A9
:10375000074C7C441A34A14206D0081D0A6851184F
:1037600088470146A142F8D110BD00BF54000000B7
:103770006000000080B55FF4E1310320FEF7CEFF6A
:10378000FFF728FA0448FEF7A4FCFFF7C9FA4FF444
:10379000FA70FFF70FFAF8E7083800002A2E2A2EF1
:1037A0002A2E2A205349206C6F636B696E67206D47
:1037B0006F646520656E64202A2E2A2E2A2E2A0028
:1037C000ABD9FFFFAC000000AC84FF1F000000007D
:1037D00080B5FFF7DDF8FFF705F903480178C9B2B6
:1037E0000248FEF776FC01BD04ED00E0EC36000077
:1037F0004A7573742053616D706C656420417272F8
:1038000061792069733A2000457665727974686938
:103810006E6720696E697465642066696E65000074
:103820000120C046002801D0FFF78EFF0020FFF7DF
:10383000A1FF00F000F800F001B80000074638468C
:1038400000F002F8FBE7000001491820ABBEFBE7DF
:103850002600020080B5FFF713FFFFF7DBFDFFF73F
:103860002DFEFFF787FFFEE780B50100C9B20320F8
:10387000FFF74DF801BD00000A74696C74203D200B
:1038800025660000C046C046C046C046FFF7C8FFD8
:103890000A78203D202566000A79203D2025660013
:0838A0000A7A203D2025660094
:04000005000038853A
:00000001FF
