:10000000F87F0020110400005D1E00005D1E00004E
:100010005D1E00005D1E00005D1E00005D1E0000F4
:100020005D1E00005D1E00005D1E00005D1E0000E4
:100030005D1E00005D1E00005D1E00005D1E0000D4
:100040005D1E00005D1E00005D1E00005D1E0000C4
:100050005D1E00005D1E00005D1E00005D1E0000B4
:100060005D1E00005D1E00005D1E00005D1E0000A4
:100070005D1E00005D1E00005D1E00005D1E000094
:100080005D1E00005D1E00005D1E00005D1E000084
:100090005D1E00005D1E00005D1E00005D1E000074
:1000A0005D1E00005D1E00005D1E00005D1E000064
:1000B0005D1E00005D1E00005D1E00005D1E000054
:1000C0005D1E00005D1E00005D1E00005D1E000044
:1000D0005D1E00005D1E00005D1E00005D1E000034
:1000E0005D1E00005D1E00005D1E00005D1E000024
:1000F0005D1E00005D1E00005D1E00005D1E000014
:100100005D1E00005D1E00005D1E00005D1E000003
:100110005D1E00005D1E00005D1E00005D1E0000F3
:100120005D1E00005D1E00005D1E00005D1E0000E3
:100130005D1E00005D1E00005D1E00005D1E0000D3
:100140005D1E00005D1E00005D1E00005D1E0000C3
:100150005D1E00005D1E00005D1E00005D1E0000B3
:100160005D1E00005D1E00005D1E00005D1E0000A3
:100170005D1E00005D1E00005D1E00005D1E000093
:100180005D1E00005D1E00005D1E00005D1E000083
:100190005D1E00005D1E00005D1E00005D1E000073
:1001A000F91900005D1E00005D1E00005D1E0000CC
:1001B0005D1E00005D1E00005D1E00005D1E000053
:1001C0005D1E00005D1E00005D1E00005D1E000043
:1001D0005D1E00005D1E00005D1E00005D1E000033
:1001E0005D1E00005D1E00005D1E00005D1E000023
:10040000FFFFFFFFFFFFFFFFFFFFFFFFFEFFFFFFFD
:1004100062B64FF000004FF000014FF000024FF0C5
:1004200000034FF000044FF000054FF000064FF0BE
:1004300000074FF000084FF000094FF0000A4FF09E
:10044000000B4FF0000C01F033FDFEE710B50C007F
:100450001168012902D0022904D009E0C0B2516814
:10046000884705E0916808709068401C9060FFE73D
:100470002068401C206010BD30B41C000023002503
:100480000570401C002A19D0096800290AD13021C2
:1004900001705B1C180030BC7047303511000570CE
:1004A000401C5B1C0029F5D091FBF4F204FB1215F3
:1004B000002DF2D5E94311F13105EFE70968002974
:1004C00008D1302101705B1CE4E73735110005705D
:1004D000401C5B1C0029DDD0B1FBF4F204FB1215BB
:1004E0000A2DF2D23035F1E7F8B504000D00160000
:1004F0001F0005E03A0031003020FFF7A7FF641C21
:10050000AC42F7DBF1BDF8B504000D0016001F008A
:1005100005E03A0031002020FFF798FF641CAC4250
:10052000F7DBF1BD2DE9F04F8DB00500160000207E
:1005300000900C0005E02A0000A91800FFF786FFD4
:10054000641C2378002B00F0CE81252B12D00A2BBF
:1005500005D02A0000A91800FFF778FF09E02A005B
:1005600000A90D20FFF772FF2A0000A90A20FFF75B
:100570006DFFE5E70027002101E057F001070029A2
:100580001BD1641C207820280BD023280FD02B28C7
:1005900004D02D28F1D0302806D00BE057F0020708
:1005A000EDE757F00407EAE757F00807E7E757F0E9
:1005B0001007E4E7641E0121E1E75FF00008002175
:1005C00004E00A2000FB0830B0F13008002908D10F
:1005D000641C2378180030380928F2D9641E0121E0
:1005E000F4E7641C20782E280BD10021FFE70029B6
:1005F00008D1641C207830380928F8D9641E0121FC
:10060000F5E7641E641C20784C2806D0682802D0C8
:100610006C2801D002E002E001E000E0641E641CEE
:1006200023781800582878D0622800F0DA806328F0
:1006300000F02481642813D0692811D06E2800F0BE
:100640004D816F2800F0C280702800F0D58073289B
:1006500000F01B81752800F0DA8078285DD06AE709
:1006600030680390361D0A23012203A904A8FFF76E
:1006700003FF824604A81AEB00090398002804D55A
:100680002D2002901AF1010A11E03800800704D5EC
:100690002B2002901AF1010A09E03800400704D526
:1006A000202002901AF1010A01E0002002905FF080
:1006B000000B3800000711D50298002804D02A004A
:1006C00000A90298FFF7C2FE5FF0010B2B0000AA01
:1006D00041465046FFF708FFC24612E03800C00707
:1006E0000FD42B0000AA41465046FFF70CFF02989A
:1006F000002804D02A0000A90298FFF7A7FE5FF0A7
:10070000010BBBF1000F07D10298002804D02A008A
:1007100000A90298FFF79AFEA3E030680190361D09
:100720001023002201A904A8FFF7A6FE824604A810
:100730001AEB00095FF0000B3800000716D53800EF
:10074000C0060BD52A0000A93020FFF77FFE2A0043
:1007500000A97820FFF77AFE5FF0010B2B0000AABA
:1007600041465046FFF7C0FEC2461CE03800C007B5
:1007700019D43800C00601D51AF1020A2B0000AACC
:1007800041465046FFF7BFFE3800C0060BD52A0091
:1007900000A93020FFF75AFE2A0000A97820FFF7B1
:1007A00055FE5FF0010B3800C0060ED5BBF1000FFF
:1007B0000BD12A0000A93020FFF748FE2A0000A92B
:1007C0007820FFF743FE1AF1020A4AE030680190F0
:1007D000361D0823002201A904A8FFF74DFE82461A
:1007E0001FE030680190361D0223002201A904A8F1
:1007F000FFF742FE824614E030680190361D102358
:10080000002201A904A8FFF737FE824609E03068FC
:100810000190361D0A23002201A904A8FFF72CFE2F
:10082000824604A81AEB00093800000707D52B0000
:1008300000AA41465046FFF757FEC24611E0380075
:10084000C0070ED42B0000AA41465046FFF75BFEBE
:1008500007E02A0000A999F80000FFF7F7FDB9F1B9
:10086000010999F800000028F3D1F80705D52B00FD
:1008700000AA41465046FFF746FE61E63078361D35
:100880002A0000A9FFF7E2FD5AE6D6F80090361DCF
:10089000B9F1000F21D0484600F03AF882463800FE
:1008A000C0070ED42B0000AA41465046FFF72BFE8E
:1008B00007E02A0000A999F80000FFF7C7FD19F129
:1008C000010999F800000028F3D1F80705D52B009D
:1008D00000AA41465046FFF716FE31E63068361D45
:1008E000009901602CE600980DB0BDE8F08F0EB4C1
:1008F00000B584B0012100910449019105AA0100CD
:1009000000A8FFF70FFE04B05DF810FBC51E000045
:100910000021002802D1002006E0491C0200501CE2
:100920001278002AF9D10800704750F8041B61B111
:1009300050F8042BD30744BFA9F101039A180023F0
:1009400042F8043B091FFAD1EFE770472DE9F04167
:1009500004000D0016001F00DFF8540300684FF478
:100960007A7148435FEA5008E4B2002C0DD0E4B23B
:10097000012C02D0E4B2012C02D1EDB2022D04D33D
:100980003821DFF8300300F0B7F95FEA5800B042D1
:1009900004D23921DFF81C0300F0AEF95FEA1840F9
:1009A000B0FBF6F1002000E0401C89B251FA00F2E1
:1009B000012AF9DA38FA00F1B1FBF6F189B24A1CE2
:1009C00002FB07F24FF47A73B2FBF3F2E4B2002CAD
:1009D00005D0022C00F0B880C0F08980E1E0DFF89B
:1009E000D8321B6853F08073DFF8CC623360EDB20D
:1009F000002D0BD0022D25D016D3042D3ED02FD3A1
:100A0000062D57D048D3072D62D06FE0DFF8AC3207
:100A10001B6853F40063DFF8A4623360DFF8A03290
:100A20004FF480661E60BCE0DFF890321B6853F420
:100A30000063DFF888623360DFF888324FF4806645
:100A40001E60F0E7DFF874321B6853F40063DFF8D0
:100A50006C623360DFF870324FF480661E60E2E74C
:100A6000DFF858321B6853F40063DFF850623360DC
:100A7000DFF858324FF480661E60D4E7DFF83C326E
:100A80001B6853F48053DFF834623360DFF8403280
:100A90004FF480661E60C6E7DFF820321B6853F40F
:100AA0008053DFF818623360DFF828324FF4806635
:100AB0001E60B8E7DFF804321B6853F48053DFF898
:100AC000FC613360DFF810324FF480661E60AAE7E5
:100AD000DFF8E8311B6853F48053DFF8E0613360DE
:100AE000DFF8F8314FF480661E609CE7A8E0DFF87D
:100AF000C8311B6853F00073DFF8BC613360EDB29E
:100B0000002D02D0012D0FD01DE0DFF8B0311B68A1
:100B10004FF400763343DFF8A4613360DFF8C0316F
:100B20004FF440761E603CE0DFF890311B684FF4D4
:100B300000763343DFF884613360DFF8A8314FF487
:100B400040761E60EFE77BE0DFF89C311B6853F0D6
:100B50008073DFF894613360EDB2002D02D0012D77
:100B60000FD01DE0DFF854311B684FF4007633439B
:100B7000DFF848613360DFF874314FF440761E606F
:100B80000FE0DFF838311B684FF400763343DFF8AD
:100B90002C613360DFF858314FF440761E60EFE788
:100BA0004EE0EDB2E4B2DFF84C3153F8243013EBF1
:100BB000C503EDB2E4B2DFF83C6156F8246016EBF1
:100BC000C506F66836F00406DE60EDB2E4B2DFF882
:100BD000243153F8243013EBC5032826DE60E4B239
:100BE000DFF8103153F82430C0B210F0070050F095
:100BF00028001860E4B2DFF8FC0050F8240000235D
:100C0000C364E4B2DFF8EC0050F8240089B28160DC
:100C1000E4B2DFF8E00050F824000021C164EDB236
:100C2000E4B2DFF8D00050F8240010EBC50092B217
:100C30000261E4B2DFF8BC0050F8240000214160FA
:100C4000BDE8F08170B504000D001600E4B2002C80
:100C50000ED0E4B2012C02D0E4B2012C02D1EDB2EC
:100C6000022D05D340F27911DFF8480000F044F876
:100C7000B6F57A7F05D94FF4BD71DFF8380000F082
:100C80003BF8E4B2DFF86C0050F824008068401CA8
:100C900000FB06F04FF47A71B0FBF1F0EDB2E4B274
:100CA000DFF8501051F8241011EBC501086170BD38
:100CB000C4AEFF1FE81C00003C80044038800440A4
:100CC00004B0044008B004400CB0044010B004402C
:100CD00010C0044014C0044018C004401CC00440AC
:100CE0002090044024900440308004402890044028
:100CF0002C9004401084FF1F80B500F003F800F032
:100D000032F8FCE780B5012301221821042000F00D
:100D100059F8012301221921042000F053F801237E
:100D200001221A21042000F04DF8012301221B2189
:100D3000042000F047F801BD214A1269126801231E
:100D400083409A43C9B211F0010111FA00F0104337
:100D50001B4909690860704780B50100C9B20420C9
:100D600000F08AF801BD10B50123012218210420EA
:100D700000F028F8012301221921042000F022F8B4
:100D8000012301221A21042000F01CF80123012272
:100D90001B21042000F016F818240DE0002120008B
:100DA000C0B2FFF7C9FF642000F084F801212000E1
:100DB000C0B2FFF7C1FF641CE4B21C2CEED310BD1F
:100DC0001C84FF1FF8B504000D0017001E00EDB2D3
:100DD000202D02D2F6B2022E03D324213248FFF78F
:100DE0008BFFEDB2E4B2314850F824004FF480712B
:100DF00040F82510F80705D5FFB2032F02D0FFB247
:100E0000132F0DD1E4B22A4850F824004069012183
:100E1000A9408843E4B2264951F8241048612AE0E9
:100E2000E4B2234850F8240040690121A940084356
:100E3000E4B21F4951F824104861F6B2012E0DD1D9
:100E4000E4B21B4850F8240000680121A94008437F
:100E5000E4B2174951F8241008600CE0E4B21448D9
:100E600050F8240000680121A9408843E4B21049E9
:100E700051F824100860F1BD38B504000D00EDB242
:100E8000202D03D360210848FFF736FFE4B208485D
:100E900050F8240000680121A9404840E4B2044908
:100EA00051F82410086031BD481C00003084FF1F39
:100EB0001C84FF1F002104E000BF521E002AFBD14A
:100EC000491C814202D2024A1268F7E770470000CB
:100ED000C4AEFF1FDFF800F07184FF1F10B5C0B271
:100EE000002800F01481C0B2010030291ED0322940
:100EF0002CD0602931D0642936D06E293BD0782996
:100F000040D07D2945D082294AD08C294FD09629BE
:100F100054D0A02959D0AA295ED0B42963D0C829B9
:100F200068D0E1296DD0FA2972D078E0A64918225C
:100F30000A70A54900224A70A34900228A70C0B2F3
:100F4000652870D2A0490022CA708CE09E49182200
:100F50000A709D4901224A70EEE79B4918220A70E7
:100F6000994918224A70E7E7974918220A7096496A
:100F70001A224A70E0E7944918220A7092491F2207
:100F80004A70D9E7904913220A708F4918224A7093
:100F9000D2E78D4913220A708B491A224A70CBE797
:100FA000894913220A7088491C224A70C4E786497D
:100FB0000E220A70844912224A70BDE782490E222D
:100FC0000A70814915224A70B6E77F490E220A70DD
:100FD0007D4918224A70AFE77B490E220A707A4990
:100FE0001B224A70A8E778490E220A7076491E2211
:100FF0004A70A1E774490C220A7073491C224A7096
:101000009AE771490B220A706F491E224A7093E7D2
:101010006D490A220A706C491F224A708CE76420CD
:10102000FFF75CFFCEE0C0B2C92803D266490122B7
:10103000CA7018E00100C9B240F22D1289B2914283
:1010400003D261490222CA700DE00100C9B240F228
:10105000911289B2914203D25B490322CA7002E025
:1010600059490F22CA705849574AD2780A71C0B2FA
:101070001F2803D254480021417148E0C0B23D28E6
:1010800003D251480121417141E0C0B25B2803D233
:101090004D48022141713AE0C0B2792803D24A4852
:1010A0000321417133E0C0B2972803D2464804219E
:1010B00041712CE0C0B2B52803D2434805214171EB
:1010C00025E0C0B2D32803D23F48062141711EE07B
:1010D000C0B2F12803D23C480721417117E001005A
:1010E000C9B240F20F1289B2914203D236480821A8
:1010F00041710CE0C0B240F22D1180B2884203D29F
:1011000031480921417102E02F480F2141712E48D9
:101110004078183080B2322148432B490978491C65
:1011200089B290FBF1F42948002101702848006839
:1011300050F08050264908602648007850F0800022
:101140002449087024489821017024480078C0067A
:10115000FBD422480078C0F38100C0B20228F8D145
:101160001948007810F01F001D4908701D48002123
:10117000017015484379144802791348C178124820
:101180008078FFF7A7FE1048407810F01F0050F05D
:10119000400014490870114800788006FBD50F48BC
:1011A00000784006FBD50C48007810F03F000A4953
:1011B00008700A480078C0F38100C0B20328F8D153
:1011C0002000C0B210BD00BF5084FF1F0140064088
:1011D0003480044008C007400040064006400640F6
:1011E00004400640054006402DE9F0416F4C704D2B
:1011F0005FF0520C00261DE07F1CA42F0ADA5FF07E
:10120000A50EDFF8B0810EFB068E17F80EE0BEF1DA
:10121000000FF1D0002E06D1FA185FF0020C92FBFD
:10122000FCFCBCF152021CEB0000C01A7918B1EBB7
:101230000C01761C192E17DAA5235E4F03FB0673EB
:101240001CF80330002B0FD1674600E07F1E012FF2
:1012500007DBA523DFF85CE103FB06E3FB5C002B67
:10126000F4D03B006746C8E70F1A002E01D10020DA
:1012700010E0100000F0B6F8210000F0CBF80400F8
:1012800097FBF6F000F0AEF8290000F0C3F821005B
:1012900000F02CF9BDE8F08110B5474908604748D7
:1012A00001684548006800F0B5F80400424800684D
:1012B0004349096800F05CF94249096800F0AAF85E
:1012C000210000F013F9404908603D483A49096897
:1012D000016010BD80B5012301220A210020FFF723
:1012E00071FDDC2342F2107201210120FFF72EFB79
:1012F0004623322200210020FFF728FB0A22082182
:10130000012000F0A9F909220921012000F0A4F927
:10131000012300220A210120FFF754FDFFF7F2FC10
:101320005FF4E131032000F0CBF901230022062114
:101330000420FFF747FD0123002207210420FFF7C7
:1013400041FD01BD80B572B6FFF7C4FF62B61F480C
:1013500001681F480068FFF747FF020010000021E6
:1013600000F0AAFAF3D01000FFF796FF16480068C5
:10137000184900F0AFFA02D8134817490160124823
:101380000068164900F0B8FA02D20F48134901600C
:101390000D480068124900F0A9F800F0BFFA0200F9
:1013A00000210020FFF74EFCD1E70000CDCC4C3FE0
:1013B000CDCC4C3EBC84FF1FB0AEFF1F4884FF1F46
:1013C000B4AEFF1F4C84FF1FB8AEFF1FACAEFF1FB3
:1013D000A8AEFF1F0100204200002042000020C2F2
:1013E00000008C42002840F10780F446404200F0A3
:1013F00003F850F0004060470AD0B0FA80F188400E
:10140000D1F19D01C905020672F1004241EB1020A5
:1014100070470000FF2212EAD05C1DBF12EAD153D0
:10142000944593422BE09C44D30780EA01021A4082
:1014300043EA002043EA0121A1FB0030410038BF0C
:1014400040007CF17F010BDBFE294ADA5B0842EAAF
:10145000C15153EA006373F1004C51EB1020704707
:10146000D1F1080CDCF120012FDB5B0810FA01F14F
:101470000B4373F1004120FA0CF050417047944542
:101480001CBF02EAD153934280EA010202F00042FB
:101490001DD0400019D0490017D05BB9634514D066
:1014A0000902B1FA81F39940BCEB030CC00140F092
:1014B0000040C1E70002B0FA80FC10FA0CF0B3EB78
:1014C0000C0CC90141F00041B6E710007047400024
:1014D0000AD0490008D010F1807F94BF11F1807FBD
:1014E00002E042F0FF407047D043704790EA010F9E
:1014F00044BF81F0004100F043B800BF421A3CBF36
:10150000801A89184FF0004CC0F3C752FF2A24D02C
:10151000C1F3C75313B3D21AD2F1190327DD4CEA32
:1015200001214CFA03F321EA0303D140C20D4CEA36
:101530000020401834BF20EA0C004CEA5000D205CD
:1015400053EA006373EB0C0C52EB1020420012F1D3
:10155000807F38BF7047C00DC0057047490212BF79
:101560009A4200EB5120F8E7D2F11703D9D5704722
:1015700090EA010F44BF81F00041FFF7BFBF00BFF9
:10158000431A4FF000423EBF5340C01AC91800BF73
:10159000D3095FEAD05C13EB400F34BFB3EB410FCC
:1015A00040E07CEBD1530CD342EA012122D8D1EBAD
:1015B000402009D3400A28BF5FEA500140EBCC50DD
:1015C0007047401A15D04002B0FA80F2521C904089
:1015D000400A4FEA3C23B3EB026384BF00EB730085
:1015E00007E040F400001A16DB07C2F10102D04008
:1015F00018437047182BFCDC31FA03F202FA03F3AC
:10160000591A38BF42F00102D2EB40203CBF4000E3
:10161000ACF1010C5FEACC5CC20572F100414CEB0D
:101620005020704713EB400F0FD24B0009D0ACEBAA
:10163000D153022B03DB4902172BDDDD70479143A9
:10164000401A4300D5D10020704713EB410FD0D38F
:101650006FF000007047000010B5164B1B684FF488
:10166000007484402343134C2360C9B2C0B2124BB0
:1016700053F82030D2B2140414F47024D2B2D20938
:10168000D2B2224352F4817243F82120C0B20B4AF5
:1016900052F820205269012313FA01F132EA0101C4
:1016A000C0B2064A52F820205161C0B2573000F053
:1016B0004AF910BD388004403084FF1F1C84FF1F8E
:1016C00038B504000D00E4B2002C08D0022C24D060
:1016D00014D3042C3FD02FD3052C4BD059E0332109
:1016E0006548FFF709FB3E216348FFF705FB6348A8
:1016F000006850F48060614908604AE060484FF437
:10170000407101605F484FF4407101605B480068C0
:1017100050F40060594908603BE05B484FF4407169
:1017200001605A484FF4407101605448006850F419
:101730008050524908602CE055484FF440710160D8
:1017400054484FF4407101604C48006850F4005018
:101750004A4908601DE050484FF4407101604F480D
:101760004FF4407101604E48006850F480604C496D
:1017700008600EE04B484FF4407101604A484FF456
:10178000407101604648006850F4006044490860B8
:10179000FFE7E4B2454850F82400C07810F0F300A9
:1017A000E4B2424951F82410C870E4B23F4850F8FE
:1017B000240000218170E4B2002C08D00020E4B2A3
:1017C000012C04D050F00000C0B2002805D03848E9
:1017D00000684FF47A71484304E0364800684FF4DB
:1017E0007A7148432901B0FBF1F1E4B22F4A52F873
:1017F0002420127812F0E00289B20B0A13F01F03C2
:101800001A43E4B2294B53F824301A70E4B2274A41
:1018100052F82420517040012A01B0FBF2F089B245
:10182000B0EB4110E4B2214951F82410897A11F04B
:10183000E002E4B21D4951F8241010F01F001043DB
:101840008872E4B2194850F82400C07850F00C00B7
:10185000E4B2164951F82410C87031BDC0B2134A21
:1018600052F8202012791206F8D5C0B20F4A52F869
:101870002000C17170470000981C000034800440B3
:101880000CB0044010B004400CC0044008C0044038
:1018900014D0044010D0044064D0044060D0044010
:1018A0002880044024D0044020D004405884FF1FE6
:1018B000BCAEFF1FC4AEFF1F40EA010C5FEA4C0C38
:1018C00007D0884205D14FEA400C1CF1807F98BFB9
:1018D000804270474FF0807C1CEB400F94BF1CEBA4
:1018E000410F05E040EA010C5FEA4C0C01D2814255
:1018F000704718BF884270474FF0807C1CEB400F48
:1019000094BF1CEB410F05E040EA010C5FEA4C0C70
:1019100001D28842704718BF8142704740000DD203
:10192000010E7F390AD4D1F11F0104D4C00140F067
:101930000040C84070477FF00000704700207047AB
:1019400025490860704710B504005C2C02DB234871
:10195000FEF7CDFF202094FBF0F0002803D00228F2
:1019600027D013D337E00120202194FBF1F202FBB2
:10197000114290401A4908600120202194FBF1F2A5
:1019800002FB114290401749086024E00120202109
:1019900094FBF1F202FB11429040134908600120D0
:1019A000202194FBF1F202FB114290400F490860A4
:1019B00011E00120202194FBF1F202FB1142904042
:1019C0000B4908600120202194FBF1F202FB114237
:1019D00090400849086010BD08ED00E0801D00003F
:1019E00080E200E000E100E084E200E004E100E0E9
:1019F00088E200E008E100E080B529480068C00501
:101A00000DD5274800684FF48071084324490860C9
:101A10001820FFF7A1F923482349096801602048ED
:101A2000006880053AD51E4800684FF400710843ED
:101A30001B4908601B480068401C1A490860194887
:101A40000068001E822829D216480068022190FBF7
:101A5000F1F202FB1102002A20D1002000E0401C1C
:101A60004FF41B718842FAD3002014E0C0B20D4934
:101A700009687FF0010291FBF2F1A5220B4B02FBFA
:101A80000131411811F52551094A1268920A12F0E4
:101A900001020A70401CC0B2A528E7D301BD00BFF7
:101AA000A0A00440A4AEFF1F4484FF1FBC84FF1FFE
:101AB00050F00F4080B51C481C4988420BD00020D4
:101AC00006E01949194A52F8202041F82020401C0C
:101AD000B0F5826FF5D31448FFF732FF1449154A69
:101AE0001548801A03E013780B70521C491C030040
:101AF000581E002BF7D111491148401A02E000226C
:101B00000A70491C0200501E002AF8D10D490E4AE5
:101B10000E48801A03E013780B70521C491C030016
:101B2000581E002BF7D101BD0080FF1F00000000F0
:101B30001084FF1FE81B0000481C0000BC84FF1F2E
:101B4000C8AEFF1F7084FF1F341D0000801D000001
:101B500080B51C48006850F478501A490860C820C5
:101B6000FFF7BCF918490860174800684FF47A710C
:101B70004843164908601548006815490968C1F3CB
:101B80000361491CB0FBF1F01249086000F003F852
:101B900000F00CF801BD1048006850F480500E4968
:101BA00008600E484FF4E061016070470C4800681F
:101BB00050F001000A4908600A484FF4A061016032
:101BC0007047000038800440C0AEFF1FBCAEFF1F4E
:101BD00044800440C4AEFF1F0480044018900440B9
:101BE000408004400CB0044000800340009003405B
:101BF00000800B4000F00F4040F00F4080F00F409D
:101C0000C0F00F4000F10F400090044000A00440DD
:101C100000B0044000C0044000D00440B0FFFFFF0B
:101C200000008040000040400B1F00000009000041
:101C300000A0064000B0064000C0064000D00640AC
:101C400000A00E4000B00E40433A5C5573657273BD
:101C50005C4B6576696E2E48555C4465736B746F9A
:101C6000705C536D61727443617220547261696E6D
:101C7000696E675C696E6E6F2D4941525C73726369
:101C80005C647269766572735C6770696F5C6770BB
:101C9000696F2E6300000000433A5C5573657273F0
:101CA0005C4B6576696E2E48555C4465736B746F4A
:101CB000705C536D61727443617220547261696E1D
:101CC000696E675C696E6E6F2D4941525C73726319
:101CD0005C647269766572735C756172745C75615F
:101CE00072742E6300000000433A5C557365727392
:101CF0005C4B6576696E2E48555C4465736B746FFA
:101D0000705C536D61727443617220547261696ECC
:101D1000696E675C696E6E6F2D4941525C737263C8
:101D20005C647269766572735C46544D5C46544DD2
:101D30002E63000070B4104C24680F4D2D6855F4CC
:101D40007F050D4E3560090611F0706151EA007093
:101D5000110511F470010843190411F470210843AE
:101D600006490860002000E0401CC0B29842FBD346
:101D70000148046070BC704700F00140448004409A
:101D80000A4552522120496E76616C69642049529D
:101D9000512076616C756520706173736564207481
:101DA0006F20656E61626C65206972712066756E68
:101DB0006374696F6E210A0080B500F009F80A4863
:101DC00000884FF6FE7108400749088001BD0000F9
:101DD00072B606484CF22051018004484DF6281195
:101DE000018062B670470000002005400E200540CB
:101DF0000A2A2A2A2A64656661756C745F6973729F
:101E000020656E7465726564206F6E2076656374FC
:101E10006F722025642A2A2A2A2A0D0A0A00000045
:101E200010B5084979441C31074C7C441A34A1424E
:101E300006D0081D0A68511888470146A142F8D10A
:101E400010BD00BF0800000014000000DFEAFFFF23
:101E50000C2A0000BC84FF1F0000000080B5FEF7C4
:101E600051FFFEF780FF03480178C9B20248FEF730
:101E70003EFD01BD04ED00E0F01D00000120C04664
:101E8000002801D0FFF7CCFF0020FFF75BFA00F03D
:101E900000F800F001B800000746384600F002F8EC
:101EA000FBE7000001491820ABBEFBE7260002005B
:101EB00080B5FFF781FFFFF7FDFDFFF749FEFFF754
:101EC00041FAFEE780B50100C9B20320FFF7C6FC66
:101ED00001BDC046C046C046C046FFF7CFFF000068
:0400000500001ED306
:00000001FF
