:10000000F87F0020110400001D1A00001D1A0000D6
:100010001D1A00001D1A00001D1A00001D1A000004
:100020001D1A00001D1A00001D1A00001D1A0000F4
:100030001D1A00001D1A00001D1A00001D1A0000E4
:100040001D1A00001D1A00001D1A00001D1A0000D4
:100050001D1A00001D1A00001D1A00001D1A0000C4
:100060001D1A00001D1A00001D1A00001D1A0000B4
:100070001D1A00001D1A00001D1A00001D1A0000A4
:100080001D1A00001D1A00001D1A00001D1A000094
:100090001D1A00001D1A00001D1A00001D1A000084
:1000A0001D1A00001D1A00001D1A00001D1A000074
:1000B0001D1A00001D1A00001D1A00001D1A000064
:1000C0001D1A00001D1A00001D1A00001D1A000054
:1000D0001D1A00001D1A00001D1A00001D1A000044
:1000E0001D1A00001D1A00001D1A00001D1A000034
:1000F0001D1A00001D1A00001D1A00001D1A000024
:100100001D1A00001D1A00001D1A00001D1A000013
:100110001D1A00001D1A00001D1A00001D1A000003
:100120001D1A00001D1A00001D1A00001D1A0000F3
:100130001D1A00001D1A00001D1A00001D1A0000E3
:100140001D1A00001D1A00001D1A00001D1A0000D3
:10015000E91200001D1A00001D1A00001D1A0000FF
:100160001D1A00001D1A00001D1A00001D1A0000B3
:100170001D1A00001D1A00001D1A00001D1A0000A3
:100180001D1A00001D1A00001D1A00001D1A000093
:100190001D1A00001D1A00001D1A00001D1A000083
:10040000FFFFFFFFFFFFFFFFFFFFFFFFFEFFFFFFFD
:1004100062B64FF000004FF000014FF000024FF0C5
:1004200000034FF000044FF000054FF000064FF0BE
:1004300000074FF000084FF000094FF0000A4FF09E
:10044000000B4FF0000C01F02BFBFEE710B50C0089
:100450001168012902D0022904D009E0C0B2516814
:10046000884705E0916808709068401C9060FFE73D
:100470002068401C206010BD30B41C000023002503
:100480000570401C002A19D0096800290AD13021C2
:1004900001705B1C180030BC7047303511000570CE
:1004A000401C5B1C0029F5D091FBF4F204FB1215F3
:1004B000002DF2D5E94311F13105EFE70968002974
:1004C00008D1302101705B1CE4E73735110005705D
:1004D000401C5B1C0029DDD0B1FBF4F204FB1215BB
:1004E0000A2DF2D23035F1E7F8B504000D00160000
:1004F0001F0005E03A0031003020FFF7A7FF641C21
:10050000AC42F7DBF1BDF8B504000D0016001F008A
:1005100005E03A0031002020FFF798FF641CAC4250
:10052000F7DBF1BD2DE9F04F8DB00500160000207E
:1005300000900C0005E02A0000A91800FFF786FFD4
:10054000641C2378002B00F0CE81252B12D00A2BBF
:1005500005D02A0000A91800FFF778FF09E02A005B
:1005600000A90D20FFF772FF2A0000A90A20FFF75B
:100570006DFFE5E70027002101E057F001070029A2
:100580001BD1641C207820280BD023280FD02B28C7
:1005900004D02D28F1D0302806D00BE057F0020708
:1005A000EDE757F00407EAE757F00807E7E757F0E9
:1005B0001007E4E7641E0121E1E75FF00008002175
:1005C00004E00A2000FB0830B0F13008002908D10F
:1005D000641C2378180030380928F2D9641E0121E0
:1005E000F4E7641C20782E280BD10021FFE70029B6
:1005F00008D1641C207830380928F8D9641E0121FC
:10060000F5E7641E641C20784C2806D0682802D0C8
:100610006C2801D002E002E001E000E0641E641CEE
:1006200023781800582878D0622800F0DA806328F0
:1006300000F02481642813D0692811D06E2800F0BE
:100640004D816F2800F0C280702800F0D58073289B
:1006500000F01B81752800F0DA8078285DD06AE709
:1006600030680390361D0A23012203A904A8FFF76E
:1006700003FF824604A81AEB00090398002804D55A
:100680002D2002901AF1010A11E03800800704D5EC
:100690002B2002901AF1010A09E03800400704D526
:1006A000202002901AF1010A01E0002002905FF080
:1006B000000B3800000711D50298002804D02A004A
:1006C00000A90298FFF7C2FE5FF0010B2B0000AA01
:1006D00041465046FFF708FFC24612E03800C00707
:1006E0000FD42B0000AA41465046FFF70CFF02989A
:1006F000002804D02A0000A90298FFF7A7FE5FF0A7
:10070000010BBBF1000F07D10298002804D02A008A
:1007100000A90298FFF79AFEA3E030680190361D09
:100720001023002201A904A8FFF7A6FE824604A810
:100730001AEB00095FF0000B3800000716D53800EF
:10074000C0060BD52A0000A93020FFF77FFE2A0043
:1007500000A97820FFF77AFE5FF0010B2B0000AABA
:1007600041465046FFF7C0FEC2461CE03800C007B5
:1007700019D43800C00601D51AF1020A2B0000AACC
:1007800041465046FFF7BFFE3800C0060BD52A0091
:1007900000A93020FFF75AFE2A0000A97820FFF7B1
:1007A00055FE5FF0010B3800C0060ED5BBF1000FFF
:1007B0000BD12A0000A93020FFF748FE2A0000A92B
:1007C0007820FFF743FE1AF1020A4AE030680190F0
:1007D000361D0823002201A904A8FFF74DFE82461A
:1007E0001FE030680190361D0223002201A904A8F1
:1007F000FFF742FE824614E030680190361D102358
:10080000002201A904A8FFF737FE824609E03068FC
:100810000190361D0A23002201A904A8FFF72CFE2F
:10082000824604A81AEB00093800000707D52B0000
:1008300000AA41465046FFF757FEC24611E0380075
:10084000C0070ED42B0000AA41465046FFF75BFEBE
:1008500007E02A0000A999F80000FFF7F7FDB9F1B9
:10086000010999F800000028F3D1F80705D52B00FD
:1008700000AA41465046FFF746FE61E63078361D35
:100880002A0000A9FFF7E2FD5AE6D6F80090361DCF
:10089000B9F1000F21D0484600F03AF882463800FE
:1008A000C0070ED42B0000AA41465046FFF72BFE8E
:1008B00007E02A0000A999F80000FFF7C7FD19F129
:1008C000010999F800000028F3D1F80705D52B009D
:1008D00000AA41465046FFF716FE31E63068361D45
:1008E000009901602CE600980DB0BDE8F08F0EB4C1
:1008F00000B584B0012100910449019105AA0100CD
:1009000000A8FFF70FFE04B05DF810FBB51A000059
:100910000021002802D1002006E0491C0200501CE2
:100920001278002AF9D10800704750F8041B61B111
:1009300050F8042BD30744BFA9F101039A180023F0
:1009400042F8043B091FFAD1EFE77047DFF800F0E7
:100950001184FF1F10B5C0B2002800F01481C0B28E
:10096000010030291ED032292CD0602931D06429D1
:1009700036D06E293BD0782940D07D2945D08229B8
:100980004AD08C294FD0962954D0A02959D0AA29D1
:100990005ED0B42963D0C82968D0E1296DD0FA2986
:1009A00072D078E0A64918220A70A54900224A7040
:1009B000A34900228A70C0B2652870D2A0490022E3
:1009C000CA708CE09E4918220A709D4901224A7023
:1009D000EEE79B4918220A70994918224A70E7E706
:1009E000974918220A7096491A224A70E0E79449FA
:1009F00018220A7092491F224A70D9E7904913229F
:100A00000A708F4918224A70D2E78D4913220A7062
:100A10008B491A224A70CBE7894913220A70884908
:100A20001C224A70C4E786490E220A7084491222A9
:100A30004A70BDE782490E220A70814915224A7028
:100A4000B6E77F490E220A707D4918224A70AFE747
:100A50007B490E220A707A491B224A70A8E778491E
:100A60000E220A7076491E224A70A1E774490C22B0
:100A70000A7073491C224A709AE771490B220A7066
:100A80006F491E224A7093E76D490A220A706C4929
:100A90001F224A708CE76420FFF75CFFCEE0C0B2F3
:100AA000C92803D266490122CA7018E00100C9B200
:100AB00040F22D1289B2914203D261490222CA70DA
:100AC0000DE00100C9B240F2911289B2914203D205
:100AD0005B490322CA7002E059490F22CA70584983
:100AE000574AD2780A71C0B21F2803D25448002155
:100AF000417148E0C0B23D2803D251480121417103
:100B000041E0C0B25B2803D24D48022141713AE076
:100B1000C0B2792803D24A480321417133E0C0B200
:100B2000972803D24648042141712CE0C0B2B52871
:100B300003D243480521417125E0C0B2D32803D236
:100B40003F48062141711EE0C0B2F12803D23C4863
:100B50000721417117E00100C9B240F20F1289B2BA
:100B6000914203D23648082141710CE0C0B240F2F4
:100B70002D1180B2884203D231480921417102E02F
:100B80002F480F2141712E484078183080B2322111
:100B900048432B490978491C89B290FBF1F4294854
:100BA000002101702848006850F0805026490860F4
:100BB0002648007850F08000244908702448982185
:100BC000017024480078C006FBD422480078C0F3A6
:100BD0008100C0B20228F8D11948007810F01F0037
:100BE0001D4908701D4800210170154843791448BB
:100BF00002791348C17812488078FFF7A7FE1048A1
:100C0000407810F01F0050F040001449087011485F
:100C100000788006FBD50F4800784006FBD50C48CD
:100C2000007810F03F000A4908700A480078C0F3C5
:100C30008100C0B20328F8D12000C0B210BD00BFAF
:100C40008484FF1F014006403480044008C00740F0
:100C5000004006400640064004400640054006406D
:100C600038B504000D00E4B2002C08D0022C24D0CA
:100C700014D3042C3FD02FD3052C4BD059E0332173
:100C8000814800F021F93E217F4800F01DF97F489E
:100C9000006850F480607D4908604AE07C484FF469
:100CA000407101607B484FF44071016077480068F3
:100CB00050F40060754908603BE077484FF440719C
:100CC000016076484FF4407101607048006850F44C
:100CD00080506E4908602CE071484FF4407101600B
:100CE00070484FF4407101606848006850F400504B
:100CF000664908601DE06C484FF4407101606B4824
:100D00004FF4407101606A48006850F4806068499F
:100D100008600EE067484FF44071016066484FF488
:100D2000407101606248006850F4006060490860EA
:100D3000FFE7E4B2614850F82400C07810F0F300F7
:100D4000E4B25E4951F82410C870E4B25B4850F830
:100D5000240000218170E4B2002C08D00020E4B20D
:100D6000012C04D050F00000C0B2002805D0544837
:100D700000684FF47A71484304E0524800684FF429
:100D80007A7148432901B0FBF1F1E4B24B4A52F8C1
:100D90002420127812F0E00289B20B0A13F01F032C
:100DA0001A43E4B2454B53F824301A70E4B2434A74
:100DB00052F82420517040012A01B0FBF2F089B2B0
:100DC000B0EB4110E4B23D4951F82410897A11F09A
:100DD000E002E4B2394951F8241010F01F0010432A
:100DE0008872E4B2354850F82400C07850F00C0006
:100DF000E4B2324951F82410C87031BD0022521CAF
:100E00000F2A0ED2C0B22D4B53F820301B799B060F
:100E1000F5D5C0B2294A52F82000C07908700120E7
:100E200002E0002008700020704770B504000D003B
:100E3000002671192000C0B2FFF7E0FF761CC0B297
:100E40000028F6D1022E01D2002000E00120C0B21D
:100E500070BDC0B2194A52F8202012791206F8D596
:100E6000C0B2164A52F82000C171704738B504006C
:100E70000D0005E029782000C0B2FFF7EAFF6D1CE5
:100E800028780028F6D131BD2C18000034800440A9
:100E90000CB0044010B004400CC0044008C0044032
:100EA00040B0044044B0044064D0044060D00440EA
:100EB0002880044024D0044020D004408C84FF1FAC
:100EC0003485FF1F3C85FF1F80B500F003F800F05C
:100ED0002BF8FCE780B5012301221821042000F043
:100EE00053F8012301221921042000F04DF80123B9
:100EF00001221A21042000F047F8012301221B21BE
:100F0000042000F041F801BD1E4A12691268012355
:100F100083409A43C9B211F0010111FA00F0104365
:100F2000184909690860704710B50123012218218A
:100F3000042000F029F8012301221921042000F0E7
:100F400023F8012301221A21042000F01DF80123B7
:100F500001221B21042000F017F818240DE00021C5
:100F60002000C0B2FFF7D0FF642000F0C5F80121D7
:100F70002000C0B2FFF7C8FF641CE4B21C2CEED303
:100F800010BD00005C84FF1FF8B504000D001700C1
:100F90001E00EDB2202D02D2F6B2022E03D3242180
:100FA0005248FFF791FFEDB2E4B2514850F82400E7
:100FB0004FF4807140F82510F80705D5FFB2032FD4
:100FC00002D0FFB2132F0DD1E4B24A4850F82400EA
:100FD00040690121A9408843E4B2464951F82410F0
:100FE00048612AE0E4B2434850F8240040690121F6
:100FF000A9400843E4B23F4951F824104861F6B2D1
:10100000012E0DD1E4B23B4850F8240000680121C4
:10101000A9400843E4B2374951F8241008600CE0B5
:10102000E4B2344850F8240000680121A940884304
:10103000E4B2304951F824100860F1BD70B50400E5
:101040000D001600EDB2202D02D2F6B2022E03D30F
:101050004B212648FFF738FFF6B2012E0DD1E4B23E
:10106000244850F8240000680121A9400843E4B254
:10107000204951F8241008600CE0E4B21D4850F8F3
:10108000240000680121A9408843E4B2194951F8BD
:101090002410086070BD38B504000D00EDB2202D9D
:1010A00003D360211148FFF70FFFE4B2114850F855
:1010B000240000680121A9404840E4B20D4951F8DC
:1010C0002410086031BD38B504000D00EDB2202DAC
:1010D00003D371210548FFF7F7FEE4B2054850F845
:1010E00024000069E84010F0010032BDE417000060
:1010F0007084FF1F5C84FF1F002104E000BF521EAC
:10110000002AFBD1491C814202D2024A1268F7E749
:10111000704700003C85FF1FB0B581EA030C0CF05E
:10112000004C40F2FF7515EA11541DBF15EA135724
:10113000AC42AF4239E0E41923EA455343F480134B
:10114000C90241F0004141EA505EC7021100A7FB0D
:10115000020200284FF00000EEFB01204FF00001DA
:10116000E3FB072118BF42F001024018002149416A
:10117000E3FB0E01A4F580640F0302D2520040414C
:10118000494154F101046CDD470872F1004250F10D
:10119000000051EB0451A1F580115CBF41EA0C0144
:1011A000B0BD4CEA05510020B0BD05EA1357AC4272
:1011B00014BFAF4241E050EA410E1CBF52EA430E59
:1011C00002E061460020B0BD24423C441BD15FEAEE
:1011D000070EF6D0090302BF01460020AEF1140E3F
:1011E000B1FA81F7AEEB070401FA07FE0C37C7F13D
:1011F000200100FA07F7C8404EEA000E23EA4553E3
:1012000043F48013A2E733F00043B3FA83F704BF3B
:10121000B2FA82FE77440B3FE41BB7F1200E2FBFDA
:1012200002FA0EF3BB40C7F1200E22FA0EFE38BFC1
:1012300043EA0E03BA40641C82E750EA410E14BF31
:1012400052EA430E6FF000014FF4001717EB430F03
:101250008ABF194617EB410FB5E74CEA055100204C
:10126000B0BDD4F10104B4F120070FDAC4F12007B6
:10127000520828BF42F0010210FA07F501FA07F7F9
:10128000E1BF2A43E0403843E1400FE0352C98DCD1
:10129000C7F1200452EA400220FA07F218BF42F0D8
:1012A000010231FA07F0A1400A43002172F1004225
:1012B00050F1000051EB0C01B0BD000010B504006E
:1012C0005648002101600AE054480068015D03208F
:1012D000FFF7BFFD51480068401C504908604F4867
:1012E00000688028F0DB10BD80B503210320FFF7E4
:1012F000D2FE12210120FFF7CEFE49490320FFF75D
:1013000094FD012820D147490320FFF7AFFD40A1FC
:101310000320FFF7ABFD4448012101604348012150
:101320000160434800210160002200210320FFF7F3
:1013300085FE002201210320FFF780FE01221321F8
:101340000220FFF77BFE04E0012200210320FFF7CB
:1013500075FE0B210020FFF7B6FE002805D13448AA
:10136000006834493122425404E031480068314970
:10137000302242542E480068142810D12A480068B0
:1013800001280CD1002213210220FFF757FE2A4921
:101390000320FFF76BFD1EA10320FFF767FD244824
:1013A0000068802828D121480068012824D12048DD
:1013B000002101601C48002101601C4800210160DF
:1013C000012201210320FFF739FE1C490320FFF70A
:1013D0004DFD0FA10320FFF749FD19490320FFF739
:1013E00045FD0CA10320FFF741FD1248FFF766FF02
:1013F00009A10320FFF73AFD0D480068401C0C4985
:1014000008601048006850F001000E49086001BDF6
:101410000C0000000C0A00000A0C00002485FF1FCD
:101420004085FF1F2C1900002C85FF1F3085FF1FF2
:101430002885FF1FA484FF1F90190000E8190000F1
:101440003C1A00000C71034025490860704710B534
:1014500004005C2C02DB2348FFF749FA202094FBB0
:10146000F0F0002803D0022827D013D337E0012062
:10147000202194FBF1F202FB114290401A490860CE
:101480000120202194FBF1F202FB11429040174908
:10149000086024E00120202194FBF1F202FB1142BC
:1014A0009040134908600120202194FBF1F202FBD7
:1014B000114290400F49086011E00120202194FB67
:1014C000F1F202FB114290400B49086001202021FB
:1014D00094FBF1F202FB114290400849086010BDF4
:1014E00008ED00E0BC18000080E200E000E100E050
:1014F00084E200E004E100E088E200E008E100E0CE
:1015000080B500F009F80E48FFF7F1F94FF4FA70D2
:10151000FFF7F2FDFAE7000080B572B600F018F8A8
:101520000848006800F046F8074A084BFFF7F4FD4A
:1015300000F04EF80100002000F060F862B601BD36
:10154000541A00003C85FF1F7B14AE47E17A843FAC
:1015500080B50123012200210320FFF715FD01239F
:10156000012201210320FFF70FFD012301220221A7
:101570000320FFF709FD0123012203210320FFF7C8
:1015800003FD0123012212210120FFF7FDFC0123AD
:10159000012213210220FFF7F7FC012300220B2177
:1015A0000020FFF7F1FC5FF4E1310320FFF758FB67
:1015B00001BD0000010000BF09D0B0FA80F18840F1
:1015C000C91CC1F58461090501EBD02140057047B4
:1015D000400D40EAC120490080F00D8040F00040FD
:1015E000490DA1F58061491C05D4D1F11F0154BFFB
:1015F000C840C01770474FF00000704780B5164ACA
:10160000126852F40002144B1A60144A12689208CD
:101610009200124B1A60C0B20201114BD150C0B2FD
:101620000F4911EB0011C96851F00101C0B20C4A19
:1016300012EB0012D160C0B2094911EB00118968A8
:1016400051F00301C0B2064A12EB00129160C0B221
:101650004430FFF7FCFE01BD3C80044000700340B5
:101660000071034080B51C481C4988420BD0002003
:1016700006E01949194A52F8202041F82020401C60
:10168000B0F5826FF5D31448FFF7DEFE1449154A12
:101690001548801A03E013780B70521C491C030094
:1016A000581E002BF7D111491148401A02E00022C0
:1016B0000A70491C0200501E002AF8D10D490E4A3A
:1016C0000E48801A03E013780B70521C491C03006B
:1016D000581E002BF7D101BD0080FF1F0000000045
:1016E0005C84FF1F74180000BC180000A484FF1F56
:1016F0004185FF1F1084FF1F98170000E4170000AA
:1017000080B51C48006850F478501A490860C82019
:10171000FFF720F918490860174800684FF47A71FC
:101720004843164908601548006815490968C1F31F
:101730000361491CB0FBF1F01249086000F003F8A6
:1017400000F00CF801BD1048006850F480500E49BC
:1017500008600E484FF4E061016070470C48006873
:1017600050F001000A4908600A484FF4A061016086
:1017700070470000388004403885FF1F3485FF1F04
:10178000448004403C85FF1F0480044018900440BE
:10179000408004400CB0044070B4104C24680F4DDD
:1017A0002D6855F47F050D4E3560090611F0706106
:1017B00051EA0070110511F470010843190411F485
:1017C0007021084306490860002000E0401CC0B2B8
:1017D0009842FBD30148046070BC704700F00140A0
:1017E00044800440433A5C55736572735C4C6F757A
:1017F00069734D6F5C446F63756D656E74735C47A0
:1018000069744875625C555354536D6172746361B9
:10181000725C7372635C647269766572735C677024
:10182000696F5C6770696F2E63000000433A5C5516
:10183000736572735C4C6F7569734D6F5C446F6355
:10184000756D656E74735C4769744875625C555359
:1018500054536D6172746361725C7372635C647221
:1018600069766572735C756172745C756172742EF1
:101870006300000000F00F4040F00F4080F00F4088
:10188000C0F00F4000F10F400090044000A0044061
:1018900000B0044000C0044000D004400B1F000012
:1018A0000009000000A0064000B0064000C006404D
:1018B00000D0064000A00E4000B00E400A45525233
:1018C0002120496E76616C6964204952512076610D
:1018D0006C75652070617373656420746F20656E2C
:1018E00061626C65206972712066756E6374696FE0
:1018F0006E210A0080B500F009F80A4800884FF60A
:10190000FE7108400749088001BD000072B6064814
:101910004CF22051018004484DF62811018062B636
:1019200070470000002005400E2005402A2E2A2E78
:101930002A2E2A20534920547269676765722C2029
:10194000726973696E6720656467652067656E6597
:101950007261746564202A2E2A2E2A2E2A00000025
:101960000A2A2A2A2A64656661756C745F69737233
:1019700020656E7465726564206F6E207665637491
:101980006F722025642A2A2A2A2A0D0A0A000000DA
:101990002A2E2A2E2A2E2A205349206661696C6934
:1019A0006E6720656467652068617070656E656448
:1019B000202A2E2A2E2A2E2A0000000010B50849BF
:1019C00079441C31074C7C441A34A14206D0081DCE
:1019D0000A68511888470146A142F8D110BD00BFDE
:1019E0002C000000380000002A2E2A2E2A2E2A2041
:1019F0005349206C6F636B696E67206D6F6465205F
:101A0000656E64202A2E2A2E2A2E2A001FEFFFFF41
:101A1000A0000000A484FF1F0000000080B5FFF7B5
:101A200059FAFFF781FA03480178C9B20248FEF774
:101A30005EFF01BD04ED00E0601900004A7573749B
:101A40002053616D706C6564204172726179206908
:101A5000733A200045766572797468696E6720690B
:101A60006E697465642066696E6500000120C04679
:101A7000002801D0FFF7A2FF0020FFF741FD00F092
:101A800000F800F001B800000746384600F002F800
:101A9000FBE7000001491820ABBEFBE7260002006F
:101AA00080B5FFF727FFFFF7DDFDFFF729FEFFF702
:101AB00027FDFEE780B50100C9B20320FFF7C9F991
:101AC00001BDC046C046C046C046FFF7CFFF00007C
:0400000500001AC31A
:00000001FF
